{
  "_format": "hh-sol-artifact-1",
  "contractName": "Arcana",
  "sourceName": "contracts/Arcana.sol",
  "abi": [
    {
      "anonymous": false,
      "inputs": [
        {
          "indexed": false,
          "internalType": "address",
          "name": "previousAdmin",
          "type": "address"
        },
        {
          "indexed": false,
          "internalType": "address",
          "name": "newAdmin",
          "type": "address"
        }
      ],
      "name": "AdminChanged",
      "type": "event"
    },
    {
      "anonymous": false,
      "inputs": [
        {
          "indexed": true,
          "internalType": "address",
          "name": "beacon",
          "type": "address"
        }
      ],
      "name": "BeaconUpgraded",
      "type": "event"
    },
    {
      "anonymous": false,
      "inputs": [
        {
          "indexed": true,
          "internalType": "address",
          "name": "identity",
          "type": "address"
        },
        {
          "indexed": true,
          "internalType": "bytes32",
          "name": "file",
          "type": "bytes32"
        }
      ],
      "name": "DeleteFileEvent",
      "type": "event"
    },
    {
      "anonymous": false,
      "inputs": [
        {
          "indexed": true,
          "internalType": "address",
          "name": "identity",
          "type": "address"
        },
        {
          "indexed": true,
          "internalType": "bytes32",
          "name": "file",
          "type": "bytes32"
        },
        {
          "indexed": false,
          "internalType": "uint256",
          "name": "n",
          "type": "uint256"
        },
        {
          "indexed": false,
          "internalType": "uint256",
          "name": "k",
          "type": "uint256"
        },
        {
          "indexed": false,
          "internalType": "uint256",
          "name": "fileSize",
          "type": "uint256"
        }
      ],
      "name": "NewFileUpdate",
      "type": "event"
    },
    {
      "anonymous": false,
      "inputs": [
        {
          "indexed": true,
          "internalType": "address",
          "name": "identity",
          "type": "address"
        },
        {
          "indexed": true,
          "internalType": "bytes32",
          "name": "file",
          "type": "bytes32"
        },
        {
          "indexed": false,
          "internalType": "uint256",
          "name": "validity",
          "type": "uint256"
        },
        {
          "indexed": false,
          "internalType": "bytes32",
          "name": "accessType",
          "type": "bytes32"
        },
        {
          "indexed": false,
          "internalType": "address",
          "name": "excutor",
          "type": "address"
        }
      ],
      "name": "NewPermissionCheck",
      "type": "event"
    },
    {
      "anonymous": false,
      "inputs": [
        {
          "indexed": true,
          "internalType": "address",
          "name": "identity",
          "type": "address"
        },
        {
          "indexed": true,
          "internalType": "bytes32",
          "name": "file",
          "type": "bytes32"
        },
        {
          "indexed": true,
          "internalType": "address",
          "name": "user",
          "type": "address"
        },
        {
          "indexed": false,
          "internalType": "bytes32",
          "name": "accessType",
          "type": "bytes32"
        },
        {
          "indexed": false,
          "internalType": "uint256",
          "name": "validity",
          "type": "uint256"
        }
      ],
      "name": "NewShare",
      "type": "event"
    },
    {
      "anonymous": false,
      "inputs": [
        {
          "indexed": true,
          "internalType": "address",
          "name": "identity",
          "type": "address"
        },
        {
          "indexed": true,
          "internalType": "bytes32",
          "name": "file",
          "type": "bytes32"
        },
        {
          "indexed": true,
          "internalType": "address",
          "name": "user",
          "type": "address"
        },
        {
          "indexed": false,
          "internalType": "bytes32",
          "name": "accessType",
          "type": "bytes32"
        }
      ],
      "name": "NewUpdateACK",
      "type": "event"
    },
    {
      "anonymous": false,
      "inputs": [
        {
          "indexed": true,
          "internalType": "address",
          "name": "previousOwner",
          "type": "address"
        },
        {
          "indexed": true,
          "internalType": "address",
          "name": "newOwner",
          "type": "address"
        }
      ],
      "name": "OwnershipTransferred",
      "type": "event"
    },
    {
      "anonymous": false,
      "inputs": [
        {
          "indexed": true,
          "internalType": "address",
          "name": "implementation",
          "type": "address"
        }
      ],
      "name": "Upgraded",
      "type": "event"
    },
    {
      "inputs": [
        {
          "internalType": "bytes32",
          "name": "",
          "type": "bytes32"
        },
        {
          "internalType": "bytes32",
          "name": "",
          "type": "bytes32"
        },
        {
          "internalType": "address",
          "name": "",
          "type": "address"
        }
      ],
      "name": "accessSpecifier",
      "outputs": [
        {
          "internalType": "bytes",
          "name": "encryptedKey",
          "type": "bytes"
        },
        {
          "internalType": "uint256",
          "name": "validity",
          "type": "uint256"
        }
      ],
      "stateMutability": "view",
      "type": "function"
    },
    {
      "inputs": [],
      "name": "appName",
      "outputs": [
        {
          "internalType": "string",
          "name": "",
          "type": "string"
        }
      ],
      "stateMutability": "view",
      "type": "function"
    },
    {
      "inputs": [
        {
          "internalType": "bytes32",
          "name": "_file",
          "type": "bytes32"
        },
        {
          "internalType": "address",
          "name": "_newOwner",
          "type": "address"
        }
      ],
      "name": "changeFileOwner",
      "outputs": [
        {
          "internalType": "bool",
          "name": "",
          "type": "bool"
        }
      ],
      "stateMutability": "nonpayable",
      "type": "function"
    },
    {
      "inputs": [
        {
          "internalType": "address",
          "name": "_identity",
          "type": "address"
        },
        {
          "internalType": "bytes32",
          "name": "_file",
          "type": "bytes32"
        },
        {
          "internalType": "bytes32",
          "name": "_accessType",
          "type": "bytes32"
        }
      ],
      "name": "checkPermission",
      "outputs": [
        {
          "internalType": "uint256",
          "name": "",
          "type": "uint256"
        }
      ],
      "stateMutability": "nonpayable",
      "type": "function"
    },
    {
      "inputs": [
        {
          "internalType": "bytes32",
          "name": "_file",
          "type": "bytes32"
        }
      ],
      "name": "deleteFile",
      "outputs": [],
      "stateMutability": "nonpayable",
      "type": "function"
    },
    {
      "inputs": [],
      "name": "factory",
      "outputs": [
        {
          "internalType": "contract FactoryInterface",
          "name": "",
          "type": "address"
        }
      ],
      "stateMutability": "view",
      "type": "function"
    },
    {
      "inputs": [
        {
          "internalType": "bytes32",
          "name": "",
          "type": "bytes32"
        }
      ],
      "name": "files",
      "outputs": [
        {
          "internalType": "address",
          "name": "owner",
          "type": "address"
        },
        {
          "internalType": "uint256",
          "name": "n",
          "type": "uint256"
        },
        {
          "internalType": "uint256",
          "name": "k",
          "type": "uint256"
        },
        {
          "internalType": "uint256",
          "name": "fileSize",
          "type": "uint256"
        },
        {
          "internalType": "bool",
          "name": "uploaded",
          "type": "bool"
        },
        {
          "internalType": "bytes",
          "name": "encryptedMetaData",
          "type": "bytes"
        },
        {
          "internalType": "bytes",
          "name": "encryptedKey",
          "type": "bytes"
        },
        {
          "internalType": "address",
          "name": "storageNode",
          "type": "address"
        }
      ],
      "stateMutability": "view",
      "type": "function"
    },
    {
      "inputs": [
        {
          "internalType": "bytes32",
          "name": "_file",
          "type": "bytes32"
        },
        {
          "internalType": "bytes32",
          "name": "_accessType",
          "type": "bytes32"
        }
      ],
      "name": "getAllUsers",
      "outputs": [
        {
          "internalType": "address[]",
          "name": "",
          "type": "address[]"
        }
      ],
      "stateMutability": "view",
      "type": "function"
    },
    {
      "inputs": [
        {
          "internalType": "string",
          "name": "_appName",
          "type": "string"
        },
        {
          "internalType": "address",
          "name": "_factory",
          "type": "address"
        },
        {
          "internalType": "address",
          "name": "_relayer",
          "type": "address"
        }
      ],
      "name": "initialize",
      "outputs": [],
      "stateMutability": "nonpayable",
      "type": "function"
    },
    {
      "inputs": [
        {
          "internalType": "address",
          "name": "forwarder",
          "type": "address"
        }
      ],
      "name": "isTrustedForwarder",
      "outputs": [
        {
          "internalType": "bool",
          "name": "",
          "type": "bool"
        }
      ],
      "stateMutability": "view",
      "type": "function"
    },
    {
      "inputs": [],
      "name": "owner",
      "outputs": [
        {
          "internalType": "address",
          "name": "",
          "type": "address"
        }
      ],
      "stateMutability": "view",
      "type": "function"
    },
    {
      "inputs": [],
      "name": "renounceOwnership",
      "outputs": [],
      "stateMutability": "nonpayable",
      "type": "function"
    },
    {
      "inputs": [
        {
          "internalType": "bytes32",
          "name": "_file",
          "type": "bytes32"
        },
        {
          "internalType": "address",
          "name": "_user",
          "type": "address"
        },
        {
          "internalType": "bytes32",
          "name": "_accessType",
          "type": "bytes32"
        }
      ],
      "name": "revoke",
      "outputs": [],
      "stateMutability": "nonpayable",
      "type": "function"
    },
    {
      "inputs": [
        {
          "internalType": "bytes32[]",
          "name": "_files",
          "type": "bytes32[]"
        },
        {
          "internalType": "address[]",
          "name": "_user",
          "type": "address[]"
        },
        {
          "internalType": "bytes32[]",
          "name": "_accessType",
          "type": "bytes32[]"
        },
        {
          "internalType": "bytes[]",
          "name": "_encryptedKey",
          "type": "bytes[]"
        },
        {
          "internalType": "uint256[]",
          "name": "_validity",
          "type": "uint256[]"
        }
      ],
      "name": "share",
      "outputs": [],
      "stateMutability": "nonpayable",
      "type": "function"
    },
    {
      "inputs": [
        {
          "internalType": "bytes32[]",
          "name": "_files",
          "type": "bytes32[]"
        },
        {
          "internalType": "address[]",
          "name": "_user",
          "type": "address[]"
        },
        {
          "internalType": "bytes32[]",
          "name": "_accessType",
          "type": "bytes32[]"
        },
        {
          "internalType": "bytes[]",
          "name": "_encryptedKey",
          "type": "bytes[]"
        },
        {
          "internalType": "uint256[]",
          "name": "_validity",
          "type": "uint256[]"
        }
      ],
      "name": "shareUser",
      "outputs": [],
      "stateMutability": "nonpayable",
      "type": "function"
    },
    {
      "inputs": [
        {
          "internalType": "address",
          "name": "newOwner",
          "type": "address"
        }
      ],
      "name": "transferOwnership",
      "outputs": [],
      "stateMutability": "nonpayable",
      "type": "function"
    },
    {
      "inputs": [
        {
          "internalType": "address",
          "name": "newImplementation",
          "type": "address"
        }
      ],
      "name": "upgradeTo",
      "outputs": [],
      "stateMutability": "nonpayable",
      "type": "function"
    },
    {
      "inputs": [
        {
          "internalType": "address",
          "name": "newImplementation",
          "type": "address"
        },
        {
          "internalType": "bytes",
          "name": "data",
          "type": "bytes"
        }
      ],
      "name": "upgradeToAndCall",
      "outputs": [],
      "stateMutability": "payable",
      "type": "function"
    },
    {
      "inputs": [
        {
          "internalType": "bytes32",
          "name": "_file",
          "type": "bytes32"
        }
      ],
      "name": "uploadClose",
      "outputs": [],
      "stateMutability": "nonpayable",
      "type": "function"
    },
    {
      "inputs": [
        {
          "internalType": "bytes32",
          "name": "_file",
          "type": "bytes32"
        },
        {
          "internalType": "uint256",
          "name": "_n",
          "type": "uint256"
        },
        {
          "internalType": "uint256",
          "name": "_k",
          "type": "uint256"
        },
        {
          "internalType": "uint256",
          "name": "_fileSize",
          "type": "uint256"
        },
        {
          "internalType": "bytes",
          "name": "_encryptedMetaData",
          "type": "bytes"
        },
        {
          "internalType": "bytes",
          "name": "_encryptedKey",
          "type": "bytes"
        },
        {
          "internalType": "address",
          "name": "_storageNode",
          "type": "address"
        }
      ],
      "name": "uploadInit",
      "outputs": [],
      "stateMutability": "nonpayable",
      "type": "function"
    },
    {
      "inputs": [
        {
          "internalType": "bytes32",
          "name": "",
          "type": "bytes32"
        },
        {
          "internalType": "bytes32",
          "name": "",
          "type": "bytes32"
        },
        {
          "internalType": "uint256",
          "name": "",
          "type": "uint256"
        }
      ],
      "name": "userAccess",
      "outputs": [
        {
          "internalType": "address",
          "name": "",
          "type": "address"
        }
      ],
      "stateMutability": "view",
      "type": "function"
    }
  ],
  "bytecode": "0x608060405234801561001057600080fd5b50613633806100206000396000f3fe60806040526004361061016a5760003560e01c806363a15202116100cb57806398c9adff1161007f578063c45a015511610059578063c45a0155146103fe578063c5b264471461041f578063f2fde38b1461043f5761016a565b806398c9adff1461038a578063a056e1fd146103be578063c12ed14f146103de5761016a565b80636b2877d4116100b05780636b2877d414610328578063715018a6146103485780638da5cb5b1461035d5761016a565b806363a15202146102e85780636ab799f1146103085761016a565b80634f1ef286116101225780635f784b8a116101075780635f784b8a1461025f5780636184533f1461028d578063638b6add146102ba5761016a565b80634f1ef2861461021c578063572b6c051461022f5761016a565b80633659cfe6116101535780633659cfe6146101bc5780633a8be7f5146101dc578063463fd1af146101fc5761016a565b80630c97282c1461016f5780630d3fbd051461019a575b600080fd5b34801561017b57600080fd5b5061018461045f565b60405161019191906134d1565b60405180910390f35b3480156101a657600080fd5b506101ba6101b53660046130ce565b6104ed565b005b3480156101c857600080fd5b506101ba6101d7366004613036565b610b30565b3480156101e857600080fd5b506101ba6101f73660046130ce565b610b57565b34801561020857600080fd5b506101ba610217366004613349565b61118d565b6101ba61022a366004613082565b61128d565b34801561023b57600080fd5b5061024f61024a366004613036565b6112a6565b6040519015158152602001610191565b34801561026b57600080fd5b5061027f61027a366004613252565b6112bd565b6040516101919291906134af565b34801561029957600080fd5b506102ad6102a8366004613231565b611372565b6040516101919190613462565b3480156102c657600080fd5b506102da6102d5366004613050565b6114bf565b604051908152602001610191565b3480156102f457600080fd5b506101ba6103033660046131ba565b6115cd565b34801561031457600080fd5b506101ba6103233660046131ba565b6116ed565b34801561033457600080fd5b506101ba6103433660046131fd565b611908565b34801561035457600080fd5b506101ba611b49565b34801561036957600080fd5b50610372611c02565b6040516001600160a01b039091168152602001610191565b34801561039657600080fd5b506103aa6103a53660046131ba565b611c12565b6040516101919897969594939291906133f7565b3480156103ca57600080fd5b506101ba6103d93660046132b1565b611d80565b3480156103ea57600080fd5b506103726103f9366004613286565b61210d565b34801561040a57600080fd5b5061010054610372906001600160a01b031681565b34801561042b57600080fd5b5061024f61043a3660046131d2565b612152565b34801561044b57600080fd5b506101ba61045a366004613036565b61234a565b60fc805461046c9061357d565b80601f01602080910402602001604051908101604052809291908181526020018280546104989061357d565b80156104e55780601f106104ba576101008083540402835291602001916104e5565b820191906000526020600020905b8154815290600101906020018083116104c857829003601f168201915b505050505081565b610100546001600160a01b0316631f5bdf5d610507612491565b6040516001600160e01b031960e084901b1681526001600160a01b039091166004820152602401602060405180830381600087803b15801561054857600080fd5b505af115801561055c573d6000803e3d6000fd5b505050506040513d601f19601f82011682018060405250810190610580919061319a565b6105d15760405162461bcd60e51b815260206004820152601f60248201527f55736572206e6f74207265676973746572656420666f7220746865206170700060448201526064015b60405180910390fd5b82518451146106485760405162461bcd60e51b815260206004820152603a60248201527f55736572206172726179206c656e67746820646f6573206e6f74206d6174636860448201527f65732077697468206163636573732074797065206c656e67746800000000000060648201526084016105c8565b80518451146106bf5760405162461bcd60e51b815260206004820152603760248201527f55736572206172726179206c656e67746820646f6573206e6f74206d6174636860448201527f657320776974682076616c6964697479206c656e67746800000000000000000060648201526084016105c8565b60005b8551811015610b285760005b8551811015610b155760ff60008883815181106106fb57634e487b7160e01b600052603260045260246000fd5b6020908102919091018101518252810191909152604001600020546001600160a01b0316610727612491565b6001600160a01b03161461076e5760405162461bcd60e51b815260206004820152600e60248201526d2737ba103334b6329037bbb732b960911b60448201526064016105c8565b82828151811061078e57634e487b7160e01b600052603260045260246000fd5b6020026020010151600014156107e65760405162461bcd60e51b815260206004820152601960248201527f56616c6964697479206d757374206265206e6f6e207a65726f0000000000000060448201526064016105c8565b604051806040016040528085848151811061081157634e487b7160e01b600052603260045260246000fd5b6020026020010151815260200184848151811061083e57634e487b7160e01b600052603260045260246000fd5b6020026020010151426108519190613539565b81525060fd600089858151811061087857634e487b7160e01b600052603260045260246000fd5b6020026020010151815260200190815260200160002060008785815181106108b057634e487b7160e01b600052603260045260246000fd5b6020026020010151815260200190815260200160002060008884815181106108e857634e487b7160e01b600052603260045260246000fd5b60200260200101516001600160a01b03166001600160a01b03168152602001908152602001600020600082015181600001908051906020019061092c929190612db5565b506020820151816001015590505060fe600088848151811061095e57634e487b7160e01b600052603260045260246000fd5b60200260200101518152602001908152602001600020600086848151811061099657634e487b7160e01b600052603260045260246000fd5b602002602001015181526020019081526020016000208682815181106109cc57634e487b7160e01b600052603260045260246000fd5b60209081029190910181015182546001810184556000938452919092200180546001600160a01b0319166001600160a01b039092169190911790558551869082908110610a2957634e487b7160e01b600052603260045260246000fd5b60200260200101516001600160a01b0316878381518110610a5a57634e487b7160e01b600052603260045260246000fd5b6020026020010151610a6a612491565b6001600160a01b03167f1ebaec2e787dc387c941232bf165b988dd5c126cd5f60b7215b6ece61bfbc879888581518110610ab457634e487b7160e01b600052603260045260246000fd5b6020026020010151878681518110610adc57634e487b7160e01b600052603260045260246000fd5b6020026020010151604051610afb929190918252602082015260400190565b60405180910390a480610b0d816135b8565b9150506106ce565b5080610b20816135b8565b9150506106c2565b505050505050565b610b39816124bf565b610b548160405180602001604052806000815250600061252e565b50565b610100546001600160a01b0316631f5bdf5d610b71612491565b6040516001600160e01b031960e084901b1681526001600160a01b039091166004820152602401602060405180830381600087803b158015610bb257600080fd5b505af1158015610bc6573d6000803e3d6000fd5b505050506040513d601f19601f82011682018060405250810190610bea919061319a565b610c365760405162461bcd60e51b815260206004820152601f60248201527f55736572206e6f74207265676973746572656420666f7220746865206170700060448201526064016105c8565b8251845114610cad5760405162461bcd60e51b815260206004820152603a60248201527f55736572206172726179206c656e67746820646f6573206e6f74206d6174636860448201527f65732077697468206163636573732074797065206c656e67746800000000000060648201526084016105c8565b8051845114610d245760405162461bcd60e51b815260206004820152603760248201527f55736572206172726179206c656e67746820646f6573206e6f74206d6174636860448201527f657320776974682076616c6964697479206c656e67746800000000000000000060648201526084016105c8565b60005b8551811015610b285760005b855181101561117a5760ff6000888381518110610d6057634e487b7160e01b600052603260045260246000fd5b6020908102919091018101518252810191909152604001600020546001600160a01b0316610d8c612491565b6001600160a01b031614610dd35760405162461bcd60e51b815260206004820152600e60248201526d2737ba103334b6329037bbb732b960911b60448201526064016105c8565b828181518110610df357634e487b7160e01b600052603260045260246000fd5b602002602001015160001415610e4b5760405162461bcd60e51b815260206004820152601960248201527f56616c6964697479206d757374206265206e6f6e207a65726f0000000000000060448201526064016105c8565b6040518060400160405280858381518110610e7657634e487b7160e01b600052603260045260246000fd5b60200260200101518152602001848381518110610ea357634e487b7160e01b600052603260045260246000fd5b602002602001015142610eb69190613539565b81525060fd6000898581518110610edd57634e487b7160e01b600052603260045260246000fd5b602002602001015181526020019081526020016000206000878481518110610f1557634e487b7160e01b600052603260045260246000fd5b602002602001015181526020019081526020016000206000888481518110610f4d57634e487b7160e01b600052603260045260246000fd5b60200260200101516001600160a01b03166001600160a01b031681526020019081526020016000206000820151816000019080519060200190610f91929190612db5565b506020820151816001015590505060fe6000888481518110610fc357634e487b7160e01b600052603260045260246000fd5b602002602001015181526020019081526020016000206000868381518110610ffb57634e487b7160e01b600052603260045260246000fd5b6020026020010151815260200190815260200160002086828151811061103157634e487b7160e01b600052603260045260246000fd5b60209081029190910181015182546001810184556000938452919092200180546001600160a01b0319166001600160a01b03909216919091179055855186908290811061108e57634e487b7160e01b600052603260045260246000fd5b60200260200101516001600160a01b03168783815181106110bf57634e487b7160e01b600052603260045260246000fd5b60200260200101516110cf612491565b6001600160a01b03167f1ebaec2e787dc387c941232bf165b988dd5c126cd5f60b7215b6ece61bfbc87988858151811061111957634e487b7160e01b600052603260045260246000fd5b602002602001015187868151811061114157634e487b7160e01b600052603260045260246000fd5b6020026020010151604051611160929190918252602082015260400190565b60405180910390a480611172816135b8565b915050610d33565b5080611185816135b8565b915050610d27565b600054610100900460ff16806111a6575060005460ff16155b6112095760405162461bcd60e51b815260206004820152602e60248201527f496e697469616c697a61626c653a20636f6e747261637420697320616c72656160448201526d191e481a5b9a5d1a585b1a5e995960921b60648201526084016105c8565b600054610100900460ff16158015611234576000805460ff1961ff0019909116610100171660011790555b61123c61270e565b835161124f9060fc906020870190612db5565b5061010080546001600160a01b0319166001600160a01b038516179055611275826127d9565b8015611287576000805461ff00191690555b50505050565b611296826124bf565b6112a28282600161252e565b5050565b60c9546001600160a01b038281169116145b919050565b60fd6020908152600093845260408085208252928452828420905282529020805481906112e99061357d565b80601f01602080910402602001604051908101604052809291908181526020018280546113159061357d565b80156113625780601f1061133757610100808354040283529160200191611362565b820191906000526020600020905b81548152906001019060200180831161134557829003601f168201915b5050505050908060010154905082565b600082815260fe6020908152604080832084845282528083208054825181850281018501909352808352606094938301828280156113d957602002820191906000526020600020905b81546001600160a01b031681526001909101906020018083116113bb575b50505050509050600080600090505b82518110156114b557600086815260fe60209081526040808320888452909152902080548290811061142a57634e487b7160e01b600052603260045260246000fd5b600091825260208083209091015488835260fd8252604080842089855283528084206001600160a01b039092168085529190925291206001015490925042106114a35782818151811061148d57634e487b7160e01b600052603260045260246000fd5b6020026020010160006001600160a01b03168152505b806114ad816135b8565b9150506113e8565b5090949350505050565b600082815260fd6020908152604080832084845282528083206001600160a01b038088168086529184528285206001015487865260ff9094529184205490911614156115195761151242620f4240613539565b9050611566565b806115665760405162461bcd60e51b815260206004820152600d60248201527f56616c696469747920697320300000000000000000000000000000000000000060448201526064016105c8565b83856001600160a01b03167f70de9db8c5fdf7217671fc4cc6008e066f9418ac0527a3422461e6ff4a3d8a4e838661159c612491565b6040805193845260208401929092526001600160a01b03169082015260600160405180910390a390505b9392505050565b600081815260ff60205260409020600701546001600160a01b03166115f0612491565b6001600160a01b03161461166c5760405162461bcd60e51b815260206004820152603860248201527f46756e6374696f6e2063616e206f6e6c792062652063616c6c6564206279207460448201527f68652061737369676e65642073746f72616765206e6f6465000000000000000060648201526084016105c8565b600081815260ff602081905260409091206004015416156116cf5760405162461bcd60e51b815260206004820152601560248201527f46696c6520616c72656164792075706c6f61646564000000000000000000000060448201526064016105c8565b600090815260ff60205260409020600401805460ff19166001179055565b600081815260ff602052604090205481906001600160a01b031661170f612491565b6001600160a01b03161461177c5760405162461bcd60e51b815260206004820152602e60248201527f546869732066756e6374696f6e2063616e206f6e6c792062652063616c6c656460448201526d10313c903334b6329037bbb732b960911b60648201526084016105c8565b610100546001600160a01b0316631f5bdf5d611796612491565b6040516001600160e01b031960e084901b1681526001600160a01b039091166004820152602401602060405180830381600087803b1580156117d757600080fd5b505af11580156117eb573d6000803e3d6000fd5b505050506040513d601f19601f8201168201806040525081019061180f919061319a565b61185b5760405162461bcd60e51b815260206004820152601f60248201527f55736572206e6f74207265676973746572656420666f7220746865206170700060448201526064016105c8565b600082815260ff6020526040812080546001600160a01b031916815560018101829055600281018290556003810182905560048101805460ff19169055906118a66005830182612e39565b6118b4600683016000612e39565b5060070180546001600160a01b0319169055816118cf612491565b6001600160a01b03167fa2acc0b1cda8647780f0900a02e0ba141277133ea27552fa350439c0b6684d2160405160405180910390a35050565b610100546001600160a01b0316631f5bdf5d611922612491565b6040516001600160e01b031960e084901b1681526001600160a01b039091166004820152602401602060405180830381600087803b15801561196357600080fd5b505af1158015611977573d6000803e3d6000fd5b505050506040513d601f19601f8201168201806040525081019061199b919061319a565b6119e75760405162461bcd60e51b815260206004820152601f60248201527f55736572206e6f74207265676973746572656420666f7220746865206170700060448201526064016105c8565b600083815260fd6020908152604080832084845282528083206001600160a01b0386168452909152812090611a1c8282612e39565b50600060019190910181905583815260fe6020908152604080832084845282528083208054825181850281018501909352808352611a9893830182828015611a8d57602002820191906000526020600020905b81546001600160a01b03168152600190910190602001808311611a6f575b5050505050846128a6565b600085815260fe60209081526040808320868452909152902080549192509082908110611ad557634e487b7160e01b600052603260045260246000fd5b600091825260209091200180546001600160a01b03191690556001600160a01b03831684611b01612491565b6001600160a01b03167f60cb99feacb32252ac712ece398c95440ae888fd3a720ce9f1b32077771612eb85604051611b3b91815260200190565b60405180910390a450505050565b611b51612491565b6001600160a01b0316611b62611c02565b6001600160a01b031614611bb85760405162461bcd60e51b815260206004820181905260248201527f4f776e61626c653a2063616c6c6572206973206e6f7420746865206f776e657260448201526064016105c8565b6097546040516000916001600160a01b0316907f8be0079c531659141344cd1fd0a4f28419497f9722a3daafe3b4186f6b6457e0908390a3609780546001600160a01b0319169055565b6097546001600160a01b03165b90565b60ff602081905260009182526040909120805460018201546002830154600384015460048501546005860180546001600160a01b0390961697949693959294919091169291611c609061357d565b80601f0160208091040260200160405190810160405280929190818152602001828054611c8c9061357d565b8015611cd95780601f10611cae57610100808354040283529160200191611cd9565b820191906000526020600020905b815481529060010190602001808311611cbc57829003601f168201915b505050505090806006018054611cee9061357d565b80601f0160208091040260200160405190810160405280929190818152602001828054611d1a9061357d565b8015611d675780601f10611d3c57610100808354040283529160200191611d67565b820191906000526020600020905b815481529060010190602001808311611d4a57829003601f168201915b505050600790930154919250506001600160a01b031688565b610100546001600160a01b0316631f5bdf5d611d9a612491565b6040516001600160e01b031960e084901b1681526001600160a01b039091166004820152602401602060405180830381600087803b158015611ddb57600080fd5b505af1158015611def573d6000803e3d6000fd5b505050506040513d601f19601f82011682018060405250810190611e13919061319a565b611e5f5760405162461bcd60e51b815260206004820152601f60248201527f55736572206e6f74207265676973746572656420666f7220746865206170700060448201526064016105c8565b600087815260ff60205260409020546001600160a01b031615611ece5760405162461bcd60e51b815260206004820152602160248201527f4f776e657220616c726561647920657869737420666f7220746869732066696c6044820152606560f81b60648201526084016105c8565b848611611f035760405162461bcd60e51b81526020600482015260036024820152626e3e6b60e81b60448201526064016105c8565b60018511611f535760405162461bcd60e51b815260206004820152601160248201527f6b2073686f756c64206e6f74206265203000000000000000000000000000000060448201526064016105c8565b83611fa05760405162461bcd60e51b815260206004820152600f60248201527f53686f756c64206e6f742062652030000000000000000000000000000000000060448201526064016105c8565b604051806101000160405280611fb4612491565b6001600160a01b03908116825260208083018a905260408084018a905260608085018a90526000608080870182905260a08088018c905260c088018b905289871660e0909801979097528e825260ff855290839020875181546001600160a01b0319169616959095178555868401516001860155918601516002850155850151600384015584015160048301805460ff1916911515919091179055918301518051919261206992600585019290910190612db5565b5060c08201518051612085916006840191602090910190612db5565b5060e09190910151600790910180546001600160a01b0319166001600160a01b03928316179055600088815260ff60209081526040918290205482518a8152918201899052918101879052899291909116907fb927e45e3d8ce5bbdb784af6c44bcd63515f70a54ba86e21a3af868740a6a8659060600160405180910390a350505050505050565b60fe602052826000526040600020602052816000526040600020818154811061213557600080fd5b6000918252602090912001546001600160a01b0316925083915050565b600082815260ff602052604081205483906001600160a01b0316612174612491565b6001600160a01b0316146121e15760405162461bcd60e51b815260206004820152602e60248201527f546869732066756e6374696f6e2063616e206f6e6c792062652063616c6c656460448201526d10313c903334b6329037bbb732b960911b60648201526084016105c8565b610100546001600160a01b0316631f5bdf5d6121fb612491565b6040516001600160e01b031960e084901b1681526001600160a01b039091166004820152602401602060405180830381600087803b15801561223c57600080fd5b505af1158015612250573d6000803e3d6000fd5b505050506040513d601f19601f82011682018060405250810190612274919061319a565b6122c05760405162461bcd60e51b815260206004820152601f60248201527f55736572206e6f74207265676973746572656420666f7220746865206170700060448201526064016105c8565b6001600160a01b0383166123165760405162461bcd60e51b815260206004820152600f60248201527f496e76616c69642061646472657373000000000000000000000000000000000060448201526064016105c8565b600084815260ff6020526040902080546001600160a01b0385166001600160a01b0319909116179055600191505092915050565b612352612491565b6001600160a01b0316612363611c02565b6001600160a01b0316146123b95760405162461bcd60e51b815260206004820181905260248201527f4f776e61626c653a2063616c6c6572206973206e6f7420746865206f776e657260448201526064016105c8565b6001600160a01b0381166124355760405162461bcd60e51b815260206004820152602660248201527f4f776e61626c653a206e6577206f776e657220697320746865207a65726f206160448201527f646472657373000000000000000000000000000000000000000000000000000060648201526084016105c8565b6097546040516001600160a01b038084169216907f8be0079c531659141344cd1fd0a4f28419497f9722a3daafe3b4186f6b6457e090600090a3609780546001600160a01b0319166001600160a01b0392909216919091179055565b600061249c336112a6565b156124b0575060131936013560601c611c0f565b6124b86128fc565b9050611c0f565b6124c7612491565b6001600160a01b03166124d8611c02565b6001600160a01b031614610b545760405162461bcd60e51b815260206004820181905260248201527f4f776e61626c653a2063616c6c6572206973206e6f7420746865206f776e657260448201526064016105c8565b60006125617f360894a13ba1a3210667c828492db98dca3e2076cc3735a920a3ca505d382bbc546001600160a01b031690565b905061256c84612921565b6000835111806125795750815b1561258a5761258884846129d6565b505b7f4910fdfa16fed3260ed0e7147f7cc6da11a60208b5b9406d12a635614ffd9143805460ff1661270757805460ff191660011781556040516001600160a01b038316602482015261261e90869060440160408051601f198184030181529190526020810180517bffffffffffffffffffffffffffffffffffffffffffffffffffffffff16631b2ce7f360e11b1790526129d6565b50805460ff191681557f360894a13ba1a3210667c828492db98dca3e2076cc3735a920a3ca505d382bbc546001600160a01b038381169116146126c95760405162461bcd60e51b815260206004820152602f60248201527f45524331393637557067726164653a207570677261646520627265616b73206660448201527f757274686572207570677261646573000000000000000000000000000000000060648201526084016105c8565b6126d285612921565b6040516001600160a01b038616907fbc7cd75a20ee27fd9adebab32041f755214dbc6bffa90cc0225b39da2e5c2d3b90600090a25b5050505050565b600054610100900460ff1680612727575060005460ff16155b61278a5760405162461bcd60e51b815260206004820152602e60248201527f496e697469616c697a61626c653a20636f6e747261637420697320616c72656160448201526d191e481a5b9a5d1a585b1a5e995960921b60648201526084016105c8565b600054610100900460ff161580156127b5576000805460ff1961ff0019909116610100171660011790555b6127bd612ad8565b6127c5612b92565b8015610b54576000805461ff001916905550565b600054610100900460ff16806127f2575060005460ff16155b6128555760405162461bcd60e51b815260206004820152602e60248201527f496e697469616c697a61626c653a20636f6e747261637420697320616c72656160448201526d191e481a5b9a5d1a585b1a5e995960921b60648201526084016105c8565b600054610100900460ff16158015612880576000805460ff1961ff0019909116610100171660011790555b612888612ad8565b61289182612ca5565b80156112a2576000805461ff00191690555050565b6000805b826001600160a01b03168482815181106128d457634e487b7160e01b600052603260045260246000fd5b60200260200101516001600160a01b0316146115c657806128f4816135b8565b9150506128aa565b6000612907336112a6565b1561291b575060131936013560601c611c0f565b336124b8565b803b6129955760405162461bcd60e51b815260206004820152602d60248201527f455243313936373a206e657720696d706c656d656e746174696f6e206973206e60448201527f6f74206120636f6e74726163740000000000000000000000000000000000000060648201526084016105c8565b7f360894a13ba1a3210667c828492db98dca3e2076cc3735a920a3ca505d382bbc80546001600160a01b0319166001600160a01b0392909216919091179055565b6060823b612a4c5760405162461bcd60e51b815260206004820152602660248201527f416464726573733a2064656c65676174652063616c6c20746f206e6f6e2d636f60448201527f6e7472616374000000000000000000000000000000000000000000000000000060648201526084016105c8565b600080846001600160a01b031684604051612a6791906133db565b600060405180830381855af49150503d8060008114612aa2576040519150601f19603f3d011682016040523d82523d6000602084013e612aa7565b606091505b5091509150612acf828260405180606001604052806027815260200161360060279139612d7c565b95945050505050565b600054610100900460ff1680612af1575060005460ff16155b612b545760405162461bcd60e51b815260206004820152602e60248201527f496e697469616c697a61626c653a20636f6e747261637420697320616c72656160448201526d191e481a5b9a5d1a585b1a5e995960921b60648201526084016105c8565b600054610100900460ff161580156127c5576000805460ff1961ff0019909116610100171660011790558015610b54576000805461ff001916905550565b600054610100900460ff1680612bab575060005460ff16155b612c0e5760405162461bcd60e51b815260206004820152602e60248201527f496e697469616c697a61626c653a20636f6e747261637420697320616c72656160448201526d191e481a5b9a5d1a585b1a5e995960921b60648201526084016105c8565b600054610100900460ff16158015612c39576000805460ff1961ff0019909116610100171660011790555b6000612c43612491565b609780546001600160a01b0319166001600160a01b038316908117909155604051919250906000907f8be0079c531659141344cd1fd0a4f28419497f9722a3daafe3b4186f6b6457e0908290a3508015610b54576000805461ff001916905550565b600054610100900460ff1680612cbe575060005460ff16155b612d215760405162461bcd60e51b815260206004820152602e60248201527f496e697469616c697a61626c653a20636f6e747261637420697320616c72656160448201526d191e481a5b9a5d1a585b1a5e995960921b60648201526084016105c8565b600054610100900460ff16158015612d4c576000805460ff1961ff0019909116610100171660011790555b60c980546001600160a01b0319166001600160a01b03841617905580156112a2576000805461ff00191690555050565b60608315612d8b5750816115c6565b825115612d9b5782518084602001fd5b8160405162461bcd60e51b81526004016105c891906134d1565b828054612dc19061357d565b90600052602060002090601f016020900481019282612de35760008555612e29565b82601f10612dfc57805160ff1916838001178555612e29565b82800160010185558215612e29579182015b82811115612e29578251825591602001919060010190612e0e565b50612e35929150612e71565b5090565b508054612e459061357d565b6000825580601f10612e575750610b54565b601f016020900490600052602060002090810190610b5491905b5b80821115612e355760008155600101612e72565b600067ffffffffffffffff831115612ea057612ea06135e9565b612eb3601f8401601f19166020016134e4565b9050828152838383011115612ec757600080fd5b828260208301376000602084830101529392505050565b80356001600160a01b03811681146112b857600080fd5b600082601f830112612f05578081fd5b81356020612f1a612f1583613515565b6134e4565b8281528181019085830183850287018401881015612f36578586fd5b855b85811015612f5b57612f4982612ede565b84529284019290840190600101612f38565b5090979650505050505050565b600082601f830112612f78578081fd5b81356020612f88612f1583613515565b8281528181019085830183850287018401881015612fa4578586fd5b855b85811015612f5b57813584529284019290840190600101612fa6565b600082601f830112612fd2578081fd5b81356020612fe2612f1583613515565b82815281810190858301855b85811015612f5b57613005898684358b0101613017565b84529284019290840190600101612fee565b600082601f830112613027578081fd5b6115c683833560208501612e86565b600060208284031215613047578081fd5b6115c682612ede565b600080600060608486031215613064578182fd5b61306d84612ede565b95602085013595506040909401359392505050565b60008060408385031215613094578182fd5b61309d83612ede565b9150602083013567ffffffffffffffff8111156130b8578182fd5b6130c485828601613017565b9150509250929050565b600080600080600060a086880312156130e5578081fd5b853567ffffffffffffffff808211156130fc578283fd5b61310889838a01612f68565b9650602088013591508082111561311d578283fd5b61312989838a01612ef5565b9550604088013591508082111561313e578283fd5b61314a89838a01612f68565b9450606088013591508082111561315f578283fd5b61316b89838a01612fc2565b93506080880135915080821115613180578283fd5b5061318d88828901612f68565b9150509295509295909350565b6000602082840312156131ab578081fd5b815180151581146115c6578182fd5b6000602082840312156131cb578081fd5b5035919050565b600080604083850312156131e4578182fd5b823591506131f460208401612ede565b90509250929050565b600080600060608486031215613211578081fd5b8335925061322160208501612ede565b9150604084013590509250925092565b60008060408385031215613243578182fd5b50508035926020909101359150565b600080600060608486031215613266578081fd5b833592506020840135915061327d60408501612ede565b90509250925092565b60008060006060848603121561329a578081fd5b505081359360208301359350604090920135919050565b600080600080600080600060e0888a0312156132cb578485fd5b87359650602088013595506040880135945060608801359350608088013567ffffffffffffffff808211156132fe578384fd5b61330a8b838c01613017565b945060a08a013591508082111561331f578384fd5b5061332c8a828b01613017565b92505061333b60c08901612ede565b905092959891949750929550565b60008060006060848603121561335d578081fd5b833567ffffffffffffffff811115613373578182fd5b8401601f81018613613383578182fd5b61339286823560208401612e86565b9350506133a160208501612ede565b915061327d60408501612ede565b600081518084526133c7816020860160208601613551565b601f01601f19169290920160200192915050565b600082516133ed818460208701613551565b9190910192915050565b60006101006001600160a01b03808c1684528a602085015289604085015288606085015287151560808501528160a0850152613435828501886133af565b915083820360c085015261344982876133af565b925080851660e085015250509998505050505050505050565b6020808252825182820181905260009190848201906040850190845b818110156134a35783516001600160a01b03168352928401929184019160010161347e565b50909695505050505050565b6000604082526134c260408301856133af565b90508260208301529392505050565b6000602082526115c660208301846133af565b604051601f8201601f1916810167ffffffffffffffff8111828210171561350d5761350d6135e9565b604052919050565b600067ffffffffffffffff82111561352f5761352f6135e9565b5060209081020190565b6000821982111561354c5761354c6135d3565b500190565b60005b8381101561356c578181015183820152602001613554565b838111156112875750506000910152565b60028104600182168061359157607f821691505b602082108114156135b257634e487b7160e01b600052602260045260246000fd5b50919050565b60006000198214156135cc576135cc6135d3565b5060010190565b634e487b7160e01b600052601160045260246000fd5b634e487b7160e01b600052604160045260246000fdfe416464726573733a206c6f772d6c6576656c2064656c65676174652063616c6c206661696c6564a164736f6c6343000802000a",
  "linkReferences": {},
  "deployedLinkReferences": {}
}