{
  "_format": "hh-sol-artifact-1",
  "contractName": "Arcana",
  "sourceName": "contracts/Arcana.sol",
  "abi": [
    {
      "anonymous": false,
      "inputs": [
        {
          "indexed": false,
          "internalType": "address",
          "name": "previousAdmin",
          "type": "address"
        },
        {
          "indexed": false,
          "internalType": "address",
          "name": "newAdmin",
          "type": "address"
        }
      ],
      "name": "AdminChanged",
      "type": "event"
    },
    {
      "anonymous": false,
      "inputs": [
        {
          "indexed": true,
          "internalType": "address",
          "name": "beacon",
          "type": "address"
        }
      ],
      "name": "BeaconUpgraded",
      "type": "event"
    },
    {
      "anonymous": false,
      "inputs": [
        {
          "indexed": true,
          "internalType": "address",
          "name": "identity",
          "type": "address"
        },
        {
          "indexed": true,
          "internalType": "bytes32",
          "name": "file",
          "type": "bytes32"
        }
      ],
      "name": "DeleteFileEvent",
      "type": "event"
    },
    {
      "anonymous": false,
      "inputs": [
        {
          "indexed": true,
          "internalType": "address",
          "name": "identity",
          "type": "address"
        },
        {
          "indexed": true,
          "internalType": "bytes32",
          "name": "file",
          "type": "bytes32"
        },
        {
          "indexed": false,
          "internalType": "uint256",
          "name": "n",
          "type": "uint256"
        },
        {
          "indexed": false,
          "internalType": "uint256",
          "name": "k",
          "type": "uint256"
        },
        {
          "indexed": false,
          "internalType": "uint256",
          "name": "fileSize",
          "type": "uint256"
        }
      ],
      "name": "NewFileUpdate",
      "type": "event"
    },
    {
      "anonymous": false,
      "inputs": [
        {
          "indexed": true,
          "internalType": "address",
          "name": "identity",
          "type": "address"
        },
        {
          "indexed": true,
          "internalType": "bytes32",
          "name": "file",
          "type": "bytes32"
        },
        {
          "indexed": false,
          "internalType": "uint256",
          "name": "validity",
          "type": "uint256"
        },
        {
          "indexed": false,
          "internalType": "bytes32",
          "name": "accessType",
          "type": "bytes32"
        }
      ],
      "name": "NewPermissionCheck",
      "type": "event"
    },
    {
      "anonymous": false,
      "inputs": [
        {
          "indexed": true,
          "internalType": "address",
          "name": "identity",
          "type": "address"
        },
        {
          "indexed": true,
          "internalType": "bytes32",
          "name": "file",
          "type": "bytes32"
        },
        {
          "indexed": true,
          "internalType": "address",
          "name": "user",
          "type": "address"
        },
        {
          "indexed": false,
          "internalType": "bytes32",
          "name": "accessType",
          "type": "bytes32"
        },
        {
          "indexed": false,
          "internalType": "uint256",
          "name": "validity",
          "type": "uint256"
        }
      ],
      "name": "NewShare",
      "type": "event"
    },
    {
      "anonymous": false,
      "inputs": [
        {
          "indexed": true,
          "internalType": "address",
          "name": "identity",
          "type": "address"
        },
        {
          "indexed": true,
          "internalType": "bytes32",
          "name": "file",
          "type": "bytes32"
        },
        {
          "indexed": true,
          "internalType": "address",
          "name": "user",
          "type": "address"
        },
        {
          "indexed": false,
          "internalType": "bytes32",
          "name": "accessType",
          "type": "bytes32"
        }
      ],
      "name": "NewUpdateACK",
      "type": "event"
    },
    {
      "anonymous": false,
      "inputs": [
        {
          "indexed": true,
          "internalType": "address",
          "name": "previousOwner",
          "type": "address"
        },
        {
          "indexed": true,
          "internalType": "address",
          "name": "newOwner",
          "type": "address"
        }
      ],
      "name": "OwnershipTransferred",
      "type": "event"
    },
    {
      "anonymous": false,
      "inputs": [
        {
          "indexed": true,
          "internalType": "address",
          "name": "implementation",
          "type": "address"
        }
      ],
      "name": "Upgraded",
      "type": "event"
    },
    {
      "inputs": [
        {
          "internalType": "bytes32",
          "name": "",
          "type": "bytes32"
        },
        {
          "internalType": "bytes32",
          "name": "",
          "type": "bytes32"
        },
        {
          "internalType": "address",
          "name": "",
          "type": "address"
        }
      ],
      "name": "accessSpecifier",
      "outputs": [
        {
          "internalType": "bytes",
          "name": "encryptedKey",
          "type": "bytes"
        },
        {
          "internalType": "uint256",
          "name": "validity",
          "type": "uint256"
        }
      ],
      "stateMutability": "view",
      "type": "function"
    },
    {
      "inputs": [],
      "name": "appName",
      "outputs": [
        {
          "internalType": "string",
          "name": "",
          "type": "string"
        }
      ],
      "stateMutability": "view",
      "type": "function"
    },
    {
      "inputs": [
        {
          "internalType": "bytes32",
          "name": "_file",
          "type": "bytes32"
        },
        {
          "internalType": "address",
          "name": "_newOwner",
          "type": "address"
        }
      ],
      "name": "changeFileOwner",
      "outputs": [
        {
          "internalType": "bool",
          "name": "",
          "type": "bool"
        }
      ],
      "stateMutability": "nonpayable",
      "type": "function"
    },
    {
      "inputs": [
        {
          "internalType": "bytes32",
          "name": "_file",
          "type": "bytes32"
        },
        {
          "internalType": "bytes32",
          "name": "_accessType",
          "type": "bytes32"
        }
      ],
      "name": "checkPermission",
      "outputs": [
        {
          "internalType": "uint256",
          "name": "",
          "type": "uint256"
        }
      ],
      "stateMutability": "nonpayable",
      "type": "function"
    },
    {
      "inputs": [
        {
          "internalType": "address",
          "name": "",
          "type": "address"
        }
      ],
      "name": "consumption",
      "outputs": [
        {
          "internalType": "uint256",
          "name": "store",
          "type": "uint256"
        },
        {
          "internalType": "uint256",
          "name": "bandwidth",
          "type": "uint256"
        }
      ],
      "stateMutability": "view",
      "type": "function"
    },
    {
      "inputs": [
        {
          "internalType": "address",
          "name": "",
          "type": "address"
        }
      ],
      "name": "convergence",
      "outputs": [
        {
          "internalType": "string",
          "name": "",
          "type": "string"
        }
      ],
      "stateMutability": "view",
      "type": "function"
    },
    {
      "inputs": [],
      "name": "defaultLimit",
      "outputs": [
        {
          "internalType": "uint256",
          "name": "store",
          "type": "uint256"
        },
        {
          "internalType": "uint256",
          "name": "bandwidth",
          "type": "uint256"
        }
      ],
      "stateMutability": "view",
      "type": "function"
    },
    {
      "inputs": [
        {
          "internalType": "bytes32",
          "name": "_file",
          "type": "bytes32"
        }
      ],
      "name": "deleteFile",
      "outputs": [],
      "stateMutability": "nonpayable",
      "type": "function"
    },
    {
      "inputs": [],
      "name": "factory",
      "outputs": [
        {
          "internalType": "contract FactoryInterface",
          "name": "",
          "type": "address"
        }
      ],
      "stateMutability": "view",
      "type": "function"
    },
    {
      "inputs": [
        {
          "internalType": "bytes32",
          "name": "",
          "type": "bytes32"
        }
      ],
      "name": "files",
      "outputs": [
        {
          "internalType": "address",
          "name": "owner",
          "type": "address"
        },
        {
          "internalType": "uint256",
          "name": "n",
          "type": "uint256"
        },
        {
          "internalType": "uint256",
          "name": "k",
          "type": "uint256"
        },
        {
          "internalType": "uint256",
          "name": "fileSize",
          "type": "uint256"
        },
        {
          "internalType": "bool",
          "name": "uploaded",
          "type": "bool"
        },
        {
          "internalType": "bytes",
          "name": "encryptedMetaData",
          "type": "bytes"
        },
        {
          "internalType": "bytes",
          "name": "encryptedKey",
          "type": "bytes"
        },
        {
          "internalType": "address",
          "name": "storageNode",
          "type": "address"
        }
      ],
      "stateMutability": "view",
      "type": "function"
    },
    {
      "inputs": [
        {
          "internalType": "bytes32",
          "name": "_file",
          "type": "bytes32"
        },
        {
          "internalType": "bytes32",
          "name": "_accessType",
          "type": "bytes32"
        }
      ],
      "name": "getAllUsers",
      "outputs": [
        {
          "internalType": "address[]",
          "name": "",
          "type": "address[]"
        }
      ],
      "stateMutability": "view",
      "type": "function"
    },
    {
      "inputs": [
        {
          "internalType": "bytes32",
          "name": "_file",
          "type": "bytes32"
        },
        {
          "internalType": "bytes32",
          "name": "_accessType",
          "type": "bytes32"
        }
      ],
      "name": "getFile",
      "outputs": [
        {
          "components": [
            {
              "internalType": "address",
              "name": "owner",
              "type": "address"
            },
            {
              "internalType": "uint256",
              "name": "n",
              "type": "uint256"
            },
            {
              "internalType": "uint256",
              "name": "k",
              "type": "uint256"
            },
            {
              "internalType": "uint256",
              "name": "fileSize",
              "type": "uint256"
            },
            {
              "internalType": "bool",
              "name": "uploaded",
              "type": "bool"
            },
            {
              "internalType": "bytes",
              "name": "encryptedMetaData",
              "type": "bytes"
            },
            {
              "internalType": "bytes",
              "name": "encryptedKey",
              "type": "bytes"
            },
            {
              "internalType": "address",
              "name": "storageNode",
              "type": "address"
            }
          ],
          "internalType": "struct Arcana.File",
          "name": "",
          "type": "tuple"
        }
      ],
      "stateMutability": "view",
      "type": "function"
    },
    {
      "inputs": [],
      "name": "googleClientId",
      "outputs": [
        {
          "internalType": "string",
          "name": "",
          "type": "string"
        }
      ],
      "stateMutability": "view",
      "type": "function"
    },
    {
      "inputs": [
        {
          "internalType": "string",
          "name": "_appName",
          "type": "string"
        },
        {
          "internalType": "address",
          "name": "_factory",
          "type": "address"
        },
        {
          "internalType": "address",
          "name": "_relayer",
          "type": "address"
        },
        {
          "internalType": "string",
          "name": "_googleClientId",
          "type": "string"
        }
      ],
      "name": "initialize",
      "outputs": [],
      "stateMutability": "nonpayable",
      "type": "function"
    },
    {
      "inputs": [
        {
          "internalType": "address",
          "name": "forwarder",
          "type": "address"
        }
      ],
      "name": "isTrustedForwarder",
      "outputs": [
        {
          "internalType": "bool",
          "name": "",
          "type": "bool"
        }
      ],
      "stateMutability": "view",
      "type": "function"
    },
    {
      "inputs": [
        {
          "internalType": "address",
          "name": "",
          "type": "address"
        }
      ],
      "name": "limit",
      "outputs": [
        {
          "internalType": "uint256",
          "name": "store",
          "type": "uint256"
        },
        {
          "internalType": "uint256",
          "name": "bandwidth",
          "type": "uint256"
        }
      ],
      "stateMutability": "view",
      "type": "function"
    },
    {
      "inputs": [],
      "name": "owner",
      "outputs": [
        {
          "internalType": "address",
          "name": "",
          "type": "address"
        }
      ],
      "stateMutability": "view",
      "type": "function"
    },
    {
      "inputs": [],
      "name": "renounceOwnership",
      "outputs": [],
      "stateMutability": "nonpayable",
      "type": "function"
    },
    {
      "inputs": [
        {
          "internalType": "bytes32",
          "name": "_file",
          "type": "bytes32"
        },
        {
          "internalType": "address",
          "name": "_user",
          "type": "address"
        },
        {
          "internalType": "bytes32",
          "name": "_accessType",
          "type": "bytes32"
        }
      ],
      "name": "revoke",
      "outputs": [],
      "stateMutability": "nonpayable",
      "type": "function"
    },
    {
      "inputs": [
        {
          "internalType": "uint256",
          "name": "store",
          "type": "uint256"
        },
        {
          "internalType": "uint256",
          "name": "bandwidth",
          "type": "uint256"
        }
      ],
      "name": "setAppLevelLimit",
      "outputs": [],
      "stateMutability": "nonpayable",
      "type": "function"
    },
    {
      "inputs": [
        {
          "internalType": "string",
          "name": "_convergence",
          "type": "string"
        }
      ],
      "name": "setConvergence",
      "outputs": [],
      "stateMutability": "nonpayable",
      "type": "function"
    },
    {
      "inputs": [
        {
          "internalType": "uint256",
          "name": "_store",
          "type": "uint256"
        },
        {
          "internalType": "uint256",
          "name": "_bandwidth",
          "type": "uint256"
        }
      ],
      "name": "setDefaultLimit",
      "outputs": [],
      "stateMutability": "nonpayable",
      "type": "function"
    },
    {
      "inputs": [
        {
          "internalType": "address",
          "name": "user",
          "type": "address"
        },
        {
          "internalType": "uint256",
          "name": "store",
          "type": "uint256"
        },
        {
          "internalType": "uint256",
          "name": "bandwidth",
          "type": "uint256"
        }
      ],
      "name": "setUserLevelLimit",
      "outputs": [],
      "stateMutability": "nonpayable",
      "type": "function"
    },
    {
      "inputs": [
        {
          "internalType": "bytes32[]",
          "name": "_files",
          "type": "bytes32[]"
        },
        {
          "internalType": "address[]",
          "name": "_user",
          "type": "address[]"
        },
        {
          "internalType": "bytes32[]",
          "name": "_accessType",
          "type": "bytes32[]"
        },
        {
          "internalType": "bytes[]",
          "name": "_encryptedKey",
          "type": "bytes[]"
        },
        {
          "internalType": "uint256[]",
          "name": "_validity",
          "type": "uint256[]"
        }
      ],
      "name": "share",
      "outputs": [],
      "stateMutability": "nonpayable",
      "type": "function"
    },
    {
      "inputs": [
        {
          "internalType": "bytes32[]",
          "name": "_files",
          "type": "bytes32[]"
        },
        {
          "internalType": "address[]",
          "name": "_user",
          "type": "address[]"
        },
        {
          "internalType": "bytes32[]",
          "name": "_accessType",
          "type": "bytes32[]"
        },
        {
          "internalType": "bytes[]",
          "name": "_encryptedKey",
          "type": "bytes[]"
        },
        {
          "internalType": "uint256[]",
          "name": "_validity",
          "type": "uint256[]"
        }
      ],
      "name": "shareUser",
      "outputs": [],
      "stateMutability": "nonpayable",
      "type": "function"
    },
    {
      "inputs": [
        {
          "internalType": "address",
          "name": "newOwner",
          "type": "address"
        }
      ],
      "name": "transferOwnership",
      "outputs": [],
      "stateMutability": "nonpayable",
      "type": "function"
    },
    {
      "inputs": [
        {
          "internalType": "address",
          "name": "newImplementation",
          "type": "address"
        }
      ],
      "name": "upgradeTo",
      "outputs": [],
      "stateMutability": "nonpayable",
      "type": "function"
    },
    {
      "inputs": [
        {
          "internalType": "address",
          "name": "newImplementation",
          "type": "address"
        },
        {
          "internalType": "bytes",
          "name": "data",
          "type": "bytes"
        }
      ],
      "name": "upgradeToAndCall",
      "outputs": [],
      "stateMutability": "payable",
      "type": "function"
    },
    {
      "inputs": [
        {
          "internalType": "bytes32",
          "name": "_file",
          "type": "bytes32"
        }
      ],
      "name": "uploadClose",
      "outputs": [],
      "stateMutability": "nonpayable",
      "type": "function"
    },
    {
      "inputs": [
        {
          "internalType": "bytes32",
          "name": "_file",
          "type": "bytes32"
        },
        {
          "internalType": "uint256",
          "name": "_n",
          "type": "uint256"
        },
        {
          "internalType": "uint256",
          "name": "_k",
          "type": "uint256"
        },
        {
          "internalType": "uint256",
          "name": "_fileSize",
          "type": "uint256"
        },
        {
          "internalType": "bytes",
          "name": "_encryptedMetaData",
          "type": "bytes"
        },
        {
          "internalType": "bytes",
          "name": "_encryptedKey",
          "type": "bytes"
        },
        {
          "internalType": "address",
          "name": "_storageNode",
          "type": "address"
        }
      ],
      "name": "uploadInit",
      "outputs": [],
      "stateMutability": "nonpayable",
      "type": "function"
    },
    {
      "inputs": [
        {
          "internalType": "bytes32",
          "name": "",
          "type": "bytes32"
        },
        {
          "internalType": "bytes32",
          "name": "",
          "type": "bytes32"
        },
        {
          "internalType": "uint256",
          "name": "",
          "type": "uint256"
        }
      ],
      "name": "userAccess",
      "outputs": [
        {
          "internalType": "address",
          "name": "",
          "type": "address"
        }
      ],
      "stateMutability": "view",
      "type": "function"
    }
  ],
  "bytecode": "0x608060405234801561001057600080fd5b50614683806100206000396000f3fe6080604052600436106101d85760003560e01c8063715018a611610102578063c45a015511610095578063dde8d0d911610064578063dde8d0d9146105c1578063e26b013b146105ee578063e979a2ce1461060b578063f2fde38b1461062b576101d8565b8063c45a01551461052b578063c5b264471461054c578063d6e7045d1461056c578063d87972621461058c576101d8565b806399dc8378116100d157806399dc8378146104b6578063a056e1fd146104cb578063a10fc672146104eb578063c12ed14f1461050b576101d8565b8063715018a6146104205780638a8b0933146104355780638da5cb5b1461045557806398c9adff14610482576101d8565b8063572b6c051161017a57806363a152021161014957806363a15202146103a05780636a29afdc146103c05780636ab799f1146103e05780636b2877d414610400576101d8565b8063572b6c05146102cb5780635f784b8a146102fb5780636184533f14610329578063633f715514610356576101d8565b8063377dd46e116101b6578063377dd46e1461024a5780633a8be7f51461026a5780634f1ef2861461028a5780634fb95bc61461029d576101d8565b80630c97282c146101dd5780630d3fbd05146102085780633659cfe61461022a575b600080fd5b3480156101e957600080fd5b506101f261064b565b6040516101ff9190614480565b60405180910390f35b34801561021457600080fd5b5061022861022336600461402e565b6106d9565b005b34801561023657600080fd5b50610228610245366004613f96565b610d25565b34801561025657600080fd5b50610228610265366004614191565b610d4c565b34801561027657600080fd5b5061022861028536600461402e565b610ddb565b610228610298366004613fb0565b61141a565b3480156102a957600080fd5b506102bd6102b8366004614191565b611433565b6040519081526020016101ff565b3480156102d757600080fd5b506102eb6102e6366004613f96565b611a94565b60405190151581526020016101ff565b34801561030757600080fd5b5061031b6103163660046141b2565b611aab565b6040516101ff92919061445e565b34801561033557600080fd5b50610349610344366004614191565b611b60565b6040516101ff9190614411565b34801561036257600080fd5b5061038b610371366004613f96565b610104602052600090815260409020805460019091015482565b604080519283526020830191909152016101ff565b3480156103ac57600080fd5b506102286103bb36600461411a565b611cad565b3480156103cc57600080fd5b506102286103db366004613ffc565b611dcf565b3480156103ec57600080fd5b506102286103fb36600461411a565b611e79565b34801561040c57600080fd5b5061022861041b36600461415d565b61209e565b34801561042c57600080fd5b506102286122e7565b34801561044157600080fd5b50610228610450366004614191565b6123a0565b34801561046157600080fd5b5061046a612498565b6040516001600160a01b0390911681526020016101ff565b34801561048e57600080fd5b506104a261049d36600461411a565b6124a8565b6040516101ff9897969594939291906143a6565b3480156104c257600080fd5b506101f2612615565b3480156104d757600080fd5b506102286104e6366004614211565b612622565b3480156104f757600080fd5b506101f2610506366004613f96565b612ba7565b34801561051757600080fd5b5061046a6105263660046141e6565b612bc1565b34801561053757600080fd5b506101015461046a906001600160a01b031681565b34801561055857600080fd5b506102eb610567366004614132565b612c06565b34801561057857600080fd5b506102286105873660046142dc565b612e08565b34801561059857600080fd5b5061038b6105a7366004613f96565b610103602052600090815260409020805460019091015482565b3480156105cd57600080fd5b506105e16105dc366004614191565b612f1d565b6040516101ff9190614493565b3480156105fa57600080fd5b50610105546101065461038b919082565b34801561061757600080fd5b506102286106263660046142a9565b61326f565b34801561063757600080fd5b50610228610646366004613f96565b6132b0565b60fc8054610658906145cd565b80601f0160208091040260200160405190810160405280929190818152602001828054610684906145cd565b80156106d15780601f106106a6576101008083540402835291602001916106d1565b820191906000526020600020905b8154815290600101906020018083116106b457829003601f168201915b505050505081565b610101546001600160a01b031663c7e1562c306106f46133f7565b6040516001600160e01b031960e085901b1681526001600160a01b03928316600482015291166024820152604401602060405180830381600087803b15801561073c57600080fd5b505af1158015610750573d6000803e3d6000fd5b505050506040513d601f19601f8201168201806040525081019061077491906140fa565b6107c55760405162461bcd60e51b815260206004820152601f60248201527f55736572206e6f74207265676973746572656420666f7220746865206170700060448201526064015b60405180910390fd5b825184511461083c5760405162461bcd60e51b815260206004820152603a60248201527f55736572206172726179206c656e67746820646f6573206e6f74206d6174636860448201527f65732077697468206163636573732074797065206c656e67746800000000000060648201526084016107bc565b80518451146108b35760405162461bcd60e51b815260206004820152603760248201527f55736572206172726179206c656e67746820646f6573206e6f74206d6174636860448201527f657320776974682076616c6964697479206c656e67746800000000000000000060648201526084016107bc565b60005b8551811015610d1d5760005b8551811015610d0a5761010060008883815181106108f057634e487b7160e01b600052603260045260246000fd5b6020908102919091018101518252810191909152604001600020546001600160a01b031661091c6133f7565b6001600160a01b0316146109635760405162461bcd60e51b815260206004820152600e60248201526d2737ba103334b6329037bbb732b960911b60448201526064016107bc565b82828151811061098357634e487b7160e01b600052603260045260246000fd5b6020026020010151600014156109db5760405162461bcd60e51b815260206004820152601960248201527f56616c6964697479206d757374206265206e6f6e207a65726f0000000000000060448201526064016107bc565b6040518060400160405280858481518110610a0657634e487b7160e01b600052603260045260246000fd5b60200260200101518152602001848481518110610a3357634e487b7160e01b600052603260045260246000fd5b602002602001015142610a469190614585565b81525060fe6000898581518110610a6d57634e487b7160e01b600052603260045260246000fd5b602002602001015181526020019081526020016000206000878581518110610aa557634e487b7160e01b600052603260045260246000fd5b602002602001015181526020019081526020016000206000888481518110610add57634e487b7160e01b600052603260045260246000fd5b60200260200101516001600160a01b03166001600160a01b031681526020019081526020016000206000820151816000019080519060200190610b21929190613d21565b506020820151816001015590505060ff6000888481518110610b5357634e487b7160e01b600052603260045260246000fd5b602002602001015181526020019081526020016000206000868481518110610b8b57634e487b7160e01b600052603260045260246000fd5b60200260200101518152602001908152602001600020868281518110610bc157634e487b7160e01b600052603260045260246000fd5b60209081029190910181015182546001810184556000938452919092200180546001600160a01b0319166001600160a01b039092169190911790558551869082908110610c1e57634e487b7160e01b600052603260045260246000fd5b60200260200101516001600160a01b0316878381518110610c4f57634e487b7160e01b600052603260045260246000fd5b6020026020010151610c5f6133f7565b6001600160a01b03167f1ebaec2e787dc387c941232bf165b988dd5c126cd5f60b7215b6ece61bfbc879888581518110610ca957634e487b7160e01b600052603260045260246000fd5b6020026020010151878681518110610cd157634e487b7160e01b600052603260045260246000fd5b6020026020010151604051610cf0929190918252602082015260400190565b60405180910390a480610d0281614608565b9150506108c2565b5080610d1581614608565b9150506108b6565b505050505050565b610d2e81613425565b610d4981604051806020016040528060008152506000613494565b50565b610d546133f7565b6001600160a01b0316610d65612498565b6001600160a01b031614610dbb5760405162461bcd60e51b815260206004820181905260248201527f4f776e61626c653a2063616c6c6572206973206e6f7420746865206f776e657260448201526064016107bc565b604080518082019091528281526020018190526101059190915561010655565b610101546001600160a01b031663c7e1562c30610df66133f7565b6040516001600160e01b031960e085901b1681526001600160a01b03928316600482015291166024820152604401602060405180830381600087803b158015610e3e57600080fd5b505af1158015610e52573d6000803e3d6000fd5b505050506040513d601f19601f82011682018060405250810190610e7691906140fa565b610ec25760405162461bcd60e51b815260206004820152601f60248201527f55736572206e6f74207265676973746572656420666f7220746865206170700060448201526064016107bc565b8251845114610f395760405162461bcd60e51b815260206004820152603a60248201527f55736572206172726179206c656e67746820646f6573206e6f74206d6174636860448201527f65732077697468206163636573732074797065206c656e67746800000000000060648201526084016107bc565b8051845114610fb05760405162461bcd60e51b815260206004820152603760248201527f55736572206172726179206c656e67746820646f6573206e6f74206d6174636860448201527f657320776974682076616c6964697479206c656e67746800000000000000000060648201526084016107bc565b60005b8551811015610d1d5760005b8551811015611407576101006000888381518110610fed57634e487b7160e01b600052603260045260246000fd5b6020908102919091018101518252810191909152604001600020546001600160a01b03166110196133f7565b6001600160a01b0316146110605760405162461bcd60e51b815260206004820152600e60248201526d2737ba103334b6329037bbb732b960911b60448201526064016107bc565b82818151811061108057634e487b7160e01b600052603260045260246000fd5b6020026020010151600014156110d85760405162461bcd60e51b815260206004820152601960248201527f56616c6964697479206d757374206265206e6f6e207a65726f0000000000000060448201526064016107bc565b604051806040016040528085838151811061110357634e487b7160e01b600052603260045260246000fd5b6020026020010151815260200184838151811061113057634e487b7160e01b600052603260045260246000fd5b6020026020010151426111439190614585565b81525060fe600089858151811061116a57634e487b7160e01b600052603260045260246000fd5b6020026020010151815260200190815260200160002060008784815181106111a257634e487b7160e01b600052603260045260246000fd5b6020026020010151815260200190815260200160002060008884815181106111da57634e487b7160e01b600052603260045260246000fd5b60200260200101516001600160a01b03166001600160a01b03168152602001908152602001600020600082015181600001908051906020019061121e929190613d21565b506020820151816001015590505060ff600088848151811061125057634e487b7160e01b600052603260045260246000fd5b60200260200101518152602001908152602001600020600086838151811061128857634e487b7160e01b600052603260045260246000fd5b602002602001015181526020019081526020016000208682815181106112be57634e487b7160e01b600052603260045260246000fd5b60209081029190910181015182546001810184556000938452919092200180546001600160a01b0319166001600160a01b03909216919091179055855186908290811061131b57634e487b7160e01b600052603260045260246000fd5b60200260200101516001600160a01b031687838151811061134c57634e487b7160e01b600052603260045260246000fd5b602002602001015161135c6133f7565b6001600160a01b03167f1ebaec2e787dc387c941232bf165b988dd5c126cd5f60b7215b6ece61bfbc8798885815181106113a657634e487b7160e01b600052603260045260246000fd5b60200260200101518786815181106113ce57634e487b7160e01b600052603260045260246000fd5b60200260200101516040516113ed929190918252602082015260400190565b60405180910390a4806113ff81614608565b915050610fbf565b508061141281614608565b915050610fb3565b61142382613425565b61142f82826001613494565b5050565b6000828152610100602081815260408084208151938401825280546001600160a01b0316845260018101549284019290925260028201549083015260038101546060830152600481015460ff1615156080830152600581018054869385939092909160a0840191906114a4906145cd565b80601f01602080910402602001604051908101604052809291908181526020018280546114d0906145cd565b801561151d5780601f106114f25761010080835404028352916020019161151d565b820191906000526020600020905b81548152906001019060200180831161150057829003601f168201915b50505050508152602001600682018054611536906145cd565b80601f0160208091040260200160405190810160405280929190818152602001828054611562906145cd565b80156115af5780601f10611584576101008083540402835291602001916115af565b820191906000526020600020905b81548152906001019060200180831161159257829003601f168201915b5050509183525050600791909101546001600160a01b03166020909101526101065490915061010360006115e16133f7565b6001600160a01b03166001600160a01b031681526020019081526020016000206001015461160f9190614585565b816060015161010460006116216133f7565b6001600160a01b03166001600160a01b031681526020019081526020016000206001015461164f9190614585565b111561169d5760405162461bcd60e51b815260206004820152601660248201527f4e6f207370616365206c65667420666f7220757365720000000000000000000060448201526064016107bc565b6000805261010360209081527ff167d7e9ac6011f0b837eaede5176b30419264c8a43ec5db1d59bf93c98c1f805460608301516101049092527f0c81ce4857d5b94b8c75139d9e9e2911ece8cd067eddba6000e40a08e09d564454909161170391614585565b11156117515760405162461bcd60e51b815260206004820152601560248201527f4e6f207370616365206c65667420666f7220617070000000000000000000000060448201526064016107bc565b600085815260fe602090815260408083208784529091528120816117736133f7565b6001600160a01b03908116825260208083019390935260409182016000908120600101548a82526101009094529190912054919250166117b16133f7565b6001600160a01b031614156117d4576117cd42620f4240614585565b9050611811565b806118115760405162461bcd60e51b815260206004820152600d60248201526c056616c6964697479206973203609c1b60448201526064016107bc565b8561181a6133f7565b6001600160a01b03167f70ca3209a41d34881db20cfa1e87e607cdc9bd70969efd77c71d730c778a1e39838860405161185d929190918252602082015260400190565b60405180910390a36000868152610100602081815260408084208151938401825280546001600160a01b0316845260018101549284019290925260028201549083015260038101546060830152600481015460ff161515608083015260058101805460a0840191906118ce906145cd565b80601f01602080910402602001604051908101604052809291908181526020018280546118fa906145cd565b80156119475780601f1061191c57610100808354040283529160200191611947565b820191906000526020600020905b81548152906001019060200180831161192a57829003601f168201915b50505050508152602001600682018054611960906145cd565b80601f016020809104026020016040519081016040528092919081815260200182805461198c906145cd565b80156119d95780601f106119ae576101008083540402835291602001916119d9565b820191906000526020600020905b8154815290600101906020018083116119bc57829003601f168201915b5050509183525050600791909101546001600160a01b031660209091015260608101519091506101046000611a0c6133f7565b6001600160a01b03166001600160a01b031681526020019081526020016000206001016000828254611a3e9190614585565b9091555050606081015160008080526101046020527f0c81ce4857d5b94b8c75139d9e9e2911ece8cd067eddba6000e40a08e09d56448054909190611a84908490614585565b9091555091979650505050505050565b60c9546001600160a01b038281169116145b919050565b60fe602090815260009384526040808520825292845282842090528252902080548190611ad7906145cd565b80601f0160208091040260200160405190810160405280929190818152602001828054611b03906145cd565b8015611b505780601f10611b2557610100808354040283529160200191611b50565b820191906000526020600020905b815481529060010190602001808311611b3357829003601f168201915b5050505050908060010154905082565b600082815260ff602090815260408083208484528252808320805482518185028101850190935280835260609493830182828015611bc757602002820191906000526020600020905b81546001600160a01b03168152600190910190602001808311611ba9575b50505050509050600080600090505b8251811015611ca357600086815260ff602090815260408083208884529091529020805482908110611c1857634e487b7160e01b600052603260045260246000fd5b600091825260208083209091015488835260fe8252604080842089855283528084206001600160a01b03909216808552919092529120600101549092504210611c9157828181518110611c7b57634e487b7160e01b600052603260045260246000fd5b6020026020010160006001600160a01b03168152505b80611c9b81614608565b915050611bd6565b5090949350505050565b600081815261010060205260409020600701546001600160a01b0316611cd16133f7565b6001600160a01b031614611d4d5760405162461bcd60e51b815260206004820152603860248201527f46756e6374696f6e2063616e206f6e6c792062652063616c6c6564206279207460448201527f68652061737369676e65642073746f72616765206e6f6465000000000000000060648201526084016107bc565b6000818152610100602052604090206004015460ff1615611db05760405162461bcd60e51b815260206004820152601560248201527f46696c6520616c72656164792075706c6f61646564000000000000000000000060448201526064016107bc565b600090815261010060205260409020600401805460ff19166001179055565b611dd76133f7565b6001600160a01b0316611de8612498565b6001600160a01b031614611e3e5760405162461bcd60e51b815260206004820181905260248201527f4f776e61626c653a2063616c6c6572206973206e6f7420746865206f776e657260448201526064016107bc565b60408051808201825292835260208084019283526001600160a01b039094166000908152610103909452909220905181559051600190910155565b6000818152610100602052604090205481906001600160a01b0316611e9c6133f7565b6001600160a01b031614611f095760405162461bcd60e51b815260206004820152602e60248201527f546869732066756e6374696f6e2063616e206f6e6c792062652063616c6c656460448201526d10313c903334b6329037bbb732b960911b60648201526084016107bc565b610101546001600160a01b031663c7e1562c30611f246133f7565b6040516001600160e01b031960e085901b1681526001600160a01b03928316600482015291166024820152604401602060405180830381600087803b158015611f6c57600080fd5b505af1158015611f80573d6000803e3d6000fd5b505050506040513d601f19601f82011682018060405250810190611fa491906140fa565b611ff05760405162461bcd60e51b815260206004820152601f60248201527f55736572206e6f74207265676973746572656420666f7220746865206170700060448201526064016107bc565b60008281526101006020526040812080546001600160a01b031916815560018101829055600281018290556003810182905560048101805460ff191690559061203c6005830182613da5565b61204a600683016000613da5565b5060070180546001600160a01b0319169055816120656133f7565b6001600160a01b03167fa2acc0b1cda8647780f0900a02e0ba141277133ea27552fa350439c0b6684d2160405160405180910390a35050565b610101546001600160a01b031663c7e1562c306120b96133f7565b6040516001600160e01b031960e085901b1681526001600160a01b03928316600482015291166024820152604401602060405180830381600087803b15801561210157600080fd5b505af1158015612115573d6000803e3d6000fd5b505050506040513d601f19601f8201168201806040525081019061213991906140fa565b6121855760405162461bcd60e51b815260206004820152601f60248201527f55736572206e6f74207265676973746572656420666f7220746865206170700060448201526064016107bc565b600083815260fe6020908152604080832084845282528083206001600160a01b03861684529091528120906121ba8282613da5565b50600060019190910181905583815260ff60209081526040808320848452825280832080548251818502810185019093528083526122369383018282801561222b57602002820191906000526020600020905b81546001600160a01b0316815260019091019060200180831161220d575b505050505084613673565b600085815260ff6020908152604080832086845290915290208054919250908290811061227357634e487b7160e01b600052603260045260246000fd5b600091825260209091200180546001600160a01b03191690556001600160a01b0383168461229f6133f7565b6001600160a01b03167f60cb99feacb32252ac712ece398c95440ae888fd3a720ce9f1b32077771612eb856040516122d991815260200190565b60405180910390a450505050565b6122ef6133f7565b6001600160a01b0316612300612498565b6001600160a01b0316146123565760405162461bcd60e51b815260206004820181905260248201527f4f776e61626c653a2063616c6c6572206973206e6f7420746865206f776e657260448201526064016107bc565b6097546040516000916001600160a01b0316907f8be0079c531659141344cd1fd0a4f28419497f9722a3daafe3b4186f6b6457e0908390a3609780546001600160a01b0319169055565b610101546001600160a01b03166123b56133f7565b6001600160a01b0316146124315760405162461bcd60e51b815260206004820152602c60248201527f4f6e6c7920666163746f727920636f6e74726163742063616e2063616c6c207460448201527f6869732066756e6374696f6e000000000000000000000000000000000000000060648201526084016107bc565b60408051808201909152918252602080830191825260008052610103905290517ff167d7e9ac6011f0b837eaede5176b30419264c8a43ec5db1d59bf93c98c1f7f55517ff167d7e9ac6011f0b837eaede5176b30419264c8a43ec5db1d59bf93c98c1f8055565b6097546001600160a01b03165b90565b610100602052600090815260409020805460018201546002830154600384015460048501546005860180546001600160a01b039096169694959394929360ff90921692916124f5906145cd565b80601f0160208091040260200160405190810160405280929190818152602001828054612521906145cd565b801561256e5780601f106125435761010080835404028352916020019161256e565b820191906000526020600020905b81548152906001019060200180831161255157829003601f168201915b505050505090806006018054612583906145cd565b80601f01602080910402602001604051908101604052809291908181526020018280546125af906145cd565b80156125fc5780601f106125d1576101008083540402835291602001916125fc565b820191906000526020600020905b8154815290600101906020018083116125df57829003601f168201915b505050600790930154919250506001600160a01b031688565b60fd8054610658906145cd565b610101546001600160a01b031663c7e1562c3061263d6133f7565b6040516001600160e01b031960e085901b1681526001600160a01b03928316600482015291166024820152604401602060405180830381600087803b15801561268557600080fd5b505af1158015612699573d6000803e3d6000fd5b505050506040513d601f19601f820116820180604052508101906126bd91906140fa565b6127095760405162461bcd60e51b815260206004820152601f60248201527f55736572206e6f74207265676973746572656420666f7220746865206170700060448201526064016107bc565b610105548490610103600061271c6133f7565b6001600160a01b031681526020810191909152604001600020546127409190614585565b81610104600061274e6133f7565b6001600160a01b031681526020810191909152604001600020546127729190614585565b11156127c05760405162461bcd60e51b815260206004820152601660248201527f4e6f207370616365206c65667420666f7220757365720000000000000000000060448201526064016107bc565b600080527ff167d7e9ac6011f0b837eaede5176b30419264c8a43ec5db1d59bf93c98c1f7f546101046020527f0c81ce4857d5b94b8c75139d9e9e2911ece8cd067eddba6000e40a08e09d564354612819908390614585565b11156128675760405162461bcd60e51b815260206004820152601560248201527f4e6f207370616365206c65667420666f7220617070000000000000000000000060448201526064016107bc565b600088815261010060205260409020546001600160a01b0316156128d75760405162461bcd60e51b815260206004820152602160248201527f4f776e657220616c726561647920657869737420666f7220746869732066696c6044820152606560f81b60648201526084016107bc565b85871161290c5760405162461bcd60e51b81526020600482015260036024820152626e3e6b60e81b60448201526064016107bc565b6001861161295c5760405162461bcd60e51b815260206004820152601160248201527f6b2073686f756c64206e6f74206265203000000000000000000000000000000060448201526064016107bc565b846129a95760405162461bcd60e51b815260206004820152600f60248201527f53686f756c64206e6f742062652030000000000000000000000000000000000060448201526064016107bc565b6040518061010001604052806129bd6133f7565b6001600160a01b03908116825260208083018b905260408084018b905260608085018b90526000608080870182905260a08088018d905260c088018c90528a871660e0909801979097528f8252610100855290839020875181546001600160a01b0319169616959095178555868401516001860155918601516002850155850151600384015584015160048301805460ff19169115159190911790559183015180519192612a7392600585019290910190613d21565b5060c08201518051612a8f916006840191602090910190613d21565b5060e09190910151600790910180546001600160a01b0319166001600160a01b03909216919091179055846101046000612ac76133f7565b6001600160a01b03166001600160a01b031681526020019081526020016000206000016000828254612af99190614585565b909155505060008080526101046020527f0c81ce4857d5b94b8c75139d9e9e2911ece8cd067eddba6000e40a08e09d56438054879290612b3a908490614585565b9091555050600088815261010060209081526040918290205482518a815291820189905291810187905289916001600160a01b0316907fb927e45e3d8ce5bbdb784af6c44bcd63515f70a54ba86e21a3af868740a6a8659060600160405180910390a35050505050505050565b6101026020526000908152604090208054610658906145cd565b60ff6020528260005260406000206020528160005260406000208181548110612be957600080fd5b6000918252602090912001546001600160a01b0316925083915050565b6000828152610100602052604081205483906001600160a01b0316612c296133f7565b6001600160a01b031614612c965760405162461bcd60e51b815260206004820152602e60248201527f546869732066756e6374696f6e2063616e206f6e6c792062652063616c6c656460448201526d10313c903334b6329037bbb732b960911b60648201526084016107bc565b610101546001600160a01b031663c7e1562c30612cb16133f7565b6040516001600160e01b031960e085901b1681526001600160a01b03928316600482015291166024820152604401602060405180830381600087803b158015612cf957600080fd5b505af1158015612d0d573d6000803e3d6000fd5b505050506040513d601f19601f82011682018060405250810190612d3191906140fa565b612d7d5760405162461bcd60e51b815260206004820152601f60248201527f55736572206e6f74207265676973746572656420666f7220746865206170700060448201526064016107bc565b6001600160a01b038316612dd35760405162461bcd60e51b815260206004820152600f60248201527f496e76616c69642061646472657373000000000000000000000000000000000060448201526064016107bc565b60008481526101006020526040902080546001600160a01b0385166001600160a01b0319909116179055600191505092915050565b600054610100900460ff1680612e21575060005460ff16155b612e845760405162461bcd60e51b815260206004820152602e60248201527f496e697469616c697a61626c653a20636f6e747261637420697320616c72656160448201526d191e481a5b9a5d1a585b1a5e995960921b60648201526084016107bc565b600054610100900460ff16158015612eaf576000805460ff1961ff0019909116610100171660011790555b612eb76136d0565b8451612eca9060fc906020880190613d21565b5061010180546001600160a01b0319166001600160a01b038616179055612ef08361379b565b8151612f039060fd906020850190613d21565b508015612f16576000805461ff00191690555b5050505050565b612f7960405180610100016040528060006001600160a01b03168152602001600081526020016000815260200160008152602001600015158152602001606081526020016060815260200160006001600160a01b031681525090565b600083815260fe60209081526040808320858452909152812081612f9b6133f7565b6001600160a01b03166001600160a01b03168152602001908152602001600020604051806040016040529081600082018054612fd6906145cd565b80601f0160208091040260200160405190810160405280929190818152602001828054613002906145cd565b801561304f5780601f106130245761010080835404028352916020019161304f565b820191906000526020600020905b81548152906001019060200180831161303257829003601f168201915b5050509183525050600191820154602091820152600087815261010080835260408083208151928301825280546001600160a01b03168352948501549382019390935260028401549281019290925260038301546060830152600483015460ff1615156080830152600583018054949550909391929160a0840191906130d4906145cd565b80601f0160208091040260200160405190810160405280929190818152602001828054613100906145cd565b801561314d5780601f106131225761010080835404028352916020019161314d565b820191906000526020600020905b81548152906001019060200180831161313057829003601f168201915b50505050508152602001600682018054613166906145cd565b80601f0160208091040260200160405190810160405280929190818152602001828054613192906145cd565b80156131df5780601f106131b4576101008083540402835291602001916131df565b820191906000526020600020905b8154815290600101906020018083116131c257829003601f168201915b5050509183525050600791909101546001600160a01b039081166020909201919091528151919250166132106133f7565b6001600160a01b03161461326757602082015161325f5760405162461bcd60e51b815260206004820152600d60248201526c056616c6964697479206973203609c1b60448201526064016107bc565b815160c08201525b949350505050565b80610102600061327d6133f7565b6001600160a01b03166001600160a01b03168152602001908152602001600020908051906020019061142f929190613d21565b6132b86133f7565b6001600160a01b03166132c9612498565b6001600160a01b03161461331f5760405162461bcd60e51b815260206004820181905260248201527f4f776e61626c653a2063616c6c6572206973206e6f7420746865206f776e657260448201526064016107bc565b6001600160a01b03811661339b5760405162461bcd60e51b815260206004820152602660248201527f4f776e61626c653a206e6577206f776e657220697320746865207a65726f206160448201527f646472657373000000000000000000000000000000000000000000000000000060648201526084016107bc565b6097546040516001600160a01b038084169216907f8be0079c531659141344cd1fd0a4f28419497f9722a3daafe3b4186f6b6457e090600090a3609780546001600160a01b0319166001600160a01b0392909216919091179055565b600061340233611a94565b15613416575060131936013560601c6124a5565b61341e613868565b90506124a5565b61342d6133f7565b6001600160a01b031661343e612498565b6001600160a01b031614610d495760405162461bcd60e51b815260206004820181905260248201527f4f776e61626c653a2063616c6c6572206973206e6f7420746865206f776e657260448201526064016107bc565b60006134c77f360894a13ba1a3210667c828492db98dca3e2076cc3735a920a3ca505d382bbc546001600160a01b031690565b90506134d28461388d565b6000835111806134df5750815b156134f0576134ee8484613942565b505b7f4910fdfa16fed3260ed0e7147f7cc6da11a60208b5b9406d12a635614ffd9143805460ff16612f1657805460ff191660011781556040516001600160a01b038316602482015261358490869060440160408051601f198184030181529190526020810180517bffffffffffffffffffffffffffffffffffffffffffffffffffffffff16631b2ce7f360e11b179052613942565b50805460ff191681557f360894a13ba1a3210667c828492db98dca3e2076cc3735a920a3ca505d382bbc546001600160a01b0383811691161461362f5760405162461bcd60e51b815260206004820152602f60248201527f45524331393637557067726164653a207570677261646520627265616b73206660448201527f757274686572207570677261646573000000000000000000000000000000000060648201526084016107bc565b6136388561388d565b6040516001600160a01b038616907fbc7cd75a20ee27fd9adebab32041f755214dbc6bffa90cc0225b39da2e5c2d3b90600090a25050505050565b6000805b826001600160a01b03168482815181106136a157634e487b7160e01b600052603260045260246000fd5b60200260200101516001600160a01b0316146136c957806136c181614608565b915050613677565b9392505050565b600054610100900460ff16806136e9575060005460ff16155b61374c5760405162461bcd60e51b815260206004820152602e60248201527f496e697469616c697a61626c653a20636f6e747261637420697320616c72656160448201526d191e481a5b9a5d1a585b1a5e995960921b60648201526084016107bc565b600054610100900460ff16158015613777576000805460ff1961ff0019909116610100171660011790555b61377f613a44565b613787613afe565b8015610d49576000805461ff001916905550565b600054610100900460ff16806137b4575060005460ff16155b6138175760405162461bcd60e51b815260206004820152602e60248201527f496e697469616c697a61626c653a20636f6e747261637420697320616c72656160448201526d191e481a5b9a5d1a585b1a5e995960921b60648201526084016107bc565b600054610100900460ff16158015613842576000805460ff1961ff0019909116610100171660011790555b61384a613a44565b61385382613c11565b801561142f576000805461ff00191690555050565b600061387333611a94565b15613887575060131936013560601c6124a5565b3361341e565b803b6139015760405162461bcd60e51b815260206004820152602d60248201527f455243313936373a206e657720696d706c656d656e746174696f6e206973206e60448201527f6f74206120636f6e74726163740000000000000000000000000000000000000060648201526084016107bc565b7f360894a13ba1a3210667c828492db98dca3e2076cc3735a920a3ca505d382bbc80546001600160a01b0319166001600160a01b0392909216919091179055565b6060823b6139b85760405162461bcd60e51b815260206004820152602660248201527f416464726573733a2064656c65676174652063616c6c20746f206e6f6e2d636f60448201527f6e7472616374000000000000000000000000000000000000000000000000000060648201526084016107bc565b600080846001600160a01b0316846040516139d3919061438a565b600060405180830381855af49150503d8060008114613a0e576040519150601f19603f3d011682016040523d82523d6000602084013e613a13565b606091505b5091509150613a3b828260405180606001604052806027815260200161465060279139613ce8565b95945050505050565b600054610100900460ff1680613a5d575060005460ff16155b613ac05760405162461bcd60e51b815260206004820152602e60248201527f496e697469616c697a61626c653a20636f6e747261637420697320616c72656160448201526d191e481a5b9a5d1a585b1a5e995960921b60648201526084016107bc565b600054610100900460ff16158015613787576000805460ff1961ff0019909116610100171660011790558015610d49576000805461ff001916905550565b600054610100900460ff1680613b17575060005460ff16155b613b7a5760405162461bcd60e51b815260206004820152602e60248201527f496e697469616c697a61626c653a20636f6e747261637420697320616c72656160448201526d191e481a5b9a5d1a585b1a5e995960921b60648201526084016107bc565b600054610100900460ff16158015613ba5576000805460ff1961ff0019909116610100171660011790555b6000613baf6133f7565b609780546001600160a01b0319166001600160a01b038316908117909155604051919250906000907f8be0079c531659141344cd1fd0a4f28419497f9722a3daafe3b4186f6b6457e0908290a3508015610d49576000805461ff001916905550565b600054610100900460ff1680613c2a575060005460ff16155b613c8d5760405162461bcd60e51b815260206004820152602e60248201527f496e697469616c697a61626c653a20636f6e747261637420697320616c72656160448201526d191e481a5b9a5d1a585b1a5e995960921b60648201526084016107bc565b600054610100900460ff16158015613cb8576000805460ff1961ff0019909116610100171660011790555b60c980546001600160a01b0319166001600160a01b038416179055801561142f576000805461ff00191690555050565b60608315613cf75750816136c9565b825115613d075782518084602001fd5b8160405162461bcd60e51b81526004016107bc9190614480565b828054613d2d906145cd565b90600052602060002090601f016020900481019282613d4f5760008555613d95565b82601f10613d6857805160ff1916838001178555613d95565b82800160010185558215613d95579182015b82811115613d95578251825591602001919060010190613d7a565b50613da1929150613ddd565b5090565b508054613db1906145cd565b6000825580601f10613dc35750610d49565b601f016020900490600052602060002090810190610d4991905b5b80821115613da15760008155600101613dde565b80356001600160a01b0381168114611aa657600080fd5b600082601f830112613e19578081fd5b81356020613e2e613e2983614561565b614530565b8281528181019085830183850287018401881015613e4a578586fd5b855b85811015613e6f57613e5d82613df2565b84529284019290840190600101613e4c565b5090979650505050505050565b600082601f830112613e8c578081fd5b81356020613e9c613e2983614561565b8281528181019085830183850287018401881015613eb8578586fd5b855b85811015613e6f57813584529284019290840190600101613eba565b600082601f830112613ee6578081fd5b81356020613ef6613e2983614561565b82815281810190858301855b85811015613e6f57613f19898684358b0101613f2b565b84529284019290840190600101613f02565b600082601f830112613f3b578081fd5b813567ffffffffffffffff811115613f5557613f55614639565b613f68601f8201601f1916602001614530565b818152846020838601011115613f7c578283fd5b816020850160208301379081016020019190915292915050565b600060208284031215613fa7578081fd5b6136c982613df2565b60008060408385031215613fc2578081fd5b613fcb83613df2565b9150602083013567ffffffffffffffff811115613fe6578182fd5b613ff285828601613f2b565b9150509250929050565b600080600060608486031215614010578081fd5b61401984613df2565b95602085013595506040909401359392505050565b600080600080600060a08688031215614045578081fd5b853567ffffffffffffffff8082111561405c578283fd5b61406889838a01613e7c565b9650602088013591508082111561407d578283fd5b61408989838a01613e09565b9550604088013591508082111561409e578283fd5b6140aa89838a01613e7c565b945060608801359150808211156140bf578283fd5b6140cb89838a01613ed6565b935060808801359150808211156140e0578283fd5b506140ed88828901613e7c565b9150509295509295909350565b60006020828403121561410b578081fd5b815180151581146136c9578182fd5b60006020828403121561412b578081fd5b5035919050565b60008060408385031215614144578182fd5b8235915061415460208401613df2565b90509250929050565b600080600060608486031215614171578081fd5b8335925061418160208501613df2565b9150604084013590509250925092565b600080604083850312156141a3578182fd5b50508035926020909101359150565b6000806000606084860312156141c6578081fd5b83359250602084013591506141dd60408501613df2565b90509250925092565b6000806000606084860312156141fa578081fd5b505081359360208301359350604090920135919050565b600080600080600080600060e0888a03121561422b578485fd5b87359650602088013595506040880135945060608801359350608088013567ffffffffffffffff8082111561425e578384fd5b61426a8b838c01613f2b565b945060a08a013591508082111561427f578384fd5b5061428c8a828b01613f2b565b92505061429b60c08901613df2565b905092959891949750929550565b6000602082840312156142ba578081fd5b813567ffffffffffffffff8111156142d0578182fd5b61326784828501613f2b565b600080600080608085870312156142f1578182fd5b843567ffffffffffffffff80821115614308578384fd5b61431488838901613f2b565b955061432260208801613df2565b945061433060408801613df2565b93506060870135915080821115614345578283fd5b5061435287828801613f2b565b91505092959194509250565b6000815180845261437681602086016020860161459d565b601f01601f19169290920160200192915050565b6000825161439c81846020870161459d565b9190910192915050565b60006101006001600160a01b03808c1684528a602085015289604085015288606085015287151560808501528160a08501526143e48285018861435e565b915083820360c08501526143f8828761435e565b925080851660e085015250509998505050505050505050565b6020808252825182820181905260009190848201906040850190845b818110156144525783516001600160a01b03168352928401929184019160010161442d565b50909695505050505050565b600060408252614471604083018561435e565b90508260208301529392505050565b6000602082526136c9602083018461435e565b6000602082526001600160a01b03835116602083015260208301516040830152604083015160608301526060830151608083015260808301516144da60a084018215159052565b5060a08301516101008060c08501526144f761012085018361435e565b915060c0850151601f198584030160e0860152614514838261435e565b92505060e0850151611ca3828601826001600160a01b03169052565b604051601f8201601f1916810167ffffffffffffffff8111828210171561455957614559614639565b604052919050565b600067ffffffffffffffff82111561457b5761457b614639565b5060209081020190565b6000821982111561459857614598614623565b500190565b60005b838110156145b85781810151838201526020016145a0565b838111156145c7576000848401525b50505050565b6002810460018216806145e157607f821691505b6020821081141561460257634e487b7160e01b600052602260045260246000fd5b50919050565b600060001982141561461c5761461c614623565b5060010190565b634e487b7160e01b600052601160045260246000fd5b634e487b7160e01b600052604160045260246000fdfe416464726573733a206c6f772d6c6576656c2064656c65676174652063616c6c206661696c6564a164736f6c6343000802000a",
  "linkReferences": {},
  "deployedLinkReferences": {}
}