{
  "_format": "hh-sol-artifact-1",
  "contractName": "Arcana",
  "sourceName": "contracts/Arcana.sol",
  "abi": [
    {
      "anonymous": false,
      "inputs": [
        {
          "indexed": false,
          "internalType": "address",
          "name": "previousAdmin",
          "type": "address"
        },
        {
          "indexed": false,
          "internalType": "address",
          "name": "newAdmin",
          "type": "address"
        }
      ],
      "name": "AdminChanged",
      "type": "event"
    },
    {
      "anonymous": false,
      "inputs": [
        {
          "indexed": true,
          "internalType": "address",
          "name": "beacon",
          "type": "address"
        }
      ],
      "name": "BeaconUpgraded",
      "type": "event"
    },
    {
      "anonymous": false,
      "inputs": [
        {
          "indexed": true,
          "internalType": "address",
          "name": "identity",
          "type": "address"
        },
        {
          "indexed": true,
          "internalType": "bytes32",
          "name": "file",
          "type": "bytes32"
        }
      ],
      "name": "DeleteFileEvent",
      "type": "event"
    },
    {
      "anonymous": false,
      "inputs": [
        {
          "indexed": true,
          "internalType": "address",
          "name": "identity",
          "type": "address"
        },
        {
          "indexed": true,
          "internalType": "bytes32",
          "name": "file",
          "type": "bytes32"
        },
        {
          "indexed": false,
          "internalType": "uint256",
          "name": "n",
          "type": "uint256"
        },
        {
          "indexed": false,
          "internalType": "uint256",
          "name": "k",
          "type": "uint256"
        },
        {
          "indexed": false,
          "internalType": "uint256",
          "name": "fileSize",
          "type": "uint256"
        }
      ],
      "name": "NewFileUpdate",
      "type": "event"
    },
    {
      "anonymous": false,
      "inputs": [
        {
          "indexed": true,
          "internalType": "address",
          "name": "identity",
          "type": "address"
        },
        {
          "indexed": true,
          "internalType": "bytes32",
          "name": "file",
          "type": "bytes32"
        },
        {
          "indexed": false,
          "internalType": "uint256",
          "name": "validity",
          "type": "uint256"
        },
        {
          "indexed": false,
          "internalType": "bytes32",
          "name": "accessType",
          "type": "bytes32"
        },
        {
          "indexed": false,
          "internalType": "address",
          "name": "excutor",
          "type": "address"
        }
      ],
      "name": "NewPermissionCheck",
      "type": "event"
    },
    {
      "anonymous": false,
      "inputs": [
        {
          "indexed": true,
          "internalType": "address",
          "name": "identity",
          "type": "address"
        },
        {
          "indexed": true,
          "internalType": "bytes32",
          "name": "file",
          "type": "bytes32"
        },
        {
          "indexed": true,
          "internalType": "address",
          "name": "user",
          "type": "address"
        },
        {
          "indexed": false,
          "internalType": "bytes32",
          "name": "accessType",
          "type": "bytes32"
        },
        {
          "indexed": false,
          "internalType": "uint256",
          "name": "validity",
          "type": "uint256"
        }
      ],
      "name": "NewShare",
      "type": "event"
    },
    {
      "anonymous": false,
      "inputs": [
        {
          "indexed": true,
          "internalType": "address",
          "name": "identity",
          "type": "address"
        },
        {
          "indexed": true,
          "internalType": "bytes32",
          "name": "file",
          "type": "bytes32"
        },
        {
          "indexed": true,
          "internalType": "address",
          "name": "user",
          "type": "address"
        },
        {
          "indexed": false,
          "internalType": "bytes32",
          "name": "accessType",
          "type": "bytes32"
        }
      ],
      "name": "NewUpdateACK",
      "type": "event"
    },
    {
      "anonymous": false,
      "inputs": [
        {
          "indexed": true,
          "internalType": "address",
          "name": "previousOwner",
          "type": "address"
        },
        {
          "indexed": true,
          "internalType": "address",
          "name": "newOwner",
          "type": "address"
        }
      ],
      "name": "OwnershipTransferred",
      "type": "event"
    },
    {
      "anonymous": false,
      "inputs": [
        {
          "indexed": true,
          "internalType": "address",
          "name": "implementation",
          "type": "address"
        }
      ],
      "name": "Upgraded",
      "type": "event"
    },
    {
      "inputs": [
        {
          "internalType": "bytes32",
          "name": "",
          "type": "bytes32"
        },
        {
          "internalType": "bytes32",
          "name": "",
          "type": "bytes32"
        },
        {
          "internalType": "address",
          "name": "",
          "type": "address"
        }
      ],
      "name": "accessSpecifier",
      "outputs": [
        {
          "internalType": "bytes",
          "name": "encryptedKey",
          "type": "bytes"
        },
        {
          "internalType": "uint256",
          "name": "validity",
          "type": "uint256"
        }
      ],
      "stateMutability": "view",
      "type": "function"
    },
    {
      "inputs": [],
      "name": "appName",
      "outputs": [
        {
          "internalType": "string",
          "name": "",
          "type": "string"
        }
      ],
      "stateMutability": "view",
      "type": "function"
    },
    {
      "inputs": [
        {
          "internalType": "bytes32",
          "name": "_file",
          "type": "bytes32"
        },
        {
          "internalType": "address",
          "name": "_newOwner",
          "type": "address"
        }
      ],
      "name": "changeFileOwner",
      "outputs": [
        {
          "internalType": "bool",
          "name": "",
          "type": "bool"
        }
      ],
      "stateMutability": "nonpayable",
      "type": "function"
    },
    {
      "inputs": [
        {
          "internalType": "address",
          "name": "_identity",
          "type": "address"
        },
        {
          "internalType": "bytes32",
          "name": "_file",
          "type": "bytes32"
        },
        {
          "internalType": "bytes32",
          "name": "_accessType",
          "type": "bytes32"
        }
      ],
      "name": "checkPermission",
      "outputs": [
        {
          "internalType": "uint256",
          "name": "",
          "type": "uint256"
        }
      ],
      "stateMutability": "nonpayable",
      "type": "function"
    },
    {
      "inputs": [
        {
          "internalType": "bytes32",
          "name": "_file",
          "type": "bytes32"
        }
      ],
      "name": "deleteFile",
      "outputs": [],
      "stateMutability": "nonpayable",
      "type": "function"
    },
    {
      "inputs": [],
      "name": "factory",
      "outputs": [
        {
          "internalType": "contract FactoryInterface",
          "name": "",
          "type": "address"
        }
      ],
      "stateMutability": "view",
      "type": "function"
    },
    {
      "inputs": [
        {
          "internalType": "bytes32",
          "name": "",
          "type": "bytes32"
        }
      ],
      "name": "files",
      "outputs": [
        {
          "internalType": "address",
          "name": "owner",
          "type": "address"
        },
        {
          "internalType": "uint256",
          "name": "n",
          "type": "uint256"
        },
        {
          "internalType": "uint256",
          "name": "k",
          "type": "uint256"
        },
        {
          "internalType": "uint256",
          "name": "fileSize",
          "type": "uint256"
        },
        {
          "internalType": "bool",
          "name": "uploaded",
          "type": "bool"
        },
        {
          "internalType": "bytes",
          "name": "encryptedMetaData",
          "type": "bytes"
        },
        {
          "internalType": "bytes",
          "name": "encryptedKey",
          "type": "bytes"
        },
        {
          "internalType": "bytes32",
          "name": "encryptedFileHash",
          "type": "bytes32"
        },
        {
          "internalType": "address",
          "name": "storageNode",
          "type": "address"
        }
      ],
      "stateMutability": "view",
      "type": "function"
    },
    {
      "inputs": [
        {
          "internalType": "bytes32",
          "name": "_file",
          "type": "bytes32"
        },
        {
          "internalType": "bytes32",
          "name": "_accessType",
          "type": "bytes32"
        }
      ],
      "name": "getAllUsers",
      "outputs": [
        {
          "internalType": "address[]",
          "name": "",
          "type": "address[]"
        }
      ],
      "stateMutability": "view",
      "type": "function"
    },
    {
      "inputs": [
        {
          "internalType": "bytes32",
          "name": "_file",
          "type": "bytes32"
        },
        {
          "internalType": "bytes32",
          "name": "_accessType",
          "type": "bytes32"
        }
      ],
      "name": "getFile",
      "outputs": [
        {
          "components": [
            {
              "internalType": "address",
              "name": "owner",
              "type": "address"
            },
            {
              "internalType": "uint256",
              "name": "n",
              "type": "uint256"
            },
            {
              "internalType": "uint256",
              "name": "k",
              "type": "uint256"
            },
            {
              "internalType": "uint256",
              "name": "fileSize",
              "type": "uint256"
            },
            {
              "internalType": "bool",
              "name": "uploaded",
              "type": "bool"
            },
            {
              "internalType": "bytes",
              "name": "encryptedMetaData",
              "type": "bytes"
            },
            {
              "internalType": "bytes",
              "name": "encryptedKey",
              "type": "bytes"
            },
            {
              "internalType": "bytes32",
              "name": "encryptedFileHash",
              "type": "bytes32"
            },
            {
              "internalType": "address",
              "name": "storageNode",
              "type": "address"
            }
          ],
          "internalType": "struct Arcana.File",
          "name": "",
          "type": "tuple"
        }
      ],
      "stateMutability": "view",
      "type": "function"
    },
    {
      "inputs": [
        {
          "internalType": "string",
          "name": "_appName",
          "type": "string"
        },
        {
          "internalType": "address",
          "name": "_factory",
          "type": "address"
        },
        {
          "internalType": "address",
          "name": "_relayer",
          "type": "address"
        }
      ],
      "name": "initialize",
      "outputs": [],
      "stateMutability": "nonpayable",
      "type": "function"
    },
    {
      "inputs": [
        {
          "internalType": "address",
          "name": "forwarder",
          "type": "address"
        }
      ],
      "name": "isTrustedForwarder",
      "outputs": [
        {
          "internalType": "bool",
          "name": "",
          "type": "bool"
        }
      ],
      "stateMutability": "view",
      "type": "function"
    },
    {
      "inputs": [],
      "name": "owner",
      "outputs": [
        {
          "internalType": "address",
          "name": "",
          "type": "address"
        }
      ],
      "stateMutability": "view",
      "type": "function"
    },
    {
      "inputs": [],
      "name": "renounceOwnership",
      "outputs": [],
      "stateMutability": "nonpayable",
      "type": "function"
    },
    {
      "inputs": [
        {
          "internalType": "bytes32",
          "name": "_file",
          "type": "bytes32"
        },
        {
          "internalType": "address",
          "name": "_user",
          "type": "address"
        },
        {
          "internalType": "bytes32",
          "name": "_accessType",
          "type": "bytes32"
        }
      ],
      "name": "revoke",
      "outputs": [],
      "stateMutability": "nonpayable",
      "type": "function"
    },
    {
      "inputs": [
        {
          "internalType": "bytes32[]",
          "name": "_files",
          "type": "bytes32[]"
        },
        {
          "internalType": "address[]",
          "name": "_user",
          "type": "address[]"
        },
        {
          "internalType": "bytes32[]",
          "name": "_accessType",
          "type": "bytes32[]"
        },
        {
          "internalType": "bytes[]",
          "name": "_encryptedKey",
          "type": "bytes[]"
        },
        {
          "internalType": "uint256[]",
          "name": "_validity",
          "type": "uint256[]"
        }
      ],
      "name": "share",
      "outputs": [],
      "stateMutability": "nonpayable",
      "type": "function"
    },
    {
      "inputs": [
        {
          "internalType": "bytes32[]",
          "name": "_files",
          "type": "bytes32[]"
        },
        {
          "internalType": "address[]",
          "name": "_user",
          "type": "address[]"
        },
        {
          "internalType": "bytes32[]",
          "name": "_accessType",
          "type": "bytes32[]"
        },
        {
          "internalType": "bytes[]",
          "name": "_encryptedKey",
          "type": "bytes[]"
        },
        {
          "internalType": "uint256[]",
          "name": "_validity",
          "type": "uint256[]"
        }
      ],
      "name": "shareUser",
      "outputs": [],
      "stateMutability": "nonpayable",
      "type": "function"
    },
    {
      "inputs": [
        {
          "internalType": "address",
          "name": "newOwner",
          "type": "address"
        }
      ],
      "name": "transferOwnership",
      "outputs": [],
      "stateMutability": "nonpayable",
      "type": "function"
    },
    {
      "inputs": [
        {
          "internalType": "address",
          "name": "newImplementation",
          "type": "address"
        }
      ],
      "name": "upgradeTo",
      "outputs": [],
      "stateMutability": "nonpayable",
      "type": "function"
    },
    {
      "inputs": [
        {
          "internalType": "address",
          "name": "newImplementation",
          "type": "address"
        },
        {
          "internalType": "bytes",
          "name": "data",
          "type": "bytes"
        }
      ],
      "name": "upgradeToAndCall",
      "outputs": [],
      "stateMutability": "payable",
      "type": "function"
    },
    {
      "inputs": [
        {
          "internalType": "bytes32",
          "name": "_file",
          "type": "bytes32"
        }
      ],
      "name": "uploadClose",
      "outputs": [],
      "stateMutability": "nonpayable",
      "type": "function"
    },
    {
      "inputs": [
        {
          "internalType": "bytes32",
          "name": "_file",
          "type": "bytes32"
        },
        {
          "internalType": "uint256",
          "name": "_n",
          "type": "uint256"
        },
        {
          "internalType": "uint256",
          "name": "_k",
          "type": "uint256"
        },
        {
          "internalType": "uint256",
          "name": "_fileSize",
          "type": "uint256"
        },
        {
          "internalType": "bytes",
          "name": "_encryptedMetaData",
          "type": "bytes"
        },
        {
          "internalType": "bytes",
          "name": "_encryptedKey",
          "type": "bytes"
        },
        {
          "internalType": "bytes32",
          "name": "_encryptedFileHash",
          "type": "bytes32"
        },
        {
          "internalType": "address",
          "name": "_storageNode",
          "type": "address"
        }
      ],
      "name": "uploadInit",
      "outputs": [],
      "stateMutability": "nonpayable",
      "type": "function"
    },
    {
      "inputs": [
        {
          "internalType": "bytes32",
          "name": "",
          "type": "bytes32"
        },
        {
          "internalType": "bytes32",
          "name": "",
          "type": "bytes32"
        },
        {
          "internalType": "uint256",
          "name": "",
          "type": "uint256"
        }
      ],
      "name": "userAccess",
      "outputs": [
        {
          "internalType": "address",
          "name": "",
          "type": "address"
        }
      ],
      "stateMutability": "view",
      "type": "function"
    }
  ],
  "bytecode": "0x608060405234801561001057600080fd5b50613aab806100206000396000f3fe6080604052600436106101755760003560e01c806363a15202116100cb57806398c9adff1161007f578063c5b2644711610059578063c5b264471461042b578063dde8d0d91461044b578063f2fde38b1461047857610175565b806398c9adff146103b5578063c12ed14f146103ea578063c45a01551461040a57610175565b80636b2877d4116100b05780636b2877d414610353578063715018a6146103735780638da5cb5b1461038857610175565b806363a15202146103135780636ab799f11461033357610175565b8063463fd1af1161012d5780635f784b8a116101075780635f784b8a1461028a5780636184533f146102b8578063638b6add146102e557610175565b8063463fd1af146102275780634f1ef28614610247578063572b6c051461025a57610175565b80631202cc821161015e5780631202cc82146101c75780633659cfe6146101e75780633a8be7f51461020757610175565b80630c97282c1461017a5780630d3fbd05146101a5575b600080fd5b34801561018657600080fd5b5061018f610498565b60405161019c9190613899565b60405180910390f35b3480156101b157600080fd5b506101c56101c0366004613484565b610526565b005b3480156101d357600080fd5b506101c56101e2366004613667565b610b71565b3480156101f357600080fd5b506101c56102023660046133ec565b610f19565b34801561021357600080fd5b506101c5610222366004613484565b610f40565b34801561023357600080fd5b506101c5610242366004613709565b61157e565b6101c5610255366004613438565b61167e565b34801561026657600080fd5b5061027a6102753660046133ec565b611697565b604051901515815260200161019c565b34801561029657600080fd5b506102aa6102a5366004613608565b6116ae565b60405161019c929190613877565b3480156102c457600080fd5b506102d86102d33660046135e7565b611763565b60405161019c919061382a565b3480156102f157600080fd5b50610305610300366004613406565b6118b0565b60405190815260200161019c565b34801561031f57600080fd5b506101c561032e366004613570565b6119ae565b34801561033f57600080fd5b506101c561034e366004613570565b611ace565b34801561035f57600080fd5b506101c561036e3660046135b3565b611cf8565b34801561037f57600080fd5b506101c5611f41565b34801561039457600080fd5b5061039d611ffa565b6040516001600160a01b03909116815260200161019c565b3480156103c157600080fd5b506103d56103d0366004613570565b61200a565b60405161019c999897969594939291906137b7565b3480156103f657600080fd5b5061039d61040536600461363c565b61217f565b34801561041657600080fd5b506101005461039d906001600160a01b031681565b34801561043757600080fd5b5061027a610446366004613588565b6121c4565b34801561045757600080fd5b5061046b6104663660046135e7565b6123c4565b60405161019c91906138ac565b34801561048457600080fd5b506101c56104933660046133ec565b612700565b60fc80546104a5906139f5565b80601f01602080910402602001604051908101604052809291908181526020018280546104d1906139f5565b801561051e5780601f106104f35761010080835404028352916020019161051e565b820191906000526020600020905b81548152906001019060200180831161050157829003601f168201915b505050505081565b610100546001600160a01b031663c7e1562c30610541612847565b6040516001600160e01b031960e085901b1681526001600160a01b03928316600482015291166024820152604401602060405180830381600087803b15801561058957600080fd5b505af115801561059d573d6000803e3d6000fd5b505050506040513d601f19601f820116820180604052508101906105c19190613550565b6106125760405162461bcd60e51b815260206004820152601f60248201527f55736572206e6f74207265676973746572656420666f7220746865206170700060448201526064015b60405180910390fd5b82518451146106895760405162461bcd60e51b815260206004820152603a60248201527f55736572206172726179206c656e67746820646f6573206e6f74206d6174636860448201527f65732077697468206163636573732074797065206c656e6774680000000000006064820152608401610609565b80518451146107005760405162461bcd60e51b815260206004820152603760248201527f55736572206172726179206c656e67746820646f6573206e6f74206d6174636860448201527f657320776974682076616c6964697479206c656e6774680000000000000000006064820152608401610609565b60005b8551811015610b695760005b8551811015610b565760ff600088838151811061073c57634e487b7160e01b600052603260045260246000fd5b6020908102919091018101518252810191909152604001600020546001600160a01b0316610768612847565b6001600160a01b0316146107af5760405162461bcd60e51b815260206004820152600e60248201526d2737ba103334b6329037bbb732b960911b6044820152606401610609565b8282815181106107cf57634e487b7160e01b600052603260045260246000fd5b6020026020010151600014156108275760405162461bcd60e51b815260206004820152601960248201527f56616c6964697479206d757374206265206e6f6e207a65726f000000000000006044820152606401610609565b604051806040016040528085848151811061085257634e487b7160e01b600052603260045260246000fd5b6020026020010151815260200184848151811061087f57634e487b7160e01b600052603260045260246000fd5b60200260200101514261089291906139b1565b81525060fd60008985815181106108b957634e487b7160e01b600052603260045260246000fd5b6020026020010151815260200190815260200160002060008785815181106108f157634e487b7160e01b600052603260045260246000fd5b60200260200101518152602001908152602001600020600088848151811061092957634e487b7160e01b600052603260045260246000fd5b60200260200101516001600160a01b03166001600160a01b03168152602001908152602001600020600082015181600001908051906020019061096d92919061316b565b506020820151816001015590505060fe600088848151811061099f57634e487b7160e01b600052603260045260246000fd5b6020026020010151815260200190815260200160002060008684815181106109d757634e487b7160e01b600052603260045260246000fd5b60200260200101518152602001908152602001600020868281518110610a0d57634e487b7160e01b600052603260045260246000fd5b60209081029190910181015182546001810184556000938452919092200180546001600160a01b0319166001600160a01b039092169190911790558551869082908110610a6a57634e487b7160e01b600052603260045260246000fd5b60200260200101516001600160a01b0316878381518110610a9b57634e487b7160e01b600052603260045260246000fd5b6020026020010151610aab612847565b6001600160a01b03167f1ebaec2e787dc387c941232bf165b988dd5c126cd5f60b7215b6ece61bfbc879888581518110610af557634e487b7160e01b600052603260045260246000fd5b6020026020010151878681518110610b1d57634e487b7160e01b600052603260045260246000fd5b6020026020010151604051610b3c929190918252602082015260400190565b60405180910390a480610b4e81613a30565b91505061070f565b5080610b6181613a30565b915050610703565b505050505050565b610100546001600160a01b031663c7e1562c30610b8c612847565b6040516001600160e01b031960e085901b1681526001600160a01b03928316600482015291166024820152604401602060405180830381600087803b158015610bd457600080fd5b505af1158015610be8573d6000803e3d6000fd5b505050506040513d601f19601f82011682018060405250810190610c0c9190613550565b610c585760405162461bcd60e51b815260206004820152601f60248201527f55736572206e6f74207265676973746572656420666f722074686520617070006044820152606401610609565b600088815260ff60205260409020546001600160a01b031615610cc75760405162461bcd60e51b815260206004820152602160248201527f4f776e657220616c726561647920657869737420666f7220746869732066696c6044820152606560f81b6064820152608401610609565b858711610cfc5760405162461bcd60e51b81526020600482015260036024820152626e3e6b60e81b6044820152606401610609565b60018611610d4c5760405162461bcd60e51b815260206004820152601160248201527f6b2073686f756c64206e6f7420626520300000000000000000000000000000006044820152606401610609565b84610d995760405162461bcd60e51b815260206004820152600f60248201527f53686f756c64206e6f74206265203000000000000000000000000000000000006044820152606401610609565b604051806101200160405280610dad612847565b6001600160a01b03908116825260208083018b905260408084018b905260608085018b90526000608080870182905260a08088018d905260c088018c905260e088018b9052898716610100909801979097528f825260ff855290839020875181546001600160a01b0319169616959095178555868401516001860155918601516002850155850151600384015584015160048301805460ff19169115159190911790559183015180519192610e6a9260058501929091019061316b565b5060c08201518051610e8691600684019160209091019061316b565b5060e0820151600782015561010090910151600890910180546001600160a01b0319166001600160a01b03928316179055600089815260ff60209081526040918290205482518b81529182018a90529181018890528a9291909116907fb927e45e3d8ce5bbdb784af6c44bcd63515f70a54ba86e21a3af868740a6a8659060600160405180910390a35050505050505050565b610f2281612875565b610f3d816040518060200160405280600081525060006128e4565b50565b610100546001600160a01b031663c7e1562c30610f5b612847565b6040516001600160e01b031960e085901b1681526001600160a01b03928316600482015291166024820152604401602060405180830381600087803b158015610fa357600080fd5b505af1158015610fb7573d6000803e3d6000fd5b505050506040513d601f19601f82011682018060405250810190610fdb9190613550565b6110275760405162461bcd60e51b815260206004820152601f60248201527f55736572206e6f74207265676973746572656420666f722074686520617070006044820152606401610609565b825184511461109e5760405162461bcd60e51b815260206004820152603a60248201527f55736572206172726179206c656e67746820646f6573206e6f74206d6174636860448201527f65732077697468206163636573732074797065206c656e6774680000000000006064820152608401610609565b80518451146111155760405162461bcd60e51b815260206004820152603760248201527f55736572206172726179206c656e67746820646f6573206e6f74206d6174636860448201527f657320776974682076616c6964697479206c656e6774680000000000000000006064820152608401610609565b60005b8551811015610b695760005b855181101561156b5760ff600088838151811061115157634e487b7160e01b600052603260045260246000fd5b6020908102919091018101518252810191909152604001600020546001600160a01b031661117d612847565b6001600160a01b0316146111c45760405162461bcd60e51b815260206004820152600e60248201526d2737ba103334b6329037bbb732b960911b6044820152606401610609565b8281815181106111e457634e487b7160e01b600052603260045260246000fd5b60200260200101516000141561123c5760405162461bcd60e51b815260206004820152601960248201527f56616c6964697479206d757374206265206e6f6e207a65726f000000000000006044820152606401610609565b604051806040016040528085838151811061126757634e487b7160e01b600052603260045260246000fd5b6020026020010151815260200184838151811061129457634e487b7160e01b600052603260045260246000fd5b6020026020010151426112a791906139b1565b81525060fd60008985815181106112ce57634e487b7160e01b600052603260045260246000fd5b60200260200101518152602001908152602001600020600087848151811061130657634e487b7160e01b600052603260045260246000fd5b60200260200101518152602001908152602001600020600088848151811061133e57634e487b7160e01b600052603260045260246000fd5b60200260200101516001600160a01b03166001600160a01b03168152602001908152602001600020600082015181600001908051906020019061138292919061316b565b506020820151816001015590505060fe60008884815181106113b457634e487b7160e01b600052603260045260246000fd5b6020026020010151815260200190815260200160002060008683815181106113ec57634e487b7160e01b600052603260045260246000fd5b6020026020010151815260200190815260200160002086828151811061142257634e487b7160e01b600052603260045260246000fd5b60209081029190910181015182546001810184556000938452919092200180546001600160a01b0319166001600160a01b03909216919091179055855186908290811061147f57634e487b7160e01b600052603260045260246000fd5b60200260200101516001600160a01b03168783815181106114b057634e487b7160e01b600052603260045260246000fd5b60200260200101516114c0612847565b6001600160a01b03167f1ebaec2e787dc387c941232bf165b988dd5c126cd5f60b7215b6ece61bfbc87988858151811061150a57634e487b7160e01b600052603260045260246000fd5b602002602001015187868151811061153257634e487b7160e01b600052603260045260246000fd5b6020026020010151604051611551929190918252602082015260400190565b60405180910390a48061156381613a30565b915050611124565b508061157681613a30565b915050611118565b600054610100900460ff1680611597575060005460ff16155b6115fa5760405162461bcd60e51b815260206004820152602e60248201527f496e697469616c697a61626c653a20636f6e747261637420697320616c72656160448201526d191e481a5b9a5d1a585b1a5e995960921b6064820152608401610609565b600054610100900460ff16158015611625576000805460ff1961ff0019909116610100171660011790555b61162d612ac4565b83516116409060fc90602087019061316b565b5061010080546001600160a01b0319166001600160a01b03851617905561166682612b8f565b8015611678576000805461ff00191690555b50505050565b61168782612875565b611693828260016128e4565b5050565b60c9546001600160a01b038281169116145b919050565b60fd6020908152600093845260408085208252928452828420905282529020805481906116da906139f5565b80601f0160208091040260200160405190810160405280929190818152602001828054611706906139f5565b80156117535780601f1061172857610100808354040283529160200191611753565b820191906000526020600020905b81548152906001019060200180831161173657829003601f168201915b5050505050908060010154905082565b600082815260fe6020908152604080832084845282528083208054825181850281018501909352808352606094938301828280156117ca57602002820191906000526020600020905b81546001600160a01b031681526001909101906020018083116117ac575b50505050509050600080600090505b82518110156118a657600086815260fe60209081526040808320888452909152902080548290811061181b57634e487b7160e01b600052603260045260246000fd5b600091825260208083209091015488835260fd8252604080842089855283528084206001600160a01b039092168085529190925291206001015490925042106118945782818151811061187e57634e487b7160e01b600052603260045260246000fd5b6020026020010160006001600160a01b03168152505b8061189e81613a30565b9150506117d9565b5090949350505050565b600082815260fd6020908152604080832084845282528083206001600160a01b038088168086529184528285206001015487865260ff90945291842054909116141561190a5761190342620f42406139b1565b9050611947565b806119475760405162461bcd60e51b815260206004820152600d60248201526c056616c6964697479206973203609c1b6044820152606401610609565b83856001600160a01b03167f70de9db8c5fdf7217671fc4cc6008e066f9418ac0527a3422461e6ff4a3d8a4e838661197d612847565b6040805193845260208401929092526001600160a01b03169082015260600160405180910390a390505b9392505050565b600081815260ff60205260409020600801546001600160a01b03166119d1612847565b6001600160a01b031614611a4d5760405162461bcd60e51b815260206004820152603860248201527f46756e6374696f6e2063616e206f6e6c792062652063616c6c6564206279207460448201527f68652061737369676e65642073746f72616765206e6f646500000000000000006064820152608401610609565b600081815260ff60208190526040909120600401541615611ab05760405162461bcd60e51b815260206004820152601560248201527f46696c6520616c72656164792075706c6f6164656400000000000000000000006044820152606401610609565b600090815260ff60205260409020600401805460ff19166001179055565b600081815260ff602052604090205481906001600160a01b0316611af0612847565b6001600160a01b031614611b5d5760405162461bcd60e51b815260206004820152602e60248201527f546869732066756e6374696f6e2063616e206f6e6c792062652063616c6c656460448201526d10313c903334b6329037bbb732b960911b6064820152608401610609565b610100546001600160a01b031663c7e1562c30611b78612847565b6040516001600160e01b031960e085901b1681526001600160a01b03928316600482015291166024820152604401602060405180830381600087803b158015611bc057600080fd5b505af1158015611bd4573d6000803e3d6000fd5b505050506040513d601f19601f82011682018060405250810190611bf89190613550565b611c445760405162461bcd60e51b815260206004820152601f60248201527f55736572206e6f74207265676973746572656420666f722074686520617070006044820152606401610609565b600082815260ff6020526040812080546001600160a01b031916815560018101829055600281018290556003810182905560048101805460ff1916905590611c8f60058301826131ef565b611c9d6006830160006131ef565b506000600782015560080180546001600160a01b031916905581611cbf612847565b6001600160a01b03167fa2acc0b1cda8647780f0900a02e0ba141277133ea27552fa350439c0b6684d2160405160405180910390a35050565b610100546001600160a01b031663c7e1562c30611d13612847565b6040516001600160e01b031960e085901b1681526001600160a01b03928316600482015291166024820152604401602060405180830381600087803b158015611d5b57600080fd5b505af1158015611d6f573d6000803e3d6000fd5b505050506040513d601f19601f82011682018060405250810190611d939190613550565b611ddf5760405162461bcd60e51b815260206004820152601f60248201527f55736572206e6f74207265676973746572656420666f722074686520617070006044820152606401610609565b600083815260fd6020908152604080832084845282528083206001600160a01b0386168452909152812090611e1482826131ef565b50600060019190910181905583815260fe6020908152604080832084845282528083208054825181850281018501909352808352611e9093830182828015611e8557602002820191906000526020600020905b81546001600160a01b03168152600190910190602001808311611e67575b505050505084612c5c565b600085815260fe60209081526040808320868452909152902080549192509082908110611ecd57634e487b7160e01b600052603260045260246000fd5b600091825260209091200180546001600160a01b03191690556001600160a01b03831684611ef9612847565b6001600160a01b03167f60cb99feacb32252ac712ece398c95440ae888fd3a720ce9f1b32077771612eb85604051611f3391815260200190565b60405180910390a450505050565b611f49612847565b6001600160a01b0316611f5a611ffa565b6001600160a01b031614611fb05760405162461bcd60e51b815260206004820181905260248201527f4f776e61626c653a2063616c6c6572206973206e6f7420746865206f776e65726044820152606401610609565b6097546040516000916001600160a01b0316907f8be0079c531659141344cd1fd0a4f28419497f9722a3daafe3b4186f6b6457e0908390a3609780546001600160a01b0319169055565b6097546001600160a01b03165b90565b60ff602081905260009182526040909120805460018201546002830154600384015460048501546005860180546001600160a01b0390961697949693959294919091169291612058906139f5565b80601f0160208091040260200160405190810160405280929190818152602001828054612084906139f5565b80156120d15780601f106120a6576101008083540402835291602001916120d1565b820191906000526020600020905b8154815290600101906020018083116120b457829003601f168201915b5050505050908060060180546120e6906139f5565b80601f0160208091040260200160405190810160405280929190818152602001828054612112906139f5565b801561215f5780601f106121345761010080835404028352916020019161215f565b820191906000526020600020905b81548152906001019060200180831161214257829003601f168201915b5050505060078301546008909301549192916001600160a01b0316905089565b60fe60205282600052604060002060205281600052604060002081815481106121a757600080fd5b6000918252602090912001546001600160a01b0316925083915050565b600082815260ff602052604081205483906001600160a01b03166121e6612847565b6001600160a01b0316146122535760405162461bcd60e51b815260206004820152602e60248201527f546869732066756e6374696f6e2063616e206f6e6c792062652063616c6c656460448201526d10313c903334b6329037bbb732b960911b6064820152608401610609565b610100546001600160a01b031663c7e1562c3061226e612847565b6040516001600160e01b031960e085901b1681526001600160a01b03928316600482015291166024820152604401602060405180830381600087803b1580156122b657600080fd5b505af11580156122ca573d6000803e3d6000fd5b505050506040513d601f19601f820116820180604052508101906122ee9190613550565b61233a5760405162461bcd60e51b815260206004820152601f60248201527f55736572206e6f74207265676973746572656420666f722074686520617070006044820152606401610609565b6001600160a01b0383166123905760405162461bcd60e51b815260206004820152600f60248201527f496e76616c6964206164647265737300000000000000000000000000000000006044820152606401610609565b600084815260ff6020526040902080546001600160a01b0385166001600160a01b0319909116179055600191505092915050565b60408051610120810182526000808252602080830182905282840182905260608084018390526080840183905260a0840181905260c084015260e08301829052610100830182905285825260fd815283822085835290529182209091908161242a612847565b6001600160a01b03166001600160a01b03168152602001908152602001600020604051806040016040529081600082018054612465906139f5565b80601f0160208091040260200160405190810160405280929190818152602001828054612491906139f5565b80156124de5780601f106124b3576101008083540402835291602001916124de565b820191906000526020600020905b8154815290600101906020018083116124c157829003601f168201915b5050509183525050600191820154602091820152600087815260ff808352604080832081516101208101835281546001600160a01b0316815295810154948601949094526002840154908501526003830154606085015260048301541615156080840152600582018054949550909360a08401919061255c906139f5565b80601f0160208091040260200160405190810160405280929190818152602001828054612588906139f5565b80156125d55780601f106125aa576101008083540402835291602001916125d5565b820191906000526020600020905b8154815290600101906020018083116125b857829003601f168201915b505050505081526020016006820180546125ee906139f5565b80601f016020809104026020016040519081016040528092919081815260200182805461261a906139f5565b80156126675780601f1061263c57610100808354040283529160200191612667565b820191906000526020600020905b81548152906001019060200180831161264a57829003601f168201915b5050509183525050600782015460208201526008909101546001600160a01b039081166040909201919091528151919250166126a1612847565b6001600160a01b0316146126f85760208201516126f05760405162461bcd60e51b815260206004820152600d60248201526c056616c6964697479206973203609c1b6044820152606401610609565b815160c08201525b949350505050565b612708612847565b6001600160a01b0316612719611ffa565b6001600160a01b03161461276f5760405162461bcd60e51b815260206004820181905260248201527f4f776e61626c653a2063616c6c6572206973206e6f7420746865206f776e65726044820152606401610609565b6001600160a01b0381166127eb5760405162461bcd60e51b815260206004820152602660248201527f4f776e61626c653a206e6577206f776e657220697320746865207a65726f206160448201527f64647265737300000000000000000000000000000000000000000000000000006064820152608401610609565b6097546040516001600160a01b038084169216907f8be0079c531659141344cd1fd0a4f28419497f9722a3daafe3b4186f6b6457e090600090a3609780546001600160a01b0319166001600160a01b0392909216919091179055565b600061285233611697565b15612866575060131936013560601c612007565b61286e612cb2565b9050612007565b61287d612847565b6001600160a01b031661288e611ffa565b6001600160a01b031614610f3d5760405162461bcd60e51b815260206004820181905260248201527f4f776e61626c653a2063616c6c6572206973206e6f7420746865206f776e65726044820152606401610609565b60006129177f360894a13ba1a3210667c828492db98dca3e2076cc3735a920a3ca505d382bbc546001600160a01b031690565b905061292284612cd7565b60008351118061292f5750815b156129405761293e8484612d8c565b505b7f4910fdfa16fed3260ed0e7147f7cc6da11a60208b5b9406d12a635614ffd9143805460ff16612abd57805460ff191660011781556040516001600160a01b03831660248201526129d490869060440160408051601f198184030181529190526020810180517bffffffffffffffffffffffffffffffffffffffffffffffffffffffff16631b2ce7f360e11b179052612d8c565b50805460ff191681557f360894a13ba1a3210667c828492db98dca3e2076cc3735a920a3ca505d382bbc546001600160a01b03838116911614612a7f5760405162461bcd60e51b815260206004820152602f60248201527f45524331393637557067726164653a207570677261646520627265616b73206660448201527f75727468657220757067726164657300000000000000000000000000000000006064820152608401610609565b612a8885612cd7565b6040516001600160a01b038616907fbc7cd75a20ee27fd9adebab32041f755214dbc6bffa90cc0225b39da2e5c2d3b90600090a25b5050505050565b600054610100900460ff1680612add575060005460ff16155b612b405760405162461bcd60e51b815260206004820152602e60248201527f496e697469616c697a61626c653a20636f6e747261637420697320616c72656160448201526d191e481a5b9a5d1a585b1a5e995960921b6064820152608401610609565b600054610100900460ff16158015612b6b576000805460ff1961ff0019909116610100171660011790555b612b73612e8e565b612b7b612f48565b8015610f3d576000805461ff001916905550565b600054610100900460ff1680612ba8575060005460ff16155b612c0b5760405162461bcd60e51b815260206004820152602e60248201527f496e697469616c697a61626c653a20636f6e747261637420697320616c72656160448201526d191e481a5b9a5d1a585b1a5e995960921b6064820152608401610609565b600054610100900460ff16158015612c36576000805460ff1961ff0019909116610100171660011790555b612c3e612e8e565b612c478261305b565b8015611693576000805461ff00191690555050565b6000805b826001600160a01b0316848281518110612c8a57634e487b7160e01b600052603260045260246000fd5b60200260200101516001600160a01b0316146119a75780612caa81613a30565b915050612c60565b6000612cbd33611697565b15612cd1575060131936013560601c612007565b3361286e565b803b612d4b5760405162461bcd60e51b815260206004820152602d60248201527f455243313936373a206e657720696d706c656d656e746174696f6e206973206e60448201527f6f74206120636f6e7472616374000000000000000000000000000000000000006064820152608401610609565b7f360894a13ba1a3210667c828492db98dca3e2076cc3735a920a3ca505d382bbc80546001600160a01b0319166001600160a01b0392909216919091179055565b6060823b612e025760405162461bcd60e51b815260206004820152602660248201527f416464726573733a2064656c65676174652063616c6c20746f206e6f6e2d636f60448201527f6e747261637400000000000000000000000000000000000000000000000000006064820152608401610609565b600080846001600160a01b031684604051612e1d919061379b565b600060405180830381855af49150503d8060008114612e58576040519150601f19603f3d011682016040523d82523d6000602084013e612e5d565b606091505b5091509150612e858282604051806060016040528060278152602001613a7860279139613132565b95945050505050565b600054610100900460ff1680612ea7575060005460ff16155b612f0a5760405162461bcd60e51b815260206004820152602e60248201527f496e697469616c697a61626c653a20636f6e747261637420697320616c72656160448201526d191e481a5b9a5d1a585b1a5e995960921b6064820152608401610609565b600054610100900460ff16158015612b7b576000805460ff1961ff0019909116610100171660011790558015610f3d576000805461ff001916905550565b600054610100900460ff1680612f61575060005460ff16155b612fc45760405162461bcd60e51b815260206004820152602e60248201527f496e697469616c697a61626c653a20636f6e747261637420697320616c72656160448201526d191e481a5b9a5d1a585b1a5e995960921b6064820152608401610609565b600054610100900460ff16158015612fef576000805460ff1961ff0019909116610100171660011790555b6000612ff9612847565b609780546001600160a01b0319166001600160a01b038316908117909155604051919250906000907f8be0079c531659141344cd1fd0a4f28419497f9722a3daafe3b4186f6b6457e0908290a3508015610f3d576000805461ff001916905550565b600054610100900460ff1680613074575060005460ff16155b6130d75760405162461bcd60e51b815260206004820152602e60248201527f496e697469616c697a61626c653a20636f6e747261637420697320616c72656160448201526d191e481a5b9a5d1a585b1a5e995960921b6064820152608401610609565b600054610100900460ff16158015613102576000805460ff1961ff0019909116610100171660011790555b60c980546001600160a01b0319166001600160a01b0384161790558015611693576000805461ff00191690555050565b606083156131415750816119a7565b8251156131515782518084602001fd5b8160405162461bcd60e51b81526004016106099190613899565b828054613177906139f5565b90600052602060002090601f01602090048101928261319957600085556131df565b82601f106131b257805160ff19168380011785556131df565b828001600101855582156131df579182015b828111156131df5782518255916020019190600101906131c4565b506131eb929150613227565b5090565b5080546131fb906139f5565b6000825580601f1061320d5750610f3d565b601f016020900490600052602060002090810190610f3d91905b5b808211156131eb5760008155600101613228565b600067ffffffffffffffff83111561325657613256613a61565b613269601f8401601f191660200161395c565b905082815283838301111561327d57600080fd5b828260208301376000602084830101529392505050565b80356001600160a01b03811681146116a957600080fd5b600082601f8301126132bb578081fd5b813560206132d06132cb8361398d565b61395c565b82815281810190858301838502870184018810156132ec578586fd5b855b85811015613311576132ff82613294565b845292840192908401906001016132ee565b5090979650505050505050565b600082601f83011261332e578081fd5b8135602061333e6132cb8361398d565b828152818101908583018385028701840188101561335a578586fd5b855b858110156133115781358452928401929084019060010161335c565b600082601f830112613388578081fd5b813560206133986132cb8361398d565b82815281810190858301855b85811015613311576133bb898684358b01016133cd565b845292840192908401906001016133a4565b600082601f8301126133dd578081fd5b6119a78383356020850161323c565b6000602082840312156133fd578081fd5b6119a782613294565b60008060006060848603121561341a578182fd5b61342384613294565b95602085013595506040909401359392505050565b6000806040838503121561344a578182fd5b61345383613294565b9150602083013567ffffffffffffffff81111561346e578182fd5b61347a858286016133cd565b9150509250929050565b600080600080600060a0868803121561349b578081fd5b853567ffffffffffffffff808211156134b2578283fd5b6134be89838a0161331e565b965060208801359150808211156134d3578283fd5b6134df89838a016132ab565b955060408801359150808211156134f4578283fd5b61350089838a0161331e565b94506060880135915080821115613515578283fd5b61352189838a01613378565b93506080880135915080821115613536578283fd5b506135438882890161331e565b9150509295509295909350565b600060208284031215613561578081fd5b815180151581146119a7578182fd5b600060208284031215613581578081fd5b5035919050565b6000806040838503121561359a578182fd5b823591506135aa60208401613294565b90509250929050565b6000806000606084860312156135c7578081fd5b833592506135d760208501613294565b9150604084013590509250925092565b600080604083850312156135f9578182fd5b50508035926020909101359150565b60008060006060848603121561361c578081fd5b833592506020840135915061363360408501613294565b90509250925092565b600080600060608486031215613650578081fd5b505081359360208301359350604090920135919050565b600080600080600080600080610100898b031215613683578586fd5b88359750602089013596506040890135955060608901359450608089013567ffffffffffffffff808211156136b6578485fd5b6136c28c838d016133cd565b955060a08b01359150808211156136d7578485fd5b506136e48b828c016133cd565b93505060c089013591506136fa60e08a01613294565b90509295985092959890939650565b60008060006060848603121561371d578081fd5b833567ffffffffffffffff811115613733578182fd5b8401601f81018613613743578182fd5b6137528682356020840161323c565b93505061376160208501613294565b915061363360408501613294565b600081518084526137878160208601602086016139c9565b601f01601f19169290920160200192915050565b600082516137ad8184602087016139c9565b9190910192915050565b60006101206001600160a01b03808d1684528b60208501528a604085015289606085015288151560808501528160a08501526137f58285018961376f565b915083820360c0850152613809828861376f565b92508560e085015280851661010085015250509a9950505050505050505050565b6020808252825182820181905260009190848201906040850190845b8181101561386b5783516001600160a01b031683529284019291840191600101613846565b50909695505050505050565b60006040825261388a604083018561376f565b90508260208301529392505050565b6000602082526119a7602083018461376f565b6000602082526138c86020830184516001600160a01b03169052565b60208301516040830152604083015160608301526060830151608083015260808301516138f960a084018215159052565b5060a08301516101208060c085015261391661014085018361376f565b915060c0850151601f198584030160e0860152613933838261376f565b60e087015161010087810191909152909601516001600160a01b03169190940152509192915050565b604051601f8201601f1916810167ffffffffffffffff8111828210171561398557613985613a61565b604052919050565b600067ffffffffffffffff8211156139a7576139a7613a61565b5060209081020190565b600082198211156139c4576139c4613a4b565b500190565b60005b838110156139e45781810151838201526020016139cc565b838111156116785750506000910152565b600281046001821680613a0957607f821691505b60208210811415613a2a57634e487b7160e01b600052602260045260246000fd5b50919050565b6000600019821415613a4457613a44613a4b565b5060010190565b634e487b7160e01b600052601160045260246000fd5b634e487b7160e01b600052604160045260246000fdfe416464726573733a206c6f772d6c6576656c2064656c65676174652063616c6c206661696c6564a164736f6c6343000802000a",
  "linkReferences": {},
  "deployedLinkReferences": {}
}