{
  "_format": "hh-sol-artifact-1",
  "contractName": "Arcana",
  "sourceName": "contracts/Arcana.sol",
  "abi": [
    {
      "anonymous": false,
      "inputs": [
        {
          "indexed": false,
          "internalType": "address",
          "name": "previousAdmin",
          "type": "address"
        },
        {
          "indexed": false,
          "internalType": "address",
          "name": "newAdmin",
          "type": "address"
        }
      ],
      "name": "AdminChanged",
      "type": "event"
    },
    {
      "anonymous": false,
      "inputs": [
        {
          "indexed": true,
          "internalType": "address",
          "name": "beacon",
          "type": "address"
        }
      ],
      "name": "BeaconUpgraded",
      "type": "event"
    },
    {
      "anonymous": false,
      "inputs": [
        {
          "indexed": true,
          "internalType": "address",
          "name": "identity",
          "type": "address"
        },
        {
          "indexed": true,
          "internalType": "bytes32",
          "name": "file",
          "type": "bytes32"
        }
      ],
      "name": "DeleteFileEvent",
      "type": "event"
    },
    {
      "anonymous": false,
      "inputs": [
        {
          "indexed": true,
          "internalType": "address",
          "name": "identity",
          "type": "address"
        },
        {
          "indexed": true,
          "internalType": "bytes32",
          "name": "file",
          "type": "bytes32"
        },
        {
          "indexed": false,
          "internalType": "uint256",
          "name": "n",
          "type": "uint256"
        },
        {
          "indexed": false,
          "internalType": "uint256",
          "name": "k",
          "type": "uint256"
        },
        {
          "indexed": false,
          "internalType": "uint256",
          "name": "fileSize",
          "type": "uint256"
        }
      ],
      "name": "NewFileUpdate",
      "type": "event"
    },
    {
      "anonymous": false,
      "inputs": [
        {
          "indexed": true,
          "internalType": "address",
          "name": "identity",
          "type": "address"
        },
        {
          "indexed": true,
          "internalType": "bytes32",
          "name": "file",
          "type": "bytes32"
        },
        {
          "indexed": false,
          "internalType": "uint256",
          "name": "validity",
          "type": "uint256"
        },
        {
          "indexed": false,
          "internalType": "bytes32",
          "name": "accessType",
          "type": "bytes32"
        },
        {
          "indexed": false,
          "internalType": "address",
          "name": "excutor",
          "type": "address"
        }
      ],
      "name": "NewPermissionCheck",
      "type": "event"
    },
    {
      "anonymous": false,
      "inputs": [
        {
          "indexed": true,
          "internalType": "address",
          "name": "identity",
          "type": "address"
        },
        {
          "indexed": true,
          "internalType": "bytes32",
          "name": "file",
          "type": "bytes32"
        },
        {
          "indexed": true,
          "internalType": "address",
          "name": "user",
          "type": "address"
        },
        {
          "indexed": false,
          "internalType": "bytes32",
          "name": "accessType",
          "type": "bytes32"
        },
        {
          "indexed": false,
          "internalType": "uint256",
          "name": "validity",
          "type": "uint256"
        }
      ],
      "name": "NewShare",
      "type": "event"
    },
    {
      "anonymous": false,
      "inputs": [
        {
          "indexed": true,
          "internalType": "address",
          "name": "identity",
          "type": "address"
        },
        {
          "indexed": true,
          "internalType": "bytes32",
          "name": "file",
          "type": "bytes32"
        },
        {
          "indexed": true,
          "internalType": "address",
          "name": "user",
          "type": "address"
        },
        {
          "indexed": false,
          "internalType": "bytes32",
          "name": "accessType",
          "type": "bytes32"
        }
      ],
      "name": "NewUpdateACK",
      "type": "event"
    },
    {
      "anonymous": false,
      "inputs": [
        {
          "indexed": true,
          "internalType": "address",
          "name": "previousOwner",
          "type": "address"
        },
        {
          "indexed": true,
          "internalType": "address",
          "name": "newOwner",
          "type": "address"
        }
      ],
      "name": "OwnershipTransferred",
      "type": "event"
    },
    {
      "anonymous": false,
      "inputs": [
        {
          "indexed": true,
          "internalType": "address",
          "name": "implementation",
          "type": "address"
        }
      ],
      "name": "Upgraded",
      "type": "event"
    },
    {
      "inputs": [
        {
          "internalType": "bytes32",
          "name": "",
          "type": "bytes32"
        },
        {
          "internalType": "bytes32",
          "name": "",
          "type": "bytes32"
        },
        {
          "internalType": "address",
          "name": "",
          "type": "address"
        }
      ],
      "name": "accessSpecifier",
      "outputs": [
        {
          "internalType": "uint256",
          "name": "",
          "type": "uint256"
        }
      ],
      "stateMutability": "view",
      "type": "function"
    },
    {
      "inputs": [],
      "name": "appName",
      "outputs": [
        {
          "internalType": "string",
          "name": "",
          "type": "string"
        }
      ],
      "stateMutability": "view",
      "type": "function"
    },
    {
      "inputs": [
        {
          "internalType": "bytes32",
          "name": "_file",
          "type": "bytes32"
        },
        {
          "internalType": "address",
          "name": "_newOwner",
          "type": "address"
        }
      ],
      "name": "changeFileOwner",
      "outputs": [
        {
          "internalType": "bool",
          "name": "",
          "type": "bool"
        }
      ],
      "stateMutability": "nonpayable",
      "type": "function"
    },
    {
      "inputs": [
        {
          "internalType": "address",
          "name": "_identity",
          "type": "address"
        },
        {
          "internalType": "bytes32",
          "name": "_file",
          "type": "bytes32"
        },
        {
          "internalType": "bytes32",
          "name": "_accessType",
          "type": "bytes32"
        }
      ],
      "name": "checkPermission",
      "outputs": [
        {
          "internalType": "uint256",
          "name": "",
          "type": "uint256"
        }
      ],
      "stateMutability": "nonpayable",
      "type": "function"
    },
    {
      "inputs": [
        {
          "internalType": "bytes32",
          "name": "_file",
          "type": "bytes32"
        }
      ],
      "name": "deleteFile",
      "outputs": [],
      "stateMutability": "nonpayable",
      "type": "function"
    },
    {
      "inputs": [],
      "name": "factory",
      "outputs": [
        {
          "internalType": "contract FactoryInterface",
          "name": "",
          "type": "address"
        }
      ],
      "stateMutability": "view",
      "type": "function"
    },
    {
      "inputs": [
        {
          "internalType": "bytes32",
          "name": "",
          "type": "bytes32"
        }
      ],
      "name": "files",
      "outputs": [
        {
          "internalType": "address",
          "name": "owner",
          "type": "address"
        },
        {
          "internalType": "uint256",
          "name": "n",
          "type": "uint256"
        },
        {
          "internalType": "uint256",
          "name": "k",
          "type": "uint256"
        },
        {
          "internalType": "uint256",
          "name": "fileSize",
          "type": "uint256"
        },
        {
          "internalType": "bool",
          "name": "uploaded",
          "type": "bool"
        },
        {
          "internalType": "bytes",
          "name": "encryptedMetaData",
          "type": "bytes"
        },
        {
          "internalType": "bytes",
          "name": "encryptedKey",
          "type": "bytes"
        },
        {
          "internalType": "address",
          "name": "storageNode",
          "type": "address"
        }
      ],
      "stateMutability": "view",
      "type": "function"
    },
    {
      "inputs": [
        {
          "internalType": "bytes32",
          "name": "_file",
          "type": "bytes32"
        },
        {
          "internalType": "bytes32",
          "name": "_accessType",
          "type": "bytes32"
        }
      ],
      "name": "getAllUsers",
      "outputs": [
        {
          "internalType": "address[]",
          "name": "",
          "type": "address[]"
        }
      ],
      "stateMutability": "view",
      "type": "function"
    },
    {
      "inputs": [
        {
          "internalType": "string",
          "name": "_appName",
          "type": "string"
        },
        {
          "internalType": "address",
          "name": "_factory",
          "type": "address"
        },
        {
          "internalType": "address",
          "name": "_relayer",
          "type": "address"
        }
      ],
      "name": "initialize",
      "outputs": [],
      "stateMutability": "nonpayable",
      "type": "function"
    },
    {
      "inputs": [
        {
          "internalType": "address",
          "name": "forwarder",
          "type": "address"
        }
      ],
      "name": "isTrustedForwarder",
      "outputs": [
        {
          "internalType": "bool",
          "name": "",
          "type": "bool"
        }
      ],
      "stateMutability": "view",
      "type": "function"
    },
    {
      "inputs": [],
      "name": "owner",
      "outputs": [
        {
          "internalType": "address",
          "name": "",
          "type": "address"
        }
      ],
      "stateMutability": "view",
      "type": "function"
    },
    {
      "inputs": [],
      "name": "renounceOwnership",
      "outputs": [],
      "stateMutability": "nonpayable",
      "type": "function"
    },
    {
      "inputs": [
        {
          "internalType": "bytes32",
          "name": "_file",
          "type": "bytes32"
        },
        {
          "internalType": "address",
          "name": "_user",
          "type": "address"
        },
        {
          "internalType": "bytes32",
          "name": "_accessType",
          "type": "bytes32"
        }
      ],
      "name": "revoke",
      "outputs": [],
      "stateMutability": "nonpayable",
      "type": "function"
    },
    {
      "inputs": [
        {
          "internalType": "bytes32[]",
          "name": "_files",
          "type": "bytes32[]"
        },
        {
          "internalType": "address[]",
          "name": "_user",
          "type": "address[]"
        },
        {
          "internalType": "bytes32[]",
          "name": "_accessType",
          "type": "bytes32[]"
        },
        {
          "internalType": "uint256[]",
          "name": "_validity",
          "type": "uint256[]"
        }
      ],
      "name": "share",
      "outputs": [],
      "stateMutability": "nonpayable",
      "type": "function"
    },
    {
      "inputs": [
        {
          "internalType": "bytes32[]",
          "name": "_files",
          "type": "bytes32[]"
        },
        {
          "internalType": "address[]",
          "name": "_user",
          "type": "address[]"
        },
        {
          "internalType": "bytes32[]",
          "name": "_accessType",
          "type": "bytes32[]"
        },
        {
          "internalType": "uint256[]",
          "name": "_validity",
          "type": "uint256[]"
        }
      ],
      "name": "shareUser",
      "outputs": [],
      "stateMutability": "nonpayable",
      "type": "function"
    },
    {
      "inputs": [
        {
          "internalType": "address",
          "name": "newOwner",
          "type": "address"
        }
      ],
      "name": "transferOwnership",
      "outputs": [],
      "stateMutability": "nonpayable",
      "type": "function"
    },
    {
      "inputs": [
        {
          "internalType": "address",
          "name": "newImplementation",
          "type": "address"
        }
      ],
      "name": "upgradeTo",
      "outputs": [],
      "stateMutability": "nonpayable",
      "type": "function"
    },
    {
      "inputs": [
        {
          "internalType": "address",
          "name": "newImplementation",
          "type": "address"
        },
        {
          "internalType": "bytes",
          "name": "data",
          "type": "bytes"
        }
      ],
      "name": "upgradeToAndCall",
      "outputs": [],
      "stateMutability": "payable",
      "type": "function"
    },
    {
      "inputs": [
        {
          "internalType": "bytes32",
          "name": "_file",
          "type": "bytes32"
        }
      ],
      "name": "uploadClose",
      "outputs": [],
      "stateMutability": "nonpayable",
      "type": "function"
    },
    {
      "inputs": [
        {
          "internalType": "bytes32",
          "name": "_file",
          "type": "bytes32"
        },
        {
          "internalType": "uint256",
          "name": "_n",
          "type": "uint256"
        },
        {
          "internalType": "uint256",
          "name": "_k",
          "type": "uint256"
        },
        {
          "internalType": "uint256",
          "name": "_fileSize",
          "type": "uint256"
        },
        {
          "internalType": "bytes",
          "name": "_encryptedMetaData",
          "type": "bytes"
        },
        {
          "internalType": "bytes",
          "name": "_encryptedKey",
          "type": "bytes"
        },
        {
          "internalType": "address",
          "name": "_storageNode",
          "type": "address"
        }
      ],
      "name": "uploadInit",
      "outputs": [],
      "stateMutability": "nonpayable",
      "type": "function"
    },
    {
      "inputs": [
        {
          "internalType": "bytes32",
          "name": "",
          "type": "bytes32"
        },
        {
          "internalType": "bytes32",
          "name": "",
          "type": "bytes32"
        },
        {
          "internalType": "uint256",
          "name": "",
          "type": "uint256"
        }
      ],
      "name": "userAccess",
      "outputs": [
        {
          "internalType": "address",
          "name": "",
          "type": "address"
        }
      ],
      "stateMutability": "view",
      "type": "function"
    }
  ],
  "bytecode": "0x608060405234801561001057600080fd5b5061340b806100206000396000f3fe60806040526004361061016a5760003560e01c80636ab799f1116100cb578063a056e1fd1161007f578063c5b2644711610059578063c5b264471461040f578063e45d8ba01461042f578063f2fde38b1461044f5761016a565b8063a056e1fd146103ae578063c12ed14f146103ce578063c45a0155146103ee5761016a565b8063715018a6116100b0578063715018a6146103385780638da5cb5b1461034d57806398c9adff1461037a5761016a565b80636ab799f1146102f85780636b2877d4146103185761016a565b8063572b6c05116101225780636184533f116101075780636184533f1461028b578063638b6add146102b857806363a15202146102d85761016a565b8063572b6c051461020f5780635f784b8a1461023f5761016a565b80633659cfe6116101535780633659cfe6146101bc578063463fd1af146101dc5780634f1ef286146101fc5761016a565b80630c97282c1461016f57806333dd1c0f1461019a575b600080fd5b34801561017b57600080fd5b5061018461046f565b60405161019191906132a9565b60405180910390f35b3480156101a657600080fd5b506101ba6101b5366004612e90565b6104fd565b005b3480156101c857600080fd5b506101ba6101d7366004612df8565b610ade565b3480156101e857600080fd5b506101ba6101f7366004613143565b610b05565b6101ba61020a366004612e44565b610c05565b34801561021b57600080fd5b5061022f61022a366004612df8565b610c1e565b6040519015158152602001610191565b34801561024b57600080fd5b5061027d61025a36600461304c565b60fd60209081526000938452604080852082529284528284209052825290205481565b604051908152602001610191565b34801561029757600080fd5b506102ab6102a636600461302b565b610c35565b604051610191919061325c565b3480156102c457600080fd5b5061027d6102d3366004612e12565b610d7f565b3480156102e457600080fd5b506101ba6102f3366004612fb4565b610e8a565b34801561030457600080fd5b506101ba610313366004612fb4565b610faa565b34801561032457600080fd5b506101ba610333366004612ff7565b6111c5565b34801561034457600080fd5b506101ba6113ed565b34801561035957600080fd5b506103626114a6565b6040516001600160a01b039091168152602001610191565b34801561038657600080fd5b5061039a610395366004612fb4565b6114b6565b6040516101919897969594939291906131f1565b3480156103ba57600080fd5b506101ba6103c93660046130ab565b611624565b3480156103da57600080fd5b506103626103e9366004613080565b6119b1565b3480156103fa57600080fd5b5061010054610362906001600160a01b031681565b34801561041b57600080fd5b5061022f61042a366004612fcc565b6119f6565b34801561043b57600080fd5b506101ba61044a366004612e90565b611bee565b34801561045b57600080fd5b506101ba61046a366004612df8565b6121c3565b60fc805461047c90613355565b80601f01602080910402602001604051908101604052809291908181526020018280546104a890613355565b80156104f55780601f106104ca576101008083540402835291602001916104f5565b820191906000526020600020905b8154815290600101906020018083116104d857829003601f168201915b505050505081565b610100546001600160a01b0316631f5bdf5d61051761230a565b6040516001600160e01b031960e084901b1681526001600160a01b039091166004820152602401602060405180830381600087803b15801561055857600080fd5b505af115801561056c573d6000803e3d6000fd5b505050506040513d601f19601f820116820180604052508101906105909190612f94565b6105e15760405162461bcd60e51b815260206004820152601f60248201527f55736572206e6f74207265676973746572656420666f7220746865206170700060448201526064015b60405180910390fd5b81518351146106585760405162461bcd60e51b815260206004820152603a60248201527f55736572206172726179206c656e67746820646f6573206e6f74206d6174636860448201527f65732077697468206163636573732074797065206c656e67746800000000000060648201526084016105d8565b80518351146106cf5760405162461bcd60e51b815260206004820152603760248201527f55736572206172726179206c656e67746820646f6573206e6f74206d6174636860448201527f657320776974682076616c6964697479206c656e67746800000000000000000060648201526084016105d8565b60005b8451811015610ad75760005b8451811015610ac45760ff600087838151811061070b57634e487b7160e01b600052603260045260246000fd5b6020908102919091018101518252810191909152604001600020546001600160a01b031661073761230a565b6001600160a01b03161461077e5760405162461bcd60e51b815260206004820152600e60248201526d2737ba103334b6329037bbb732b960911b60448201526064016105d8565b82818151811061079e57634e487b7160e01b600052603260045260246000fd5b6020026020010151600014156107f65760405162461bcd60e51b815260206004820152601960248201527f56616c6964697479206d757374206265206e6f6e207a65726f0000000000000060448201526064016105d8565b82818151811061081657634e487b7160e01b600052603260045260246000fd5b6020026020010151426108299190613311565b60fd600088858151811061084d57634e487b7160e01b600052603260045260246000fd5b60200260200101518152602001908152602001600020600086848151811061088557634e487b7160e01b600052603260045260246000fd5b6020026020010151815260200190815260200160002060008784815181106108bd57634e487b7160e01b600052603260045260246000fd5b60200260200101516001600160a01b03166001600160a01b031681526020019081526020016000208190555060fe600087848151811061090d57634e487b7160e01b600052603260045260246000fd5b60200260200101518152602001908152602001600020600085838151811061094557634e487b7160e01b600052603260045260246000fd5b6020026020010151815260200190815260200160002085828151811061097b57634e487b7160e01b600052603260045260246000fd5b60209081029190910181015182546001810184556000938452919092200180546001600160a01b0319166001600160a01b0390921691909117905584518590829081106109d857634e487b7160e01b600052603260045260246000fd5b60200260200101516001600160a01b0316868381518110610a0957634e487b7160e01b600052603260045260246000fd5b6020026020010151610a1961230a565b6001600160a01b03167f1ebaec2e787dc387c941232bf165b988dd5c126cd5f60b7215b6ece61bfbc879878581518110610a6357634e487b7160e01b600052603260045260246000fd5b6020026020010151878681518110610a8b57634e487b7160e01b600052603260045260246000fd5b6020026020010151604051610aaa929190918252602082015260400190565b60405180910390a480610abc81613390565b9150506106de565b5080610acf81613390565b9150506106d2565b5050505050565b610ae781612338565b610b02816040518060200160405280600081525060006123a7565b50565b600054610100900460ff1680610b1e575060005460ff16155b610b815760405162461bcd60e51b815260206004820152602e60248201527f496e697469616c697a61626c653a20636f6e747261637420697320616c72656160448201526d191e481a5b9a5d1a585b1a5e995960921b60648201526084016105d8565b600054610100900460ff16158015610bac576000805460ff1961ff0019909116610100171660011790555b610bb4612586565b8351610bc79060fc906020870190612c2d565b5061010080546001600160a01b0319166001600160a01b038516179055610bed82612651565b8015610bff576000805461ff00191690555b50505050565b610c0e82612338565b610c1a828260016123a7565b5050565b60c9546001600160a01b038281169116145b919050565b600082815260fe602090815260408083208484528252808320805482518185028101850190935280835260609493830182828015610c9c57602002820191906000526020600020905b81546001600160a01b03168152600190910190602001808311610c7e575b50505050509050600080600090505b8251811015610d7557600086815260fe602090815260408083208884529091529020805482908110610ced57634e487b7160e01b600052603260045260246000fd5b600091825260208083209091015488835260fd8252604080842089855283528084206001600160a01b03909216808552919092529120549092504210610d6357828181518110610d4d57634e487b7160e01b600052603260045260246000fd5b6020026020010160006001600160a01b03168152505b80610d6d81613390565b915050610cab565b5090949350505050565b600082815260fd6020908152604080832084845282528083206001600160a01b038088168086529184528285205487865260ff909452918420549091161415610dd657610dcf42620f4240613311565b9050610e23565b80610e235760405162461bcd60e51b815260206004820152600d60248201527f56616c696469747920697320300000000000000000000000000000000000000060448201526064016105d8565b83856001600160a01b03167f70de9db8c5fdf7217671fc4cc6008e066f9418ac0527a3422461e6ff4a3d8a4e8386610e5961230a565b6040805193845260208401929092526001600160a01b03169082015260600160405180910390a390505b9392505050565b600081815260ff60205260409020600701546001600160a01b0316610ead61230a565b6001600160a01b031614610f295760405162461bcd60e51b815260206004820152603860248201527f46756e6374696f6e2063616e206f6e6c792062652063616c6c6564206279207460448201527f68652061737369676e65642073746f72616765206e6f6465000000000000000060648201526084016105d8565b600081815260ff60208190526040909120600401541615610f8c5760405162461bcd60e51b815260206004820152601560248201527f46696c6520616c72656164792075706c6f61646564000000000000000000000060448201526064016105d8565b600090815260ff60205260409020600401805460ff19166001179055565b600081815260ff602052604090205481906001600160a01b0316610fcc61230a565b6001600160a01b0316146110395760405162461bcd60e51b815260206004820152602e60248201527f546869732066756e6374696f6e2063616e206f6e6c792062652063616c6c656460448201526d10313c903334b6329037bbb732b960911b60648201526084016105d8565b610100546001600160a01b0316631f5bdf5d61105361230a565b6040516001600160e01b031960e084901b1681526001600160a01b039091166004820152602401602060405180830381600087803b15801561109457600080fd5b505af11580156110a8573d6000803e3d6000fd5b505050506040513d601f19601f820116820180604052508101906110cc9190612f94565b6111185760405162461bcd60e51b815260206004820152601f60248201527f55736572206e6f74207265676973746572656420666f7220746865206170700060448201526064016105d8565b600082815260ff6020526040812080546001600160a01b031916815560018101829055600281018290556003810182905560048101805460ff19169055906111636005830182612cb1565b611171600683016000612cb1565b5060070180546001600160a01b03191690558161118c61230a565b6001600160a01b03167fa2acc0b1cda8647780f0900a02e0ba141277133ea27552fa350439c0b6684d2160405160405180910390a35050565b610100546001600160a01b0316631f5bdf5d6111df61230a565b6040516001600160e01b031960e084901b1681526001600160a01b039091166004820152602401602060405180830381600087803b15801561122057600080fd5b505af1158015611234573d6000803e3d6000fd5b505050506040513d601f19601f820116820180604052508101906112589190612f94565b6112a45760405162461bcd60e51b815260206004820152601f60248201527f55736572206e6f74207265676973746572656420666f7220746865206170700060448201526064016105d8565b600083815260fd6020908152604080832084845282528083206001600160a01b0386168452825280832083905585835260fe82528083208484528252808320805482518185028101850190935280835261133c9383018282801561133157602002820191906000526020600020905b81546001600160a01b03168152600190910190602001808311611313575b50505050508461271e565b600085815260fe6020908152604080832086845290915290208054919250908290811061137957634e487b7160e01b600052603260045260246000fd5b600091825260209091200180546001600160a01b03191690556001600160a01b038316846113a561230a565b6001600160a01b03167f60cb99feacb32252ac712ece398c95440ae888fd3a720ce9f1b32077771612eb856040516113df91815260200190565b60405180910390a450505050565b6113f561230a565b6001600160a01b03166114066114a6565b6001600160a01b03161461145c5760405162461bcd60e51b815260206004820181905260248201527f4f776e61626c653a2063616c6c6572206973206e6f7420746865206f776e657260448201526064016105d8565b6097546040516000916001600160a01b0316907f8be0079c531659141344cd1fd0a4f28419497f9722a3daafe3b4186f6b6457e0908390a3609780546001600160a01b0319169055565b6097546001600160a01b03165b90565b60ff602081905260009182526040909120805460018201546002830154600384015460048501546005860180546001600160a01b039096169794969395929491909116929161150490613355565b80601f016020809104026020016040519081016040528092919081815260200182805461153090613355565b801561157d5780601f106115525761010080835404028352916020019161157d565b820191906000526020600020905b81548152906001019060200180831161156057829003601f168201915b50505050509080600601805461159290613355565b80601f01602080910402602001604051908101604052809291908181526020018280546115be90613355565b801561160b5780601f106115e05761010080835404028352916020019161160b565b820191906000526020600020905b8154815290600101906020018083116115ee57829003601f168201915b505050600790930154919250506001600160a01b031688565b610100546001600160a01b0316631f5bdf5d61163e61230a565b6040516001600160e01b031960e084901b1681526001600160a01b039091166004820152602401602060405180830381600087803b15801561167f57600080fd5b505af1158015611693573d6000803e3d6000fd5b505050506040513d601f19601f820116820180604052508101906116b79190612f94565b6117035760405162461bcd60e51b815260206004820152601f60248201527f55736572206e6f74207265676973746572656420666f7220746865206170700060448201526064016105d8565b600087815260ff60205260409020546001600160a01b0316156117725760405162461bcd60e51b815260206004820152602160248201527f4f776e657220616c726561647920657869737420666f7220746869732066696c6044820152606560f81b60648201526084016105d8565b8486116117a75760405162461bcd60e51b81526020600482015260036024820152626e3e6b60e81b60448201526064016105d8565b600185116117f75760405162461bcd60e51b815260206004820152601160248201527f6b2073686f756c64206e6f74206265203000000000000000000000000000000060448201526064016105d8565b836118445760405162461bcd60e51b815260206004820152600f60248201527f53686f756c64206e6f742062652030000000000000000000000000000000000060448201526064016105d8565b60405180610100016040528061185861230a565b6001600160a01b03908116825260208083018a905260408084018a905260608085018a90526000608080870182905260a08088018c905260c088018b905289871660e0909801979097528e825260ff855290839020875181546001600160a01b0319169616959095178555868401516001860155918601516002850155850151600384015584015160048301805460ff1916911515919091179055918301518051919261190d92600585019290910190612c2d565b5060c08201518051611929916006840191602090910190612c2d565b5060e09190910151600790910180546001600160a01b0319166001600160a01b03928316179055600088815260ff60209081526040918290205482518a8152918201899052918101879052899291909116907fb927e45e3d8ce5bbdb784af6c44bcd63515f70a54ba86e21a3af868740a6a8659060600160405180910390a350505050505050565b60fe60205282600052604060002060205281600052604060002081815481106119d957600080fd5b6000918252602090912001546001600160a01b0316925083915050565b600082815260ff602052604081205483906001600160a01b0316611a1861230a565b6001600160a01b031614611a855760405162461bcd60e51b815260206004820152602e60248201527f546869732066756e6374696f6e2063616e206f6e6c792062652063616c6c656460448201526d10313c903334b6329037bbb732b960911b60648201526084016105d8565b610100546001600160a01b0316631f5bdf5d611a9f61230a565b6040516001600160e01b031960e084901b1681526001600160a01b039091166004820152602401602060405180830381600087803b158015611ae057600080fd5b505af1158015611af4573d6000803e3d6000fd5b505050506040513d601f19601f82011682018060405250810190611b189190612f94565b611b645760405162461bcd60e51b815260206004820152601f60248201527f55736572206e6f74207265676973746572656420666f7220746865206170700060448201526064016105d8565b6001600160a01b038316611bba5760405162461bcd60e51b815260206004820152600f60248201527f496e76616c69642061646472657373000000000000000000000000000000000060448201526064016105d8565b600084815260ff6020526040902080546001600160a01b0385166001600160a01b0319909116179055600191505092915050565b610100546001600160a01b0316631f5bdf5d611c0861230a565b6040516001600160e01b031960e084901b1681526001600160a01b039091166004820152602401602060405180830381600087803b158015611c4957600080fd5b505af1158015611c5d573d6000803e3d6000fd5b505050506040513d601f19601f82011682018060405250810190611c819190612f94565b611ccd5760405162461bcd60e51b815260206004820152601f60248201527f55736572206e6f74207265676973746572656420666f7220746865206170700060448201526064016105d8565b8151835114611d445760405162461bcd60e51b815260206004820152603a60248201527f55736572206172726179206c656e67746820646f6573206e6f74206d6174636860448201527f65732077697468206163636573732074797065206c656e67746800000000000060648201526084016105d8565b8051835114611dbb5760405162461bcd60e51b815260206004820152603760248201527f55736572206172726179206c656e67746820646f6573206e6f74206d6174636860448201527f657320776974682076616c6964697479206c656e67746800000000000000000060648201526084016105d8565b60005b8451811015610ad75760005b84518110156121b05760ff6000878381518110611df757634e487b7160e01b600052603260045260246000fd5b6020908102919091018101518252810191909152604001600020546001600160a01b0316611e2361230a565b6001600160a01b031614611e6a5760405162461bcd60e51b815260206004820152600e60248201526d2737ba103334b6329037bbb732b960911b60448201526064016105d8565b828281518110611e8a57634e487b7160e01b600052603260045260246000fd5b602002602001015160001415611ee25760405162461bcd60e51b815260206004820152601960248201527f56616c6964697479206d757374206265206e6f6e207a65726f0000000000000060448201526064016105d8565b828281518110611f0257634e487b7160e01b600052603260045260246000fd5b602002602001015142611f159190613311565b60fd6000888581518110611f3957634e487b7160e01b600052603260045260246000fd5b602002602001015181526020019081526020016000206000868581518110611f7157634e487b7160e01b600052603260045260246000fd5b602002602001015181526020019081526020016000206000878481518110611fa957634e487b7160e01b600052603260045260246000fd5b60200260200101516001600160a01b03166001600160a01b031681526020019081526020016000208190555060fe6000878481518110611ff957634e487b7160e01b600052603260045260246000fd5b60200260200101518152602001908152602001600020600085848151811061203157634e487b7160e01b600052603260045260246000fd5b6020026020010151815260200190815260200160002085828151811061206757634e487b7160e01b600052603260045260246000fd5b60209081029190910181015182546001810184556000938452919092200180546001600160a01b0319166001600160a01b0390921691909117905584518590829081106120c457634e487b7160e01b600052603260045260246000fd5b60200260200101516001600160a01b03168683815181106120f557634e487b7160e01b600052603260045260246000fd5b602002602001015161210561230a565b6001600160a01b03167f1ebaec2e787dc387c941232bf165b988dd5c126cd5f60b7215b6ece61bfbc87987858151811061214f57634e487b7160e01b600052603260045260246000fd5b602002602001015187868151811061217757634e487b7160e01b600052603260045260246000fd5b6020026020010151604051612196929190918252602082015260400190565b60405180910390a4806121a881613390565b915050611dca565b50806121bb81613390565b915050611dbe565b6121cb61230a565b6001600160a01b03166121dc6114a6565b6001600160a01b0316146122325760405162461bcd60e51b815260206004820181905260248201527f4f776e61626c653a2063616c6c6572206973206e6f7420746865206f776e657260448201526064016105d8565b6001600160a01b0381166122ae5760405162461bcd60e51b815260206004820152602660248201527f4f776e61626c653a206e6577206f776e657220697320746865207a65726f206160448201527f646472657373000000000000000000000000000000000000000000000000000060648201526084016105d8565b6097546040516001600160a01b038084169216907f8be0079c531659141344cd1fd0a4f28419497f9722a3daafe3b4186f6b6457e090600090a3609780546001600160a01b0319166001600160a01b0392909216919091179055565b600061231533610c1e565b15612329575060131936013560601c6114b3565b612331612774565b90506114b3565b61234061230a565b6001600160a01b03166123516114a6565b6001600160a01b031614610b025760405162461bcd60e51b815260206004820181905260248201527f4f776e61626c653a2063616c6c6572206973206e6f7420746865206f776e657260448201526064016105d8565b60006123da7f360894a13ba1a3210667c828492db98dca3e2076cc3735a920a3ca505d382bbc546001600160a01b031690565b90506123e584612799565b6000835111806123f25750815b1561240357612401848461284e565b505b7f4910fdfa16fed3260ed0e7147f7cc6da11a60208b5b9406d12a635614ffd9143805460ff16610ad757805460ff191660011781556040516001600160a01b038316602482015261249790869060440160408051601f198184030181529190526020810180517bffffffffffffffffffffffffffffffffffffffffffffffffffffffff16631b2ce7f360e11b17905261284e565b50805460ff191681557f360894a13ba1a3210667c828492db98dca3e2076cc3735a920a3ca505d382bbc546001600160a01b038381169116146125425760405162461bcd60e51b815260206004820152602f60248201527f45524331393637557067726164653a207570677261646520627265616b73206660448201527f757274686572207570677261646573000000000000000000000000000000000060648201526084016105d8565b61254b85612799565b6040516001600160a01b038616907fbc7cd75a20ee27fd9adebab32041f755214dbc6bffa90cc0225b39da2e5c2d3b90600090a25050505050565b600054610100900460ff168061259f575060005460ff16155b6126025760405162461bcd60e51b815260206004820152602e60248201527f496e697469616c697a61626c653a20636f6e747261637420697320616c72656160448201526d191e481a5b9a5d1a585b1a5e995960921b60648201526084016105d8565b600054610100900460ff1615801561262d576000805460ff1961ff0019909116610100171660011790555b612635612950565b61263d612a0a565b8015610b02576000805461ff001916905550565b600054610100900460ff168061266a575060005460ff16155b6126cd5760405162461bcd60e51b815260206004820152602e60248201527f496e697469616c697a61626c653a20636f6e747261637420697320616c72656160448201526d191e481a5b9a5d1a585b1a5e995960921b60648201526084016105d8565b600054610100900460ff161580156126f8576000805460ff1961ff0019909116610100171660011790555b612700612950565b61270982612b1d565b8015610c1a576000805461ff00191690555050565b6000805b826001600160a01b031684828151811061274c57634e487b7160e01b600052603260045260246000fd5b60200260200101516001600160a01b031614610e83578061276c81613390565b915050612722565b600061277f33610c1e565b15612793575060131936013560601c6114b3565b33612331565b803b61280d5760405162461bcd60e51b815260206004820152602d60248201527f455243313936373a206e657720696d706c656d656e746174696f6e206973206e60448201527f6f74206120636f6e74726163740000000000000000000000000000000000000060648201526084016105d8565b7f360894a13ba1a3210667c828492db98dca3e2076cc3735a920a3ca505d382bbc80546001600160a01b0319166001600160a01b0392909216919091179055565b6060823b6128c45760405162461bcd60e51b815260206004820152602660248201527f416464726573733a2064656c65676174652063616c6c20746f206e6f6e2d636f60448201527f6e7472616374000000000000000000000000000000000000000000000000000060648201526084016105d8565b600080846001600160a01b0316846040516128df91906131d5565b600060405180830381855af49150503d806000811461291a576040519150601f19603f3d011682016040523d82523d6000602084013e61291f565b606091505b509150915061294782826040518060600160405280602781526020016133d860279139612bf4565b95945050505050565b600054610100900460ff1680612969575060005460ff16155b6129cc5760405162461bcd60e51b815260206004820152602e60248201527f496e697469616c697a61626c653a20636f6e747261637420697320616c72656160448201526d191e481a5b9a5d1a585b1a5e995960921b60648201526084016105d8565b600054610100900460ff1615801561263d576000805460ff1961ff0019909116610100171660011790558015610b02576000805461ff001916905550565b600054610100900460ff1680612a23575060005460ff16155b612a865760405162461bcd60e51b815260206004820152602e60248201527f496e697469616c697a61626c653a20636f6e747261637420697320616c72656160448201526d191e481a5b9a5d1a585b1a5e995960921b60648201526084016105d8565b600054610100900460ff16158015612ab1576000805460ff1961ff0019909116610100171660011790555b6000612abb61230a565b609780546001600160a01b0319166001600160a01b038316908117909155604051919250906000907f8be0079c531659141344cd1fd0a4f28419497f9722a3daafe3b4186f6b6457e0908290a3508015610b02576000805461ff001916905550565b600054610100900460ff1680612b36575060005460ff16155b612b995760405162461bcd60e51b815260206004820152602e60248201527f496e697469616c697a61626c653a20636f6e747261637420697320616c72656160448201526d191e481a5b9a5d1a585b1a5e995960921b60648201526084016105d8565b600054610100900460ff16158015612bc4576000805460ff1961ff0019909116610100171660011790555b60c980546001600160a01b0319166001600160a01b0384161790558015610c1a576000805461ff00191690555050565b60608315612c03575081610e83565b825115612c135782518084602001fd5b8160405162461bcd60e51b81526004016105d891906132a9565b828054612c3990613355565b90600052602060002090601f016020900481019282612c5b5760008555612ca1565b82601f10612c7457805160ff1916838001178555612ca1565b82800160010185558215612ca1579182015b82811115612ca1578251825591602001919060010190612c86565b50612cad929150612ce9565b5090565b508054612cbd90613355565b6000825580601f10612ccf5750610b02565b601f016020900490600052602060002090810190610b0291905b5b80821115612cad5760008155600101612cea565b600067ffffffffffffffff831115612d1857612d186133c1565b612d2b601f8401601f19166020016132bc565b9050828152838383011115612d3f57600080fd5b828260208301376000602084830101529392505050565b80356001600160a01b0381168114610c3057600080fd5b600082601f830112612d7d578081fd5b81356020612d92612d8d836132ed565b6132bc565b8281528181019085830183850287018401881015612dae578586fd5b855b85811015612dcc57813584529284019290840190600101612db0565b5090979650505050505050565b600082601f830112612de9578081fd5b610e8383833560208501612cfe565b600060208284031215612e09578081fd5b610e8382612d56565b600080600060608486031215612e26578182fd5b612e2f84612d56565b95602085013595506040909401359392505050565b60008060408385031215612e56578182fd5b612e5f83612d56565b9150602083013567ffffffffffffffff811115612e7a578182fd5b612e8685828601612dd9565b9150509250929050565b60008060008060808587031215612ea5578081fd5b843567ffffffffffffffff80821115612ebc578283fd5b612ec888838901612d6d565b9550602091508187013581811115612ede578384fd5b8701601f81018913612eee578384fd5b8035612efc612d8d826132ed565b81815284810190838601868402850187018d1015612f18578788fd5b8794505b83851015612f4157612f2d81612d56565b835260019490940193918601918601612f1c565b5097505050506040870135915080821115612f5a578283fd5b612f6688838901612d6d565b93506060870135915080821115612f7b578283fd5b50612f8887828801612d6d565b91505092959194509250565b600060208284031215612fa5578081fd5b81518015158114610e83578182fd5b600060208284031215612fc5578081fd5b5035919050565b60008060408385031215612fde578182fd5b82359150612fee60208401612d56565b90509250929050565b60008060006060848603121561300b578283fd5b8335925061301b60208501612d56565b9150604084013590509250925092565b6000806040838503121561303d578182fd5b50508035926020909101359150565b600080600060608486031215613060578081fd5b833592506020840135915061307760408501612d56565b90509250925092565b600080600060608486031215613094578081fd5b505081359360208301359350604090920135919050565b600080600080600080600060e0888a0312156130c5578485fd5b87359650602088013595506040880135945060608801359350608088013567ffffffffffffffff808211156130f8578485fd5b6131048b838c01612dd9565b945060a08a0135915080821115613119578384fd5b506131268a828b01612dd9565b92505061313560c08901612d56565b905092959891949750929550565b600080600060608486031215613157578081fd5b833567ffffffffffffffff81111561316d578182fd5b8401601f8101861361317d578182fd5b61318c86823560208401612cfe565b93505061319b60208501612d56565b915061307760408501612d56565b600081518084526131c1816020860160208601613329565b601f01601f19169290920160200192915050565b600082516131e7818460208701613329565b9190910192915050565b60006101006001600160a01b03808c1684528a602085015289604085015288606085015287151560808501528160a085015261322f828501886131a9565b915083820360c085015261324382876131a9565b925080851660e085015250509998505050505050505050565b6020808252825182820181905260009190848201906040850190845b8181101561329d5783516001600160a01b031683529284019291840191600101613278565b50909695505050505050565b600060208252610e8360208301846131a9565b604051601f8201601f1916810167ffffffffffffffff811182821017156132e5576132e56133c1565b604052919050565b600067ffffffffffffffff821115613307576133076133c1565b5060209081020190565b60008219821115613324576133246133ab565b500190565b60005b8381101561334457818101518382015260200161332c565b83811115610bff5750506000910152565b60028104600182168061336957607f821691505b6020821081141561338a57634e487b7160e01b600052602260045260246000fd5b50919050565b60006000198214156133a4576133a46133ab565b5060010190565b634e487b7160e01b600052601160045260246000fd5b634e487b7160e01b600052604160045260246000fdfe416464726573733a206c6f772d6c6576656c2064656c65676174652063616c6c206661696c6564a164736f6c6343000802000a",
  "linkReferences": {},
  "deployedLinkReferences": {}
}