{
  "_format": "hh-sol-artifact-1",
  "contractName": "Arcana",
  "sourceName": "contracts/Arcana.sol",
  "abi": [
    {
      "anonymous": false,
      "inputs": [
        {
          "indexed": false,
          "internalType": "address",
          "name": "previousAdmin",
          "type": "address"
        },
        {
          "indexed": false,
          "internalType": "address",
          "name": "newAdmin",
          "type": "address"
        }
      ],
      "name": "AdminChanged",
      "type": "event"
    },
    {
      "anonymous": false,
      "inputs": [
        {
          "indexed": true,
          "internalType": "address",
          "name": "beacon",
          "type": "address"
        }
      ],
      "name": "BeaconUpgraded",
      "type": "event"
    },
    {
      "anonymous": false,
      "inputs": [
        {
          "indexed": true,
          "internalType": "address",
          "name": "identity",
          "type": "address"
        },
        {
          "indexed": true,
          "internalType": "bytes32",
          "name": "file",
          "type": "bytes32"
        }
      ],
      "name": "DeleteFileEvent",
      "type": "event"
    },
    {
      "anonymous": false,
      "inputs": [
        {
          "indexed": true,
          "internalType": "address",
          "name": "identity",
          "type": "address"
        },
        {
          "indexed": true,
          "internalType": "bytes32",
          "name": "file",
          "type": "bytes32"
        },
        {
          "indexed": false,
          "internalType": "uint256",
          "name": "n",
          "type": "uint256"
        },
        {
          "indexed": false,
          "internalType": "uint256",
          "name": "k",
          "type": "uint256"
        },
        {
          "indexed": false,
          "internalType": "uint256",
          "name": "fileSize",
          "type": "uint256"
        }
      ],
      "name": "NewFileUpdate",
      "type": "event"
    },
    {
      "anonymous": false,
      "inputs": [
        {
          "indexed": true,
          "internalType": "address",
          "name": "identity",
          "type": "address"
        },
        {
          "indexed": true,
          "internalType": "bytes32",
          "name": "file",
          "type": "bytes32"
        },
        {
          "indexed": false,
          "internalType": "uint256",
          "name": "validity",
          "type": "uint256"
        },
        {
          "indexed": false,
          "internalType": "bytes32",
          "name": "accessType",
          "type": "bytes32"
        },
        {
          "indexed": false,
          "internalType": "address",
          "name": "excutor",
          "type": "address"
        }
      ],
      "name": "NewPermissionCheck",
      "type": "event"
    },
    {
      "anonymous": false,
      "inputs": [
        {
          "indexed": true,
          "internalType": "address",
          "name": "identity",
          "type": "address"
        },
        {
          "indexed": true,
          "internalType": "bytes32",
          "name": "file",
          "type": "bytes32"
        },
        {
          "indexed": true,
          "internalType": "address",
          "name": "user",
          "type": "address"
        },
        {
          "indexed": false,
          "internalType": "bytes32",
          "name": "accessType",
          "type": "bytes32"
        },
        {
          "indexed": false,
          "internalType": "uint256",
          "name": "validity",
          "type": "uint256"
        }
      ],
      "name": "NewShare",
      "type": "event"
    },
    {
      "anonymous": false,
      "inputs": [
        {
          "indexed": true,
          "internalType": "address",
          "name": "identity",
          "type": "address"
        },
        {
          "indexed": true,
          "internalType": "bytes32",
          "name": "file",
          "type": "bytes32"
        },
        {
          "indexed": true,
          "internalType": "address",
          "name": "user",
          "type": "address"
        },
        {
          "indexed": false,
          "internalType": "bytes32",
          "name": "accessType",
          "type": "bytes32"
        }
      ],
      "name": "NewUpdateACK",
      "type": "event"
    },
    {
      "anonymous": false,
      "inputs": [
        {
          "indexed": true,
          "internalType": "address",
          "name": "previousOwner",
          "type": "address"
        },
        {
          "indexed": true,
          "internalType": "address",
          "name": "newOwner",
          "type": "address"
        }
      ],
      "name": "OwnershipTransferred",
      "type": "event"
    },
    {
      "anonymous": false,
      "inputs": [
        {
          "indexed": true,
          "internalType": "address",
          "name": "implementation",
          "type": "address"
        }
      ],
      "name": "Upgraded",
      "type": "event"
    },
    {
      "inputs": [
        {
          "internalType": "bytes32",
          "name": "",
          "type": "bytes32"
        },
        {
          "internalType": "bytes32",
          "name": "",
          "type": "bytes32"
        },
        {
          "internalType": "address",
          "name": "",
          "type": "address"
        }
      ],
      "name": "accessSpecifier",
      "outputs": [
        {
          "internalType": "bytes",
          "name": "encryptedKey",
          "type": "bytes"
        },
        {
          "internalType": "uint256",
          "name": "validity",
          "type": "uint256"
        }
      ],
      "stateMutability": "view",
      "type": "function"
    },
    {
      "inputs": [],
      "name": "appName",
      "outputs": [
        {
          "internalType": "string",
          "name": "",
          "type": "string"
        }
      ],
      "stateMutability": "view",
      "type": "function"
    },
    {
      "inputs": [
        {
          "internalType": "bytes32",
          "name": "_file",
          "type": "bytes32"
        },
        {
          "internalType": "address",
          "name": "_newOwner",
          "type": "address"
        }
      ],
      "name": "changeFileOwner",
      "outputs": [
        {
          "internalType": "bool",
          "name": "",
          "type": "bool"
        }
      ],
      "stateMutability": "nonpayable",
      "type": "function"
    },
    {
      "inputs": [
        {
          "internalType": "address",
          "name": "_identity",
          "type": "address"
        },
        {
          "internalType": "bytes32",
          "name": "_file",
          "type": "bytes32"
        },
        {
          "internalType": "bytes32",
          "name": "_accessType",
          "type": "bytes32"
        }
      ],
      "name": "checkPermission",
      "outputs": [
        {
          "internalType": "uint256",
          "name": "",
          "type": "uint256"
        }
      ],
      "stateMutability": "nonpayable",
      "type": "function"
    },
    {
      "inputs": [
        {
          "internalType": "bytes32",
          "name": "_file",
          "type": "bytes32"
        }
      ],
      "name": "deleteFile",
      "outputs": [],
      "stateMutability": "nonpayable",
      "type": "function"
    },
    {
      "inputs": [],
      "name": "factory",
      "outputs": [
        {
          "internalType": "contract FactoryInterface",
          "name": "",
          "type": "address"
        }
      ],
      "stateMutability": "view",
      "type": "function"
    },
    {
      "inputs": [
        {
          "internalType": "bytes32",
          "name": "",
          "type": "bytes32"
        }
      ],
      "name": "files",
      "outputs": [
        {
          "internalType": "address",
          "name": "owner",
          "type": "address"
        },
        {
          "internalType": "uint256",
          "name": "n",
          "type": "uint256"
        },
        {
          "internalType": "uint256",
          "name": "k",
          "type": "uint256"
        },
        {
          "internalType": "uint256",
          "name": "fileSize",
          "type": "uint256"
        },
        {
          "internalType": "bool",
          "name": "uploaded",
          "type": "bool"
        },
        {
          "internalType": "bytes",
          "name": "encryptedMetaData",
          "type": "bytes"
        },
        {
          "internalType": "bytes",
          "name": "encryptedKey",
          "type": "bytes"
        },
        {
          "internalType": "address",
          "name": "storageNode",
          "type": "address"
        }
      ],
      "stateMutability": "view",
      "type": "function"
    },
    {
      "inputs": [
        {
          "internalType": "bytes32",
          "name": "_file",
          "type": "bytes32"
        },
        {
          "internalType": "bytes32",
          "name": "_accessType",
          "type": "bytes32"
        }
      ],
      "name": "getAllUsers",
      "outputs": [
        {
          "internalType": "address[]",
          "name": "",
          "type": "address[]"
        }
      ],
      "stateMutability": "view",
      "type": "function"
    },
    {
      "inputs": [
        {
          "internalType": "bytes32",
          "name": "_file",
          "type": "bytes32"
        },
        {
          "internalType": "bytes32",
          "name": "_accessType",
          "type": "bytes32"
        }
      ],
      "name": "getFile",
      "outputs": [
        {
          "components": [
            {
              "internalType": "address",
              "name": "owner",
              "type": "address"
            },
            {
              "internalType": "uint256",
              "name": "n",
              "type": "uint256"
            },
            {
              "internalType": "uint256",
              "name": "k",
              "type": "uint256"
            },
            {
              "internalType": "uint256",
              "name": "fileSize",
              "type": "uint256"
            },
            {
              "internalType": "bool",
              "name": "uploaded",
              "type": "bool"
            },
            {
              "internalType": "bytes",
              "name": "encryptedMetaData",
              "type": "bytes"
            },
            {
              "internalType": "bytes",
              "name": "encryptedKey",
              "type": "bytes"
            },
            {
              "internalType": "address",
              "name": "storageNode",
              "type": "address"
            }
          ],
          "internalType": "struct Arcana.File",
          "name": "",
          "type": "tuple"
        }
      ],
      "stateMutability": "view",
      "type": "function"
    },
    {
      "inputs": [],
      "name": "googleClientId",
      "outputs": [
        {
          "internalType": "string",
          "name": "",
          "type": "string"
        }
      ],
      "stateMutability": "view",
      "type": "function"
    },
    {
      "inputs": [
        {
          "internalType": "string",
          "name": "_appName",
          "type": "string"
        },
        {
          "internalType": "address",
          "name": "_factory",
          "type": "address"
        },
        {
          "internalType": "address",
          "name": "_relayer",
          "type": "address"
        },
        {
          "internalType": "string",
          "name": "_googleClientId",
          "type": "string"
        }
      ],
      "name": "initialize",
      "outputs": [],
      "stateMutability": "nonpayable",
      "type": "function"
    },
    {
      "inputs": [
        {
          "internalType": "address",
          "name": "forwarder",
          "type": "address"
        }
      ],
      "name": "isTrustedForwarder",
      "outputs": [
        {
          "internalType": "bool",
          "name": "",
          "type": "bool"
        }
      ],
      "stateMutability": "view",
      "type": "function"
    },
    {
      "inputs": [],
      "name": "owner",
      "outputs": [
        {
          "internalType": "address",
          "name": "",
          "type": "address"
        }
      ],
      "stateMutability": "view",
      "type": "function"
    },
    {
      "inputs": [],
      "name": "renounceOwnership",
      "outputs": [],
      "stateMutability": "nonpayable",
      "type": "function"
    },
    {
      "inputs": [
        {
          "internalType": "bytes32",
          "name": "_file",
          "type": "bytes32"
        },
        {
          "internalType": "address",
          "name": "_user",
          "type": "address"
        },
        {
          "internalType": "bytes32",
          "name": "_accessType",
          "type": "bytes32"
        }
      ],
      "name": "revoke",
      "outputs": [],
      "stateMutability": "nonpayable",
      "type": "function"
    },
    {
      "inputs": [
        {
          "internalType": "bytes32[]",
          "name": "_files",
          "type": "bytes32[]"
        },
        {
          "internalType": "address[]",
          "name": "_user",
          "type": "address[]"
        },
        {
          "internalType": "bytes32[]",
          "name": "_accessType",
          "type": "bytes32[]"
        },
        {
          "internalType": "bytes[]",
          "name": "_encryptedKey",
          "type": "bytes[]"
        },
        {
          "internalType": "uint256[]",
          "name": "_validity",
          "type": "uint256[]"
        }
      ],
      "name": "share",
      "outputs": [],
      "stateMutability": "nonpayable",
      "type": "function"
    },
    {
      "inputs": [
        {
          "internalType": "bytes32[]",
          "name": "_files",
          "type": "bytes32[]"
        },
        {
          "internalType": "address[]",
          "name": "_user",
          "type": "address[]"
        },
        {
          "internalType": "bytes32[]",
          "name": "_accessType",
          "type": "bytes32[]"
        },
        {
          "internalType": "bytes[]",
          "name": "_encryptedKey",
          "type": "bytes[]"
        },
        {
          "internalType": "uint256[]",
          "name": "_validity",
          "type": "uint256[]"
        }
      ],
      "name": "shareUser",
      "outputs": [],
      "stateMutability": "nonpayable",
      "type": "function"
    },
    {
      "inputs": [
        {
          "internalType": "address",
          "name": "newOwner",
          "type": "address"
        }
      ],
      "name": "transferOwnership",
      "outputs": [],
      "stateMutability": "nonpayable",
      "type": "function"
    },
    {
      "inputs": [
        {
          "internalType": "address",
          "name": "newImplementation",
          "type": "address"
        }
      ],
      "name": "upgradeTo",
      "outputs": [],
      "stateMutability": "nonpayable",
      "type": "function"
    },
    {
      "inputs": [
        {
          "internalType": "address",
          "name": "newImplementation",
          "type": "address"
        },
        {
          "internalType": "bytes",
          "name": "data",
          "type": "bytes"
        }
      ],
      "name": "upgradeToAndCall",
      "outputs": [],
      "stateMutability": "payable",
      "type": "function"
    },
    {
      "inputs": [
        {
          "internalType": "bytes32",
          "name": "_file",
          "type": "bytes32"
        }
      ],
      "name": "uploadClose",
      "outputs": [],
      "stateMutability": "nonpayable",
      "type": "function"
    },
    {
      "inputs": [
        {
          "internalType": "bytes32",
          "name": "_file",
          "type": "bytes32"
        },
        {
          "internalType": "uint256",
          "name": "_n",
          "type": "uint256"
        },
        {
          "internalType": "uint256",
          "name": "_k",
          "type": "uint256"
        },
        {
          "internalType": "uint256",
          "name": "_fileSize",
          "type": "uint256"
        },
        {
          "internalType": "bytes",
          "name": "_encryptedMetaData",
          "type": "bytes"
        },
        {
          "internalType": "bytes",
          "name": "_encryptedKey",
          "type": "bytes"
        },
        {
          "internalType": "address",
          "name": "_storageNode",
          "type": "address"
        }
      ],
      "name": "uploadInit",
      "outputs": [],
      "stateMutability": "nonpayable",
      "type": "function"
    },
    {
      "inputs": [
        {
          "internalType": "bytes32",
          "name": "",
          "type": "bytes32"
        },
        {
          "internalType": "bytes32",
          "name": "",
          "type": "bytes32"
        },
        {
          "internalType": "uint256",
          "name": "",
          "type": "uint256"
        }
      ],
      "name": "userAccess",
      "outputs": [
        {
          "internalType": "address",
          "name": "",
          "type": "address"
        }
      ],
      "stateMutability": "view",
      "type": "function"
    }
  ],
  "bytecode": "0x608060405234801561001057600080fd5b50613ada806100206000396000f3fe6080604052600436106101805760003560e01c80636b2877d4116100d6578063c12ed14f1161007f578063d6e7045d11610059578063d6e7045d1461044a578063dde8d0d91461046a578063f2fde38b1461049757610180565b8063c12ed14f146103e9578063c45a015514610409578063c5b264471461042a57610180565b806398c9adff116100b057806398c9adff1461038057806399dc8378146103b4578063a056e1fd146103c957610180565b80636b2877d41461031e578063715018a61461033e5780638da5cb5b1461035357610180565b8063572b6c0511610138578063638b6add11610112578063638b6add146102b057806363a15202146102de5780636ab799f1146102fe57610180565b8063572b6c05146102255780635f784b8a146102555780636184533f1461028357610180565b80633659cfe6116101695780633659cfe6146101d25780633a8be7f5146101f25780634f1ef2861461021257610180565b80630c97282c146101855780630d3fbd05146101b0575b600080fd5b34801561019157600080fd5b5061019a6104b7565b6040516101a791906138d7565b60405180910390f35b3480156101bc57600080fd5b506101d06101cb3660046134b8565b610545565b005b3480156101de57600080fd5b506101d06101ed366004613420565b610b91565b3480156101fe57600080fd5b506101d061020d3660046134b8565b610bb8565b6101d061022036600461346c565b6111f7565b34801561023157600080fd5b50610245610240366004613420565b611210565b60405190151581526020016101a7565b34801561026157600080fd5b5061027561027036600461363c565b611227565b6040516101a79291906138b5565b34801561028f57600080fd5b506102a361029e36600461361b565b6112dc565b6040516101a79190613868565b3480156102bc57600080fd5b506102d06102cb36600461343a565b611429565b6040519081526020016101a7565b3480156102ea57600080fd5b506101d06102f93660046135a4565b611528565b34801561030a57600080fd5b506101d06103193660046135a4565b61164a565b34801561032a57600080fd5b506101d06103393660046135e7565b61186f565b34801561034a57600080fd5b506101d0611ab8565b34801561035f57600080fd5b50610368611b71565b6040516001600160a01b0390911681526020016101a7565b34801561038c57600080fd5b506103a061039b3660046135a4565b611b81565b6040516101a79897969594939291906137fd565b3480156103c057600080fd5b5061019a611cee565b3480156103d557600080fd5b506101d06103e436600461369b565b611cfb565b3480156103f557600080fd5b50610368610404366004613670565b612093565b34801561041557600080fd5b5061010154610368906001600160a01b031681565b34801561043657600080fd5b506102456104453660046135bc565b6120d8565b34801561045657600080fd5b506101d0610465366004613733565b6122da565b34801561047657600080fd5b5061048a61048536600461361b565b6123ef565b6040516101a791906138ea565b3480156104a357600080fd5b506101d06104b2366004613420565b612741565b60fc80546104c490613a24565b80601f01602080910402602001604051908101604052809291908181526020018280546104f090613a24565b801561053d5780601f106105125761010080835404028352916020019161053d565b820191906000526020600020905b81548152906001019060200180831161052057829003601f168201915b505050505081565b610101546001600160a01b031663c7e1562c30610560612888565b6040516001600160e01b031960e085901b1681526001600160a01b03928316600482015291166024820152604401602060405180830381600087803b1580156105a857600080fd5b505af11580156105bc573d6000803e3d6000fd5b505050506040513d601f19601f820116820180604052508101906105e09190613584565b6106315760405162461bcd60e51b815260206004820152601f60248201527f55736572206e6f74207265676973746572656420666f7220746865206170700060448201526064015b60405180910390fd5b82518451146106a85760405162461bcd60e51b815260206004820152603a60248201527f55736572206172726179206c656e67746820646f6573206e6f74206d6174636860448201527f65732077697468206163636573732074797065206c656e6774680000000000006064820152608401610628565b805184511461071f5760405162461bcd60e51b815260206004820152603760248201527f55736572206172726179206c656e67746820646f6573206e6f74206d6174636860448201527f657320776974682076616c6964697479206c656e6774680000000000000000006064820152608401610628565b60005b8551811015610b895760005b8551811015610b7657610100600088838151811061075c57634e487b7160e01b600052603260045260246000fd5b6020908102919091018101518252810191909152604001600020546001600160a01b0316610788612888565b6001600160a01b0316146107cf5760405162461bcd60e51b815260206004820152600e60248201526d2737ba103334b6329037bbb732b960911b6044820152606401610628565b8282815181106107ef57634e487b7160e01b600052603260045260246000fd5b6020026020010151600014156108475760405162461bcd60e51b815260206004820152601960248201527f56616c6964697479206d757374206265206e6f6e207a65726f000000000000006044820152606401610628565b604051806040016040528085848151811061087257634e487b7160e01b600052603260045260246000fd5b6020026020010151815260200184848151811061089f57634e487b7160e01b600052603260045260246000fd5b6020026020010151426108b291906139dc565b81525060fe60008985815181106108d957634e487b7160e01b600052603260045260246000fd5b60200260200101518152602001908152602001600020600087858151811061091157634e487b7160e01b600052603260045260246000fd5b60200260200101518152602001908152602001600020600088848151811061094957634e487b7160e01b600052603260045260246000fd5b60200260200101516001600160a01b03166001600160a01b03168152602001908152602001600020600082015181600001908051906020019061098d9291906131ab565b506020820151816001015590505060ff60008884815181106109bf57634e487b7160e01b600052603260045260246000fd5b6020026020010151815260200190815260200160002060008684815181106109f757634e487b7160e01b600052603260045260246000fd5b60200260200101518152602001908152602001600020868281518110610a2d57634e487b7160e01b600052603260045260246000fd5b60209081029190910181015182546001810184556000938452919092200180546001600160a01b0319166001600160a01b039092169190911790558551869082908110610a8a57634e487b7160e01b600052603260045260246000fd5b60200260200101516001600160a01b0316878381518110610abb57634e487b7160e01b600052603260045260246000fd5b6020026020010151610acb612888565b6001600160a01b03167f1ebaec2e787dc387c941232bf165b988dd5c126cd5f60b7215b6ece61bfbc879888581518110610b1557634e487b7160e01b600052603260045260246000fd5b6020026020010151878681518110610b3d57634e487b7160e01b600052603260045260246000fd5b6020026020010151604051610b5c929190918252602082015260400190565b60405180910390a480610b6e81613a5f565b91505061072e565b5080610b8181613a5f565b915050610722565b505050505050565b610b9a816128b6565b610bb581604051806020016040528060008152506000612925565b50565b610101546001600160a01b031663c7e1562c30610bd3612888565b6040516001600160e01b031960e085901b1681526001600160a01b03928316600482015291166024820152604401602060405180830381600087803b158015610c1b57600080fd5b505af1158015610c2f573d6000803e3d6000fd5b505050506040513d601f19601f82011682018060405250810190610c539190613584565b610c9f5760405162461bcd60e51b815260206004820152601f60248201527f55736572206e6f74207265676973746572656420666f722074686520617070006044820152606401610628565b8251845114610d165760405162461bcd60e51b815260206004820152603a60248201527f55736572206172726179206c656e67746820646f6573206e6f74206d6174636860448201527f65732077697468206163636573732074797065206c656e6774680000000000006064820152608401610628565b8051845114610d8d5760405162461bcd60e51b815260206004820152603760248201527f55736572206172726179206c656e67746820646f6573206e6f74206d6174636860448201527f657320776974682076616c6964697479206c656e6774680000000000000000006064820152608401610628565b60005b8551811015610b895760005b85518110156111e4576101006000888381518110610dca57634e487b7160e01b600052603260045260246000fd5b6020908102919091018101518252810191909152604001600020546001600160a01b0316610df6612888565b6001600160a01b031614610e3d5760405162461bcd60e51b815260206004820152600e60248201526d2737ba103334b6329037bbb732b960911b6044820152606401610628565b828181518110610e5d57634e487b7160e01b600052603260045260246000fd5b602002602001015160001415610eb55760405162461bcd60e51b815260206004820152601960248201527f56616c6964697479206d757374206265206e6f6e207a65726f000000000000006044820152606401610628565b6040518060400160405280858381518110610ee057634e487b7160e01b600052603260045260246000fd5b60200260200101518152602001848381518110610f0d57634e487b7160e01b600052603260045260246000fd5b602002602001015142610f2091906139dc565b81525060fe6000898581518110610f4757634e487b7160e01b600052603260045260246000fd5b602002602001015181526020019081526020016000206000878481518110610f7f57634e487b7160e01b600052603260045260246000fd5b602002602001015181526020019081526020016000206000888481518110610fb757634e487b7160e01b600052603260045260246000fd5b60200260200101516001600160a01b03166001600160a01b031681526020019081526020016000206000820151816000019080519060200190610ffb9291906131ab565b506020820151816001015590505060ff600088848151811061102d57634e487b7160e01b600052603260045260246000fd5b60200260200101518152602001908152602001600020600086838151811061106557634e487b7160e01b600052603260045260246000fd5b6020026020010151815260200190815260200160002086828151811061109b57634e487b7160e01b600052603260045260246000fd5b60209081029190910181015182546001810184556000938452919092200180546001600160a01b0319166001600160a01b0390921691909117905585518690829081106110f857634e487b7160e01b600052603260045260246000fd5b60200260200101516001600160a01b031687838151811061112957634e487b7160e01b600052603260045260246000fd5b6020026020010151611139612888565b6001600160a01b03167f1ebaec2e787dc387c941232bf165b988dd5c126cd5f60b7215b6ece61bfbc87988858151811061118357634e487b7160e01b600052603260045260246000fd5b60200260200101518786815181106111ab57634e487b7160e01b600052603260045260246000fd5b60200260200101516040516111ca929190918252602082015260400190565b60405180910390a4806111dc81613a5f565b915050610d9c565b50806111ef81613a5f565b915050610d90565b611200826128b6565b61120c82826001612925565b5050565b60c9546001600160a01b038281169116145b919050565b60fe60209081526000938452604080852082529284528284209052825290208054819061125390613a24565b80601f016020809104026020016040519081016040528092919081815260200182805461127f90613a24565b80156112cc5780601f106112a1576101008083540402835291602001916112cc565b820191906000526020600020905b8154815290600101906020018083116112af57829003601f168201915b5050505050908060010154905082565b600082815260ff60209081526040808320848452825280832080548251818502810185019093528083526060949383018282801561134357602002820191906000526020600020905b81546001600160a01b03168152600190910190602001808311611325575b50505050509050600080600090505b825181101561141f57600086815260ff60209081526040808320888452909152902080548290811061139457634e487b7160e01b600052603260045260246000fd5b600091825260208083209091015488835260fe8252604080842089855283528084206001600160a01b0390921680855291909252912060010154909250421061140d578281815181106113f757634e487b7160e01b600052603260045260246000fd5b6020026020010160006001600160a01b03168152505b8061141781613a5f565b915050611352565b5090949350505050565b600082815260fe6020908152604080832084845282528083206001600160a01b03808816808652918452828520600101548786526101009094529184205490911614156114845761147d42620f42406139dc565b90506114c1565b806114c15760405162461bcd60e51b815260206004820152600d60248201526c056616c6964697479206973203609c1b6044820152606401610628565b83856001600160a01b03167f70de9db8c5fdf7217671fc4cc6008e066f9418ac0527a3422461e6ff4a3d8a4e83866114f7612888565b6040805193845260208401929092526001600160a01b03169082015260600160405180910390a390505b9392505050565b600081815261010060205260409020600701546001600160a01b031661154c612888565b6001600160a01b0316146115c85760405162461bcd60e51b815260206004820152603860248201527f46756e6374696f6e2063616e206f6e6c792062652063616c6c6564206279207460448201527f68652061737369676e65642073746f72616765206e6f646500000000000000006064820152608401610628565b6000818152610100602052604090206004015460ff161561162b5760405162461bcd60e51b815260206004820152601560248201527f46696c6520616c72656164792075706c6f6164656400000000000000000000006044820152606401610628565b600090815261010060205260409020600401805460ff19166001179055565b6000818152610100602052604090205481906001600160a01b031661166d612888565b6001600160a01b0316146116da5760405162461bcd60e51b815260206004820152602e60248201527f546869732066756e6374696f6e2063616e206f6e6c792062652063616c6c656460448201526d10313c903334b6329037bbb732b960911b6064820152608401610628565b610101546001600160a01b031663c7e1562c306116f5612888565b6040516001600160e01b031960e085901b1681526001600160a01b03928316600482015291166024820152604401602060405180830381600087803b15801561173d57600080fd5b505af1158015611751573d6000803e3d6000fd5b505050506040513d601f19601f820116820180604052508101906117759190613584565b6117c15760405162461bcd60e51b815260206004820152601f60248201527f55736572206e6f74207265676973746572656420666f722074686520617070006044820152606401610628565b60008281526101006020526040812080546001600160a01b031916815560018101829055600281018290556003810182905560048101805460ff191690559061180d600583018261322f565b61181b60068301600061322f565b5060070180546001600160a01b031916905581611836612888565b6001600160a01b03167fa2acc0b1cda8647780f0900a02e0ba141277133ea27552fa350439c0b6684d2160405160405180910390a35050565b610101546001600160a01b031663c7e1562c3061188a612888565b6040516001600160e01b031960e085901b1681526001600160a01b03928316600482015291166024820152604401602060405180830381600087803b1580156118d257600080fd5b505af11580156118e6573d6000803e3d6000fd5b505050506040513d601f19601f8201168201806040525081019061190a9190613584565b6119565760405162461bcd60e51b815260206004820152601f60248201527f55736572206e6f74207265676973746572656420666f722074686520617070006044820152606401610628565b600083815260fe6020908152604080832084845282528083206001600160a01b038616845290915281209061198b828261322f565b50600060019190910181905583815260ff6020908152604080832084845282528083208054825181850281018501909352808352611a07938301828280156119fc57602002820191906000526020600020905b81546001600160a01b031681526001909101906020018083116119de575b505050505084612b04565b600085815260ff60209081526040808320868452909152902080549192509082908110611a4457634e487b7160e01b600052603260045260246000fd5b600091825260209091200180546001600160a01b03191690556001600160a01b03831684611a70612888565b6001600160a01b03167f60cb99feacb32252ac712ece398c95440ae888fd3a720ce9f1b32077771612eb85604051611aaa91815260200190565b60405180910390a450505050565b611ac0612888565b6001600160a01b0316611ad1611b71565b6001600160a01b031614611b275760405162461bcd60e51b815260206004820181905260248201527f4f776e61626c653a2063616c6c6572206973206e6f7420746865206f776e65726044820152606401610628565b6097546040516000916001600160a01b0316907f8be0079c531659141344cd1fd0a4f28419497f9722a3daafe3b4186f6b6457e0908390a3609780546001600160a01b0319169055565b6097546001600160a01b03165b90565b610100602052600090815260409020805460018201546002830154600384015460048501546005860180546001600160a01b039096169694959394929360ff9092169291611bce90613a24565b80601f0160208091040260200160405190810160405280929190818152602001828054611bfa90613a24565b8015611c475780601f10611c1c57610100808354040283529160200191611c47565b820191906000526020600020905b815481529060010190602001808311611c2a57829003601f168201915b505050505090806006018054611c5c90613a24565b80601f0160208091040260200160405190810160405280929190818152602001828054611c8890613a24565b8015611cd55780601f10611caa57610100808354040283529160200191611cd5565b820191906000526020600020905b815481529060010190602001808311611cb857829003601f168201915b505050600790930154919250506001600160a01b031688565b60fd80546104c490613a24565b610101546001600160a01b031663c7e1562c30611d16612888565b6040516001600160e01b031960e085901b1681526001600160a01b03928316600482015291166024820152604401602060405180830381600087803b158015611d5e57600080fd5b505af1158015611d72573d6000803e3d6000fd5b505050506040513d601f19601f82011682018060405250810190611d969190613584565b611de25760405162461bcd60e51b815260206004820152601f60248201527f55736572206e6f74207265676973746572656420666f722074686520617070006044820152606401610628565b600087815261010060205260409020546001600160a01b031615611e525760405162461bcd60e51b815260206004820152602160248201527f4f776e657220616c726561647920657869737420666f7220746869732066696c6044820152606560f81b6064820152608401610628565b848611611e875760405162461bcd60e51b81526020600482015260036024820152626e3e6b60e81b6044820152606401610628565b60018511611ed75760405162461bcd60e51b815260206004820152601160248201527f6b2073686f756c64206e6f7420626520300000000000000000000000000000006044820152606401610628565b83611f245760405162461bcd60e51b815260206004820152600f60248201527f53686f756c64206e6f74206265203000000000000000000000000000000000006044820152606401610628565b604051806101000160405280611f38612888565b6001600160a01b03908116825260208083018a905260408084018a905260608085018a90526000608080870182905260a08088018c905260c088018b905289871660e0909801979097528e8252610100855290839020875181546001600160a01b0319169616959095178555868401516001860155918601516002850155850151600384015584015160048301805460ff19169115159190911790559183015180519192611fee926005850192909101906131ab565b5060c0820151805161200a9160068401916020909101906131ab565b5060e09190910151600790910180546001600160a01b0319166001600160a01b03928316179055600088815261010060209081526040918290205482518a8152918201899052918101879052899291909116907fb927e45e3d8ce5bbdb784af6c44bcd63515f70a54ba86e21a3af868740a6a8659060600160405180910390a350505050505050565b60ff60205282600052604060002060205281600052604060002081815481106120bb57600080fd5b6000918252602090912001546001600160a01b0316925083915050565b6000828152610100602052604081205483906001600160a01b03166120fb612888565b6001600160a01b0316146121685760405162461bcd60e51b815260206004820152602e60248201527f546869732066756e6374696f6e2063616e206f6e6c792062652063616c6c656460448201526d10313c903334b6329037bbb732b960911b6064820152608401610628565b610101546001600160a01b031663c7e1562c30612183612888565b6040516001600160e01b031960e085901b1681526001600160a01b03928316600482015291166024820152604401602060405180830381600087803b1580156121cb57600080fd5b505af11580156121df573d6000803e3d6000fd5b505050506040513d601f19601f820116820180604052508101906122039190613584565b61224f5760405162461bcd60e51b815260206004820152601f60248201527f55736572206e6f74207265676973746572656420666f722074686520617070006044820152606401610628565b6001600160a01b0383166122a55760405162461bcd60e51b815260206004820152600f60248201527f496e76616c6964206164647265737300000000000000000000000000000000006044820152606401610628565b60008481526101006020526040902080546001600160a01b0385166001600160a01b0319909116179055600191505092915050565b600054610100900460ff16806122f3575060005460ff16155b6123565760405162461bcd60e51b815260206004820152602e60248201527f496e697469616c697a61626c653a20636f6e747261637420697320616c72656160448201526d191e481a5b9a5d1a585b1a5e995960921b6064820152608401610628565b600054610100900460ff16158015612381576000805460ff1961ff0019909116610100171660011790555b612389612b5a565b845161239c9060fc9060208801906131ab565b5061010180546001600160a01b0319166001600160a01b0386161790556123c283612c25565b81516123d59060fd9060208501906131ab565b5080156123e8576000805461ff00191690555b5050505050565b61244b60405180610100016040528060006001600160a01b03168152602001600081526020016000815260200160008152602001600015158152602001606081526020016060815260200160006001600160a01b031681525090565b600083815260fe6020908152604080832085845290915281208161246d612888565b6001600160a01b03166001600160a01b031681526020019081526020016000206040518060400160405290816000820180546124a890613a24565b80601f01602080910402602001604051908101604052809291908181526020018280546124d490613a24565b80156125215780601f106124f657610100808354040283529160200191612521565b820191906000526020600020905b81548152906001019060200180831161250457829003601f168201915b5050509183525050600191820154602091820152600087815261010080835260408083208151928301825280546001600160a01b03168352948501549382019390935260028401549281019290925260038301546060830152600483015460ff1615156080830152600583018054949550909391929160a0840191906125a690613a24565b80601f01602080910402602001604051908101604052809291908181526020018280546125d290613a24565b801561261f5780601f106125f45761010080835404028352916020019161261f565b820191906000526020600020905b81548152906001019060200180831161260257829003601f168201915b5050505050815260200160068201805461263890613a24565b80601f016020809104026020016040519081016040528092919081815260200182805461266490613a24565b80156126b15780601f10612686576101008083540402835291602001916126b1565b820191906000526020600020905b81548152906001019060200180831161269457829003601f168201915b5050509183525050600791909101546001600160a01b039081166020909201919091528151919250166126e2612888565b6001600160a01b0316146127395760208201516127315760405162461bcd60e51b815260206004820152600d60248201526c056616c6964697479206973203609c1b6044820152606401610628565b815160c08201525b949350505050565b612749612888565b6001600160a01b031661275a611b71565b6001600160a01b0316146127b05760405162461bcd60e51b815260206004820181905260248201527f4f776e61626c653a2063616c6c6572206973206e6f7420746865206f776e65726044820152606401610628565b6001600160a01b03811661282c5760405162461bcd60e51b815260206004820152602660248201527f4f776e61626c653a206e6577206f776e657220697320746865207a65726f206160448201527f64647265737300000000000000000000000000000000000000000000000000006064820152608401610628565b6097546040516001600160a01b038084169216907f8be0079c531659141344cd1fd0a4f28419497f9722a3daafe3b4186f6b6457e090600090a3609780546001600160a01b0319166001600160a01b0392909216919091179055565b600061289333611210565b156128a7575060131936013560601c611b7e565b6128af612cf2565b9050611b7e565b6128be612888565b6001600160a01b03166128cf611b71565b6001600160a01b031614610bb55760405162461bcd60e51b815260206004820181905260248201527f4f776e61626c653a2063616c6c6572206973206e6f7420746865206f776e65726044820152606401610628565b60006129587f360894a13ba1a3210667c828492db98dca3e2076cc3735a920a3ca505d382bbc546001600160a01b031690565b905061296384612d17565b6000835111806129705750815b156129815761297f8484612dcc565b505b7f4910fdfa16fed3260ed0e7147f7cc6da11a60208b5b9406d12a635614ffd9143805460ff166123e857805460ff191660011781556040516001600160a01b0383166024820152612a1590869060440160408051601f198184030181529190526020810180517bffffffffffffffffffffffffffffffffffffffffffffffffffffffff16631b2ce7f360e11b179052612dcc565b50805460ff191681557f360894a13ba1a3210667c828492db98dca3e2076cc3735a920a3ca505d382bbc546001600160a01b03838116911614612ac05760405162461bcd60e51b815260206004820152602f60248201527f45524331393637557067726164653a207570677261646520627265616b73206660448201527f75727468657220757067726164657300000000000000000000000000000000006064820152608401610628565b612ac985612d17565b6040516001600160a01b038616907fbc7cd75a20ee27fd9adebab32041f755214dbc6bffa90cc0225b39da2e5c2d3b90600090a25050505050565b6000805b826001600160a01b0316848281518110612b3257634e487b7160e01b600052603260045260246000fd5b60200260200101516001600160a01b0316146115215780612b5281613a5f565b915050612b08565b600054610100900460ff1680612b73575060005460ff16155b612bd65760405162461bcd60e51b815260206004820152602e60248201527f496e697469616c697a61626c653a20636f6e747261637420697320616c72656160448201526d191e481a5b9a5d1a585b1a5e995960921b6064820152608401610628565b600054610100900460ff16158015612c01576000805460ff1961ff0019909116610100171660011790555b612c09612ece565b612c11612f88565b8015610bb5576000805461ff001916905550565b600054610100900460ff1680612c3e575060005460ff16155b612ca15760405162461bcd60e51b815260206004820152602e60248201527f496e697469616c697a61626c653a20636f6e747261637420697320616c72656160448201526d191e481a5b9a5d1a585b1a5e995960921b6064820152608401610628565b600054610100900460ff16158015612ccc576000805460ff1961ff0019909116610100171660011790555b612cd4612ece565b612cdd8261309b565b801561120c576000805461ff00191690555050565b6000612cfd33611210565b15612d11575060131936013560601c611b7e565b336128af565b803b612d8b5760405162461bcd60e51b815260206004820152602d60248201527f455243313936373a206e657720696d706c656d656e746174696f6e206973206e60448201527f6f74206120636f6e7472616374000000000000000000000000000000000000006064820152608401610628565b7f360894a13ba1a3210667c828492db98dca3e2076cc3735a920a3ca505d382bbc80546001600160a01b0319166001600160a01b0392909216919091179055565b6060823b612e425760405162461bcd60e51b815260206004820152602660248201527f416464726573733a2064656c65676174652063616c6c20746f206e6f6e2d636f60448201527f6e747261637400000000000000000000000000000000000000000000000000006064820152608401610628565b600080846001600160a01b031684604051612e5d91906137e1565b600060405180830381855af49150503d8060008114612e98576040519150601f19603f3d011682016040523d82523d6000602084013e612e9d565b606091505b5091509150612ec58282604051806060016040528060278152602001613aa760279139613172565b95945050505050565b600054610100900460ff1680612ee7575060005460ff16155b612f4a5760405162461bcd60e51b815260206004820152602e60248201527f496e697469616c697a61626c653a20636f6e747261637420697320616c72656160448201526d191e481a5b9a5d1a585b1a5e995960921b6064820152608401610628565b600054610100900460ff16158015612c11576000805460ff1961ff0019909116610100171660011790558015610bb5576000805461ff001916905550565b600054610100900460ff1680612fa1575060005460ff16155b6130045760405162461bcd60e51b815260206004820152602e60248201527f496e697469616c697a61626c653a20636f6e747261637420697320616c72656160448201526d191e481a5b9a5d1a585b1a5e995960921b6064820152608401610628565b600054610100900460ff1615801561302f576000805460ff1961ff0019909116610100171660011790555b6000613039612888565b609780546001600160a01b0319166001600160a01b038316908117909155604051919250906000907f8be0079c531659141344cd1fd0a4f28419497f9722a3daafe3b4186f6b6457e0908290a3508015610bb5576000805461ff001916905550565b600054610100900460ff16806130b4575060005460ff16155b6131175760405162461bcd60e51b815260206004820152602e60248201527f496e697469616c697a61626c653a20636f6e747261637420697320616c72656160448201526d191e481a5b9a5d1a585b1a5e995960921b6064820152608401610628565b600054610100900460ff16158015613142576000805460ff1961ff0019909116610100171660011790555b60c980546001600160a01b0319166001600160a01b038416179055801561120c576000805461ff00191690555050565b60608315613181575081611521565b8251156131915782518084602001fd5b8160405162461bcd60e51b815260040161062891906138d7565b8280546131b790613a24565b90600052602060002090601f0160209004810192826131d9576000855561321f565b82601f106131f257805160ff191683800117855561321f565b8280016001018555821561321f579182015b8281111561321f578251825591602001919060010190613204565b5061322b929150613267565b5090565b50805461323b90613a24565b6000825580601f1061324d5750610bb5565b601f016020900490600052602060002090810190610bb591905b5b8082111561322b5760008155600101613268565b80356001600160a01b038116811461122257600080fd5b600082601f8301126132a3578081fd5b813560206132b86132b3836139b8565b613987565b82815281810190858301838502870184018810156132d4578586fd5b855b858110156132f9576132e78261327c565b845292840192908401906001016132d6565b5090979650505050505050565b600082601f830112613316578081fd5b813560206133266132b3836139b8565b8281528181019085830183850287018401881015613342578586fd5b855b858110156132f957813584529284019290840190600101613344565b600082601f830112613370578081fd5b813560206133806132b3836139b8565b82815281810190858301855b858110156132f9576133a3898684358b01016133b5565b8452928401929084019060010161338c565b600082601f8301126133c5578081fd5b813567ffffffffffffffff8111156133df576133df613a90565b6133f2601f8201601f1916602001613987565b818152846020838601011115613406578283fd5b816020850160208301379081016020019190915292915050565b600060208284031215613431578081fd5b6115218261327c565b60008060006060848603121561344e578182fd5b6134578461327c565b95602085013595506040909401359392505050565b6000806040838503121561347e578182fd5b6134878361327c565b9150602083013567ffffffffffffffff8111156134a2578182fd5b6134ae858286016133b5565b9150509250929050565b600080600080600060a086880312156134cf578081fd5b853567ffffffffffffffff808211156134e6578283fd5b6134f289838a01613306565b96506020880135915080821115613507578283fd5b61351389838a01613293565b95506040880135915080821115613528578283fd5b61353489838a01613306565b94506060880135915080821115613549578283fd5b61355589838a01613360565b9350608088013591508082111561356a578283fd5b5061357788828901613306565b9150509295509295909350565b600060208284031215613595578081fd5b81518015158114611521578182fd5b6000602082840312156135b5578081fd5b5035919050565b600080604083850312156135ce578182fd5b823591506135de6020840161327c565b90509250929050565b6000806000606084860312156135fb578081fd5b8335925061360b6020850161327c565b9150604084013590509250925092565b6000806040838503121561362d578182fd5b50508035926020909101359150565b600080600060608486031215613650578081fd5b83359250602084013591506136676040850161327c565b90509250925092565b600080600060608486031215613684578081fd5b505081359360208301359350604090920135919050565b600080600080600080600060e0888a0312156136b5578485fd5b87359650602088013595506040880135945060608801359350608088013567ffffffffffffffff808211156136e8578384fd5b6136f48b838c016133b5565b945060a08a0135915080821115613709578384fd5b506137168a828b016133b5565b92505061372560c0890161327c565b905092959891949750929550565b60008060008060808587031215613748578182fd5b843567ffffffffffffffff8082111561375f578384fd5b61376b888389016133b5565b95506137796020880161327c565b94506137876040880161327c565b9350606087013591508082111561379c578283fd5b506137a9878288016133b5565b91505092959194509250565b600081518084526137cd8160208601602086016139f4565b601f01601f19169290920160200192915050565b600082516137f38184602087016139f4565b9190910192915050565b60006101006001600160a01b03808c1684528a602085015289604085015288606085015287151560808501528160a085015261383b828501886137b5565b915083820360c085015261384f82876137b5565b925080851660e085015250509998505050505050505050565b6020808252825182820181905260009190848201906040850190845b818110156138a95783516001600160a01b031683529284019291840191600101613884565b50909695505050505050565b6000604082526138c860408301856137b5565b90508260208301529392505050565b60006020825261152160208301846137b5565b6000602082526001600160a01b038351166020830152602083015160408301526040830151606083015260608301516080830152608083015161393160a084018215159052565b5060a08301516101008060c085015261394e6101208501836137b5565b915060c0850151601f198584030160e086015261396b83826137b5565b92505060e085015161141f828601826001600160a01b03169052565b604051601f8201601f1916810167ffffffffffffffff811182821017156139b0576139b0613a90565b604052919050565b600067ffffffffffffffff8211156139d2576139d2613a90565b5060209081020190565b600082198211156139ef576139ef613a7a565b500190565b60005b83811015613a0f5781810151838201526020016139f7565b83811115613a1e576000848401525b50505050565b600281046001821680613a3857607f821691505b60208210811415613a5957634e487b7160e01b600052602260045260246000fd5b50919050565b6000600019821415613a7357613a73613a7a565b5060010190565b634e487b7160e01b600052601160045260246000fd5b634e487b7160e01b600052604160045260246000fdfe416464726573733a206c6f772d6c6576656c2064656c65676174652063616c6c206661696c6564a164736f6c6343000802000a",
  "linkReferences": {},
  "deployedLinkReferences": {}
}