{
  "_format": "hh-sol-artifact-1",
  "contractName": "Arcana",
  "sourceName": "contracts/Arcana.sol",
  "abi": [
    {
      "anonymous": false,
      "inputs": [
        {
          "indexed": false,
          "internalType": "address",
          "name": "previousAdmin",
          "type": "address"
        },
        {
          "indexed": false,
          "internalType": "address",
          "name": "newAdmin",
          "type": "address"
        }
      ],
      "name": "AdminChanged",
      "type": "event"
    },
    {
      "anonymous": false,
      "inputs": [
        {
          "indexed": true,
          "internalType": "address",
          "name": "beacon",
          "type": "address"
        }
      ],
      "name": "BeaconUpgraded",
      "type": "event"
    },
    {
      "anonymous": false,
      "inputs": [
        {
          "indexed": true,
          "internalType": "address",
          "name": "identity",
          "type": "address"
        },
        {
          "indexed": true,
          "internalType": "bytes32",
          "name": "file",
          "type": "bytes32"
        }
      ],
      "name": "DeleteFileEvent",
      "type": "event"
    },
    {
      "anonymous": false,
      "inputs": [
        {
          "indexed": true,
          "internalType": "address",
          "name": "identity",
          "type": "address"
        },
        {
          "indexed": true,
          "internalType": "bytes32",
          "name": "file",
          "type": "bytes32"
        },
        {
          "indexed": false,
          "internalType": "uint256",
          "name": "n",
          "type": "uint256"
        },
        {
          "indexed": false,
          "internalType": "uint256",
          "name": "k",
          "type": "uint256"
        },
        {
          "indexed": false,
          "internalType": "uint256",
          "name": "fileSize",
          "type": "uint256"
        }
      ],
      "name": "NewFileUpdate",
      "type": "event"
    },
    {
      "anonymous": false,
      "inputs": [
        {
          "indexed": true,
          "internalType": "address",
          "name": "identity",
          "type": "address"
        },
        {
          "indexed": true,
          "internalType": "bytes32",
          "name": "file",
          "type": "bytes32"
        },
        {
          "indexed": false,
          "internalType": "uint256",
          "name": "validity",
          "type": "uint256"
        },
        {
          "indexed": false,
          "internalType": "bytes32",
          "name": "accessType",
          "type": "bytes32"
        },
        {
          "indexed": false,
          "internalType": "address",
          "name": "excutor",
          "type": "address"
        }
      ],
      "name": "NewPermissionCheck",
      "type": "event"
    },
    {
      "anonymous": false,
      "inputs": [
        {
          "indexed": true,
          "internalType": "address",
          "name": "identity",
          "type": "address"
        },
        {
          "indexed": true,
          "internalType": "bytes32",
          "name": "file",
          "type": "bytes32"
        },
        {
          "indexed": true,
          "internalType": "address",
          "name": "user",
          "type": "address"
        },
        {
          "indexed": false,
          "internalType": "bytes32",
          "name": "accessType",
          "type": "bytes32"
        },
        {
          "indexed": false,
          "internalType": "uint256",
          "name": "validity",
          "type": "uint256"
        }
      ],
      "name": "NewShare",
      "type": "event"
    },
    {
      "anonymous": false,
      "inputs": [
        {
          "indexed": true,
          "internalType": "address",
          "name": "identity",
          "type": "address"
        },
        {
          "indexed": true,
          "internalType": "bytes32",
          "name": "file",
          "type": "bytes32"
        },
        {
          "indexed": true,
          "internalType": "address",
          "name": "user",
          "type": "address"
        },
        {
          "indexed": false,
          "internalType": "bytes32",
          "name": "accessType",
          "type": "bytes32"
        }
      ],
      "name": "NewUpdateACK",
      "type": "event"
    },
    {
      "anonymous": false,
      "inputs": [
        {
          "indexed": true,
          "internalType": "address",
          "name": "previousOwner",
          "type": "address"
        },
        {
          "indexed": true,
          "internalType": "address",
          "name": "newOwner",
          "type": "address"
        }
      ],
      "name": "OwnershipTransferred",
      "type": "event"
    },
    {
      "anonymous": false,
      "inputs": [
        {
          "indexed": true,
          "internalType": "address",
          "name": "implementation",
          "type": "address"
        }
      ],
      "name": "Upgraded",
      "type": "event"
    },
    {
      "inputs": [
        {
          "internalType": "bytes32",
          "name": "",
          "type": "bytes32"
        },
        {
          "internalType": "bytes32",
          "name": "",
          "type": "bytes32"
        },
        {
          "internalType": "address",
          "name": "",
          "type": "address"
        }
      ],
      "name": "accessSpecifier",
      "outputs": [
        {
          "internalType": "bytes",
          "name": "encryptedKey",
          "type": "bytes"
        },
        {
          "internalType": "uint256",
          "name": "validity",
          "type": "uint256"
        }
      ],
      "stateMutability": "view",
      "type": "function"
    },
    {
      "inputs": [],
      "name": "appName",
      "outputs": [
        {
          "internalType": "string",
          "name": "",
          "type": "string"
        }
      ],
      "stateMutability": "view",
      "type": "function"
    },
    {
      "inputs": [
        {
          "internalType": "bytes32",
          "name": "_file",
          "type": "bytes32"
        },
        {
          "internalType": "address",
          "name": "_newOwner",
          "type": "address"
        }
      ],
      "name": "changeFileOwner",
      "outputs": [
        {
          "internalType": "bool",
          "name": "",
          "type": "bool"
        }
      ],
      "stateMutability": "nonpayable",
      "type": "function"
    },
    {
      "inputs": [
        {
          "internalType": "address",
          "name": "_identity",
          "type": "address"
        },
        {
          "internalType": "bytes32",
          "name": "_file",
          "type": "bytes32"
        },
        {
          "internalType": "bytes32",
          "name": "_accessType",
          "type": "bytes32"
        }
      ],
      "name": "checkPermission",
      "outputs": [
        {
          "internalType": "uint256",
          "name": "",
          "type": "uint256"
        }
      ],
      "stateMutability": "nonpayable",
      "type": "function"
    },
    {
      "inputs": [
        {
          "internalType": "bytes32",
          "name": "_file",
          "type": "bytes32"
        }
      ],
      "name": "deleteFile",
      "outputs": [],
      "stateMutability": "nonpayable",
      "type": "function"
    },
    {
      "inputs": [],
      "name": "factory",
      "outputs": [
        {
          "internalType": "contract FactoryInterface",
          "name": "",
          "type": "address"
        }
      ],
      "stateMutability": "view",
      "type": "function"
    },
    {
      "inputs": [
        {
          "internalType": "bytes32",
          "name": "",
          "type": "bytes32"
        }
      ],
      "name": "files",
      "outputs": [
        {
          "internalType": "address",
          "name": "owner",
          "type": "address"
        },
        {
          "internalType": "uint256",
          "name": "n",
          "type": "uint256"
        },
        {
          "internalType": "uint256",
          "name": "k",
          "type": "uint256"
        },
        {
          "internalType": "uint256",
          "name": "fileSize",
          "type": "uint256"
        },
        {
          "internalType": "bool",
          "name": "uploaded",
          "type": "bool"
        },
        {
          "internalType": "bytes",
          "name": "encryptedMetaData",
          "type": "bytes"
        },
        {
          "internalType": "bytes",
          "name": "encryptedKey",
          "type": "bytes"
        },
        {
          "internalType": "address",
          "name": "storageNode",
          "type": "address"
        }
      ],
      "stateMutability": "view",
      "type": "function"
    },
    {
      "inputs": [
        {
          "internalType": "bytes32",
          "name": "_file",
          "type": "bytes32"
        },
        {
          "internalType": "bytes32",
          "name": "_accessType",
          "type": "bytes32"
        }
      ],
      "name": "getAllUsers",
      "outputs": [
        {
          "internalType": "address[]",
          "name": "",
          "type": "address[]"
        }
      ],
      "stateMutability": "view",
      "type": "function"
    },
    {
      "inputs": [
        {
          "internalType": "bytes32",
          "name": "_file",
          "type": "bytes32"
        },
        {
          "internalType": "bytes32",
          "name": "_accessType",
          "type": "bytes32"
        }
      ],
      "name": "getFile",
      "outputs": [
        {
          "components": [
            {
              "internalType": "address",
              "name": "owner",
              "type": "address"
            },
            {
              "internalType": "uint256",
              "name": "n",
              "type": "uint256"
            },
            {
              "internalType": "uint256",
              "name": "k",
              "type": "uint256"
            },
            {
              "internalType": "uint256",
              "name": "fileSize",
              "type": "uint256"
            },
            {
              "internalType": "bool",
              "name": "uploaded",
              "type": "bool"
            },
            {
              "internalType": "bytes",
              "name": "encryptedMetaData",
              "type": "bytes"
            },
            {
              "internalType": "bytes",
              "name": "encryptedKey",
              "type": "bytes"
            },
            {
              "internalType": "address",
              "name": "storageNode",
              "type": "address"
            }
          ],
          "internalType": "struct Arcana.File",
          "name": "",
          "type": "tuple"
        }
      ],
      "stateMutability": "view",
      "type": "function"
    },
    {
      "inputs": [
        {
          "internalType": "string",
          "name": "_appName",
          "type": "string"
        },
        {
          "internalType": "address",
          "name": "_factory",
          "type": "address"
        },
        {
          "internalType": "address",
          "name": "_relayer",
          "type": "address"
        }
      ],
      "name": "initialize",
      "outputs": [],
      "stateMutability": "nonpayable",
      "type": "function"
    },
    {
      "inputs": [
        {
          "internalType": "address",
          "name": "forwarder",
          "type": "address"
        }
      ],
      "name": "isTrustedForwarder",
      "outputs": [
        {
          "internalType": "bool",
          "name": "",
          "type": "bool"
        }
      ],
      "stateMutability": "view",
      "type": "function"
    },
    {
      "inputs": [],
      "name": "owner",
      "outputs": [
        {
          "internalType": "address",
          "name": "",
          "type": "address"
        }
      ],
      "stateMutability": "view",
      "type": "function"
    },
    {
      "inputs": [],
      "name": "renounceOwnership",
      "outputs": [],
      "stateMutability": "nonpayable",
      "type": "function"
    },
    {
      "inputs": [
        {
          "internalType": "bytes32",
          "name": "_file",
          "type": "bytes32"
        },
        {
          "internalType": "address",
          "name": "_user",
          "type": "address"
        },
        {
          "internalType": "bytes32",
          "name": "_accessType",
          "type": "bytes32"
        }
      ],
      "name": "revoke",
      "outputs": [],
      "stateMutability": "nonpayable",
      "type": "function"
    },
    {
      "inputs": [
        {
          "internalType": "bytes32[]",
          "name": "_files",
          "type": "bytes32[]"
        },
        {
          "internalType": "address[]",
          "name": "_user",
          "type": "address[]"
        },
        {
          "internalType": "bytes32[]",
          "name": "_accessType",
          "type": "bytes32[]"
        },
        {
          "internalType": "bytes[]",
          "name": "_encryptedKey",
          "type": "bytes[]"
        },
        {
          "internalType": "uint256[]",
          "name": "_validity",
          "type": "uint256[]"
        }
      ],
      "name": "share",
      "outputs": [],
      "stateMutability": "nonpayable",
      "type": "function"
    },
    {
      "inputs": [
        {
          "internalType": "bytes32[]",
          "name": "_files",
          "type": "bytes32[]"
        },
        {
          "internalType": "address[]",
          "name": "_user",
          "type": "address[]"
        },
        {
          "internalType": "bytes32[]",
          "name": "_accessType",
          "type": "bytes32[]"
        },
        {
          "internalType": "bytes[]",
          "name": "_encryptedKey",
          "type": "bytes[]"
        },
        {
          "internalType": "uint256[]",
          "name": "_validity",
          "type": "uint256[]"
        }
      ],
      "name": "shareUser",
      "outputs": [],
      "stateMutability": "nonpayable",
      "type": "function"
    },
    {
      "inputs": [
        {
          "internalType": "address",
          "name": "newOwner",
          "type": "address"
        }
      ],
      "name": "transferOwnership",
      "outputs": [],
      "stateMutability": "nonpayable",
      "type": "function"
    },
    {
      "inputs": [
        {
          "internalType": "address",
          "name": "newImplementation",
          "type": "address"
        }
      ],
      "name": "upgradeTo",
      "outputs": [],
      "stateMutability": "nonpayable",
      "type": "function"
    },
    {
      "inputs": [
        {
          "internalType": "address",
          "name": "newImplementation",
          "type": "address"
        },
        {
          "internalType": "bytes",
          "name": "data",
          "type": "bytes"
        }
      ],
      "name": "upgradeToAndCall",
      "outputs": [],
      "stateMutability": "payable",
      "type": "function"
    },
    {
      "inputs": [
        {
          "internalType": "bytes32",
          "name": "_file",
          "type": "bytes32"
        }
      ],
      "name": "uploadClose",
      "outputs": [],
      "stateMutability": "nonpayable",
      "type": "function"
    },
    {
      "inputs": [
        {
          "internalType": "bytes32",
          "name": "_file",
          "type": "bytes32"
        },
        {
          "internalType": "uint256",
          "name": "_n",
          "type": "uint256"
        },
        {
          "internalType": "uint256",
          "name": "_k",
          "type": "uint256"
        },
        {
          "internalType": "uint256",
          "name": "_fileSize",
          "type": "uint256"
        },
        {
          "internalType": "bytes",
          "name": "_encryptedMetaData",
          "type": "bytes"
        },
        {
          "internalType": "bytes",
          "name": "_encryptedKey",
          "type": "bytes"
        },
        {
          "internalType": "address",
          "name": "_storageNode",
          "type": "address"
        }
      ],
      "name": "uploadInit",
      "outputs": [],
      "stateMutability": "nonpayable",
      "type": "function"
    },
    {
      "inputs": [
        {
          "internalType": "bytes32",
          "name": "",
          "type": "bytes32"
        },
        {
          "internalType": "bytes32",
          "name": "",
          "type": "bytes32"
        },
        {
          "internalType": "uint256",
          "name": "",
          "type": "uint256"
        }
      ],
      "name": "userAccess",
      "outputs": [
        {
          "internalType": "address",
          "name": "",
          "type": "address"
        }
      ],
      "stateMutability": "view",
      "type": "function"
    }
  ],
  "bytecode": "0x608060405234801561001057600080fd5b50613a43806100206000396000f3fe6080604052600436106101755760003560e01c80636ab799f1116100cb578063a056e1fd1161007f578063c5b2644711610059578063c5b264471461042a578063dde8d0d91461044a578063f2fde38b1461047757610175565b8063a056e1fd146103c9578063c12ed14f146103e9578063c45a01551461040957610175565b8063715018a6116100b0578063715018a6146103535780638da5cb5b1461036857806398c9adff1461039557610175565b80636ab799f1146103135780636b2877d41461033357610175565b80634f1ef2861161012d5780636184533f116101075780636184533f14610298578063638b6add146102c557806363a15202146102f357610175565b80634f1ef28614610227578063572b6c051461023a5780635f784b8a1461026a57610175565b80633659cfe61161015e5780633659cfe6146101c75780633a8be7f5146101e7578063463fd1af1461020757610175565b80630c97282c1461017a5780630d3fbd05146101a5575b600080fd5b34801561018657600080fd5b5061018f610497565b60405161019c9190613844565b60405180910390f35b3480156101b157600080fd5b506101c56101c0366004613441565b610525565b005b3480156101d357600080fd5b506101c56101e23660046133a9565b610b68565b3480156101f357600080fd5b506101c5610202366004613441565b610b8f565b34801561021357600080fd5b506101c56102223660046136bc565b6111c5565b6101c56102353660046133f5565b6112c5565b34801561024657600080fd5b5061025a6102553660046133a9565b6112de565b604051901515815260200161019c565b34801561027657600080fd5b5061028a6102853660046135c5565b6112f5565b60405161019c929190613822565b3480156102a457600080fd5b506102b86102b33660046135a4565b6113aa565b60405161019c91906137d5565b3480156102d157600080fd5b506102e56102e03660046133c3565b6114f7565b60405190815260200161019c565b3480156102ff57600080fd5b506101c561030e36600461352d565b6115f5565b34801561031f57600080fd5b506101c561032e36600461352d565b611715565b34801561033f57600080fd5b506101c561034e366004613570565b611930565b34801561035f57600080fd5b506101c5611b71565b34801561037457600080fd5b5061037d611c2a565b6040516001600160a01b03909116815260200161019c565b3480156103a157600080fd5b506103b56103b036600461352d565b611c3a565b60405161019c98979695949392919061376a565b3480156103d557600080fd5b506101c56103e4366004613624565b611da8565b3480156103f557600080fd5b5061037d6104043660046135f9565b612135565b34801561041557600080fd5b506101005461037d906001600160a01b031681565b34801561043657600080fd5b5061025a610445366004613545565b61217a565b34801561045657600080fd5b5061046a6104653660046135a4565b612372565b60405161019c9190613857565b34801561048357600080fd5b506101c56104923660046133a9565b6126bd565b60fc80546104a49061398d565b80601f01602080910402602001604051908101604052809291908181526020018280546104d09061398d565b801561051d5780601f106104f25761010080835404028352916020019161051d565b820191906000526020600020905b81548152906001019060200180831161050057829003601f168201915b505050505081565b610100546001600160a01b0316631f5bdf5d61053f612804565b6040516001600160e01b031960e084901b1681526001600160a01b039091166004820152602401602060405180830381600087803b15801561058057600080fd5b505af1158015610594573d6000803e3d6000fd5b505050506040513d601f19601f820116820180604052508101906105b8919061350d565b6106095760405162461bcd60e51b815260206004820152601f60248201527f55736572206e6f74207265676973746572656420666f7220746865206170700060448201526064015b60405180910390fd5b82518451146106805760405162461bcd60e51b815260206004820152603a60248201527f55736572206172726179206c656e67746820646f6573206e6f74206d6174636860448201527f65732077697468206163636573732074797065206c656e6774680000000000006064820152608401610600565b80518451146106f75760405162461bcd60e51b815260206004820152603760248201527f55736572206172726179206c656e67746820646f6573206e6f74206d6174636860448201527f657320776974682076616c6964697479206c656e6774680000000000000000006064820152608401610600565b60005b8551811015610b605760005b8551811015610b4d5760ff600088838151811061073357634e487b7160e01b600052603260045260246000fd5b6020908102919091018101518252810191909152604001600020546001600160a01b031661075f612804565b6001600160a01b0316146107a65760405162461bcd60e51b815260206004820152600e60248201526d2737ba103334b6329037bbb732b960911b6044820152606401610600565b8282815181106107c657634e487b7160e01b600052603260045260246000fd5b60200260200101516000141561081e5760405162461bcd60e51b815260206004820152601960248201527f56616c6964697479206d757374206265206e6f6e207a65726f000000000000006044820152606401610600565b604051806040016040528085848151811061084957634e487b7160e01b600052603260045260246000fd5b6020026020010151815260200184848151811061087657634e487b7160e01b600052603260045260246000fd5b6020026020010151426108899190613949565b81525060fd60008985815181106108b057634e487b7160e01b600052603260045260246000fd5b6020026020010151815260200190815260200160002060008785815181106108e857634e487b7160e01b600052603260045260246000fd5b60200260200101518152602001908152602001600020600088848151811061092057634e487b7160e01b600052603260045260246000fd5b60200260200101516001600160a01b03166001600160a01b031681526020019081526020016000206000820151816000019080519060200190610964929190613128565b506020820151816001015590505060fe600088848151811061099657634e487b7160e01b600052603260045260246000fd5b6020026020010151815260200190815260200160002060008684815181106109ce57634e487b7160e01b600052603260045260246000fd5b60200260200101518152602001908152602001600020868281518110610a0457634e487b7160e01b600052603260045260246000fd5b60209081029190910181015182546001810184556000938452919092200180546001600160a01b0319166001600160a01b039092169190911790558551869082908110610a6157634e487b7160e01b600052603260045260246000fd5b60200260200101516001600160a01b0316878381518110610a9257634e487b7160e01b600052603260045260246000fd5b6020026020010151610aa2612804565b6001600160a01b03167f1ebaec2e787dc387c941232bf165b988dd5c126cd5f60b7215b6ece61bfbc879888581518110610aec57634e487b7160e01b600052603260045260246000fd5b6020026020010151878681518110610b1457634e487b7160e01b600052603260045260246000fd5b6020026020010151604051610b33929190918252602082015260400190565b60405180910390a480610b45816139c8565b915050610706565b5080610b58816139c8565b9150506106fa565b505050505050565b610b7181612832565b610b8c816040518060200160405280600081525060006128a1565b50565b610100546001600160a01b0316631f5bdf5d610ba9612804565b6040516001600160e01b031960e084901b1681526001600160a01b039091166004820152602401602060405180830381600087803b158015610bea57600080fd5b505af1158015610bfe573d6000803e3d6000fd5b505050506040513d601f19601f82011682018060405250810190610c22919061350d565b610c6e5760405162461bcd60e51b815260206004820152601f60248201527f55736572206e6f74207265676973746572656420666f722074686520617070006044820152606401610600565b8251845114610ce55760405162461bcd60e51b815260206004820152603a60248201527f55736572206172726179206c656e67746820646f6573206e6f74206d6174636860448201527f65732077697468206163636573732074797065206c656e6774680000000000006064820152608401610600565b8051845114610d5c5760405162461bcd60e51b815260206004820152603760248201527f55736572206172726179206c656e67746820646f6573206e6f74206d6174636860448201527f657320776974682076616c6964697479206c656e6774680000000000000000006064820152608401610600565b60005b8551811015610b605760005b85518110156111b25760ff6000888381518110610d9857634e487b7160e01b600052603260045260246000fd5b6020908102919091018101518252810191909152604001600020546001600160a01b0316610dc4612804565b6001600160a01b031614610e0b5760405162461bcd60e51b815260206004820152600e60248201526d2737ba103334b6329037bbb732b960911b6044820152606401610600565b828181518110610e2b57634e487b7160e01b600052603260045260246000fd5b602002602001015160001415610e835760405162461bcd60e51b815260206004820152601960248201527f56616c6964697479206d757374206265206e6f6e207a65726f000000000000006044820152606401610600565b6040518060400160405280858381518110610eae57634e487b7160e01b600052603260045260246000fd5b60200260200101518152602001848381518110610edb57634e487b7160e01b600052603260045260246000fd5b602002602001015142610eee9190613949565b81525060fd6000898581518110610f1557634e487b7160e01b600052603260045260246000fd5b602002602001015181526020019081526020016000206000878481518110610f4d57634e487b7160e01b600052603260045260246000fd5b602002602001015181526020019081526020016000206000888481518110610f8557634e487b7160e01b600052603260045260246000fd5b60200260200101516001600160a01b03166001600160a01b031681526020019081526020016000206000820151816000019080519060200190610fc9929190613128565b506020820151816001015590505060fe6000888481518110610ffb57634e487b7160e01b600052603260045260246000fd5b60200260200101518152602001908152602001600020600086838151811061103357634e487b7160e01b600052603260045260246000fd5b6020026020010151815260200190815260200160002086828151811061106957634e487b7160e01b600052603260045260246000fd5b60209081029190910181015182546001810184556000938452919092200180546001600160a01b0319166001600160a01b0390921691909117905585518690829081106110c657634e487b7160e01b600052603260045260246000fd5b60200260200101516001600160a01b03168783815181106110f757634e487b7160e01b600052603260045260246000fd5b6020026020010151611107612804565b6001600160a01b03167f1ebaec2e787dc387c941232bf165b988dd5c126cd5f60b7215b6ece61bfbc87988858151811061115157634e487b7160e01b600052603260045260246000fd5b602002602001015187868151811061117957634e487b7160e01b600052603260045260246000fd5b6020026020010151604051611198929190918252602082015260400190565b60405180910390a4806111aa816139c8565b915050610d6b565b50806111bd816139c8565b915050610d5f565b600054610100900460ff16806111de575060005460ff16155b6112415760405162461bcd60e51b815260206004820152602e60248201527f496e697469616c697a61626c653a20636f6e747261637420697320616c72656160448201526d191e481a5b9a5d1a585b1a5e995960921b6064820152608401610600565b600054610100900460ff1615801561126c576000805460ff1961ff0019909116610100171660011790555b611274612a81565b83516112879060fc906020870190613128565b5061010080546001600160a01b0319166001600160a01b0385161790556112ad82612b4c565b80156112bf576000805461ff00191690555b50505050565b6112ce82612832565b6112da828260016128a1565b5050565b60c9546001600160a01b038281169116145b919050565b60fd6020908152600093845260408085208252928452828420905282529020805481906113219061398d565b80601f016020809104026020016040519081016040528092919081815260200182805461134d9061398d565b801561139a5780601f1061136f5761010080835404028352916020019161139a565b820191906000526020600020905b81548152906001019060200180831161137d57829003601f168201915b5050505050908060010154905082565b600082815260fe60209081526040808320848452825280832080548251818502810185019093528083526060949383018282801561141157602002820191906000526020600020905b81546001600160a01b031681526001909101906020018083116113f3575b50505050509050600080600090505b82518110156114ed57600086815260fe60209081526040808320888452909152902080548290811061146257634e487b7160e01b600052603260045260246000fd5b600091825260208083209091015488835260fd8252604080842089855283528084206001600160a01b039092168085529190925291206001015490925042106114db578281815181106114c557634e487b7160e01b600052603260045260246000fd5b6020026020010160006001600160a01b03168152505b806114e5816139c8565b915050611420565b5090949350505050565b600082815260fd6020908152604080832084845282528083206001600160a01b038088168086529184528285206001015487865260ff9094529184205490911614156115515761154a42620f4240613949565b905061158e565b8061158e5760405162461bcd60e51b815260206004820152600d60248201526c056616c6964697479206973203609c1b6044820152606401610600565b83856001600160a01b03167f70de9db8c5fdf7217671fc4cc6008e066f9418ac0527a3422461e6ff4a3d8a4e83866115c4612804565b6040805193845260208401929092526001600160a01b03169082015260600160405180910390a390505b9392505050565b600081815260ff60205260409020600701546001600160a01b0316611618612804565b6001600160a01b0316146116945760405162461bcd60e51b815260206004820152603860248201527f46756e6374696f6e2063616e206f6e6c792062652063616c6c6564206279207460448201527f68652061737369676e65642073746f72616765206e6f646500000000000000006064820152608401610600565b600081815260ff602081905260409091206004015416156116f75760405162461bcd60e51b815260206004820152601560248201527f46696c6520616c72656164792075706c6f6164656400000000000000000000006044820152606401610600565b600090815260ff60205260409020600401805460ff19166001179055565b600081815260ff602052604090205481906001600160a01b0316611737612804565b6001600160a01b0316146117a45760405162461bcd60e51b815260206004820152602e60248201527f546869732066756e6374696f6e2063616e206f6e6c792062652063616c6c656460448201526d10313c903334b6329037bbb732b960911b6064820152608401610600565b610100546001600160a01b0316631f5bdf5d6117be612804565b6040516001600160e01b031960e084901b1681526001600160a01b039091166004820152602401602060405180830381600087803b1580156117ff57600080fd5b505af1158015611813573d6000803e3d6000fd5b505050506040513d601f19601f82011682018060405250810190611837919061350d565b6118835760405162461bcd60e51b815260206004820152601f60248201527f55736572206e6f74207265676973746572656420666f722074686520617070006044820152606401610600565b600082815260ff6020526040812080546001600160a01b031916815560018101829055600281018290556003810182905560048101805460ff19169055906118ce60058301826131ac565b6118dc6006830160006131ac565b5060070180546001600160a01b0319169055816118f7612804565b6001600160a01b03167fa2acc0b1cda8647780f0900a02e0ba141277133ea27552fa350439c0b6684d2160405160405180910390a35050565b610100546001600160a01b0316631f5bdf5d61194a612804565b6040516001600160e01b031960e084901b1681526001600160a01b039091166004820152602401602060405180830381600087803b15801561198b57600080fd5b505af115801561199f573d6000803e3d6000fd5b505050506040513d601f19601f820116820180604052508101906119c3919061350d565b611a0f5760405162461bcd60e51b815260206004820152601f60248201527f55736572206e6f74207265676973746572656420666f722074686520617070006044820152606401610600565b600083815260fd6020908152604080832084845282528083206001600160a01b0386168452909152812090611a4482826131ac565b50600060019190910181905583815260fe6020908152604080832084845282528083208054825181850281018501909352808352611ac093830182828015611ab557602002820191906000526020600020905b81546001600160a01b03168152600190910190602001808311611a97575b505050505084612c19565b600085815260fe60209081526040808320868452909152902080549192509082908110611afd57634e487b7160e01b600052603260045260246000fd5b600091825260209091200180546001600160a01b03191690556001600160a01b03831684611b29612804565b6001600160a01b03167f60cb99feacb32252ac712ece398c95440ae888fd3a720ce9f1b32077771612eb85604051611b6391815260200190565b60405180910390a450505050565b611b79612804565b6001600160a01b0316611b8a611c2a565b6001600160a01b031614611be05760405162461bcd60e51b815260206004820181905260248201527f4f776e61626c653a2063616c6c6572206973206e6f7420746865206f776e65726044820152606401610600565b6097546040516000916001600160a01b0316907f8be0079c531659141344cd1fd0a4f28419497f9722a3daafe3b4186f6b6457e0908390a3609780546001600160a01b0319169055565b6097546001600160a01b03165b90565b60ff602081905260009182526040909120805460018201546002830154600384015460048501546005860180546001600160a01b0390961697949693959294919091169291611c889061398d565b80601f0160208091040260200160405190810160405280929190818152602001828054611cb49061398d565b8015611d015780601f10611cd657610100808354040283529160200191611d01565b820191906000526020600020905b815481529060010190602001808311611ce457829003601f168201915b505050505090806006018054611d169061398d565b80601f0160208091040260200160405190810160405280929190818152602001828054611d429061398d565b8015611d8f5780601f10611d6457610100808354040283529160200191611d8f565b820191906000526020600020905b815481529060010190602001808311611d7257829003601f168201915b505050600790930154919250506001600160a01b031688565b610100546001600160a01b0316631f5bdf5d611dc2612804565b6040516001600160e01b031960e084901b1681526001600160a01b039091166004820152602401602060405180830381600087803b158015611e0357600080fd5b505af1158015611e17573d6000803e3d6000fd5b505050506040513d601f19601f82011682018060405250810190611e3b919061350d565b611e875760405162461bcd60e51b815260206004820152601f60248201527f55736572206e6f74207265676973746572656420666f722074686520617070006044820152606401610600565b600087815260ff60205260409020546001600160a01b031615611ef65760405162461bcd60e51b815260206004820152602160248201527f4f776e657220616c726561647920657869737420666f7220746869732066696c6044820152606560f81b6064820152608401610600565b848611611f2b5760405162461bcd60e51b81526020600482015260036024820152626e3e6b60e81b6044820152606401610600565b60018511611f7b5760405162461bcd60e51b815260206004820152601160248201527f6b2073686f756c64206e6f7420626520300000000000000000000000000000006044820152606401610600565b83611fc85760405162461bcd60e51b815260206004820152600f60248201527f53686f756c64206e6f74206265203000000000000000000000000000000000006044820152606401610600565b604051806101000160405280611fdc612804565b6001600160a01b03908116825260208083018a905260408084018a905260608085018a90526000608080870182905260a08088018c905260c088018b905289871660e0909801979097528e825260ff855290839020875181546001600160a01b0319169616959095178555868401516001860155918601516002850155850151600384015584015160048301805460ff1916911515919091179055918301518051919261209192600585019290910190613128565b5060c082015180516120ad916006840191602090910190613128565b5060e09190910151600790910180546001600160a01b0319166001600160a01b03928316179055600088815260ff60209081526040918290205482518a8152918201899052918101879052899291909116907fb927e45e3d8ce5bbdb784af6c44bcd63515f70a54ba86e21a3af868740a6a8659060600160405180910390a350505050505050565b60fe602052826000526040600020602052816000526040600020818154811061215d57600080fd5b6000918252602090912001546001600160a01b0316925083915050565b600082815260ff602052604081205483906001600160a01b031661219c612804565b6001600160a01b0316146122095760405162461bcd60e51b815260206004820152602e60248201527f546869732066756e6374696f6e2063616e206f6e6c792062652063616c6c656460448201526d10313c903334b6329037bbb732b960911b6064820152608401610600565b610100546001600160a01b0316631f5bdf5d612223612804565b6040516001600160e01b031960e084901b1681526001600160a01b039091166004820152602401602060405180830381600087803b15801561226457600080fd5b505af1158015612278573d6000803e3d6000fd5b505050506040513d601f19601f8201168201806040525081019061229c919061350d565b6122e85760405162461bcd60e51b815260206004820152601f60248201527f55736572206e6f74207265676973746572656420666f722074686520617070006044820152606401610600565b6001600160a01b03831661233e5760405162461bcd60e51b815260206004820152600f60248201527f496e76616c6964206164647265737300000000000000000000000000000000006044820152606401610600565b600084815260ff6020526040902080546001600160a01b0385166001600160a01b0319909116179055600191505092915050565b6123ce60405180610100016040528060006001600160a01b03168152602001600081526020016000815260200160008152602001600015158152602001606081526020016060815260200160006001600160a01b031681525090565b600083815260fd602090815260408083208584529091528120816123f0612804565b6001600160a01b03166001600160a01b0316815260200190815260200160002060405180604001604052908160008201805461242b9061398d565b80601f01602080910402602001604051908101604052809291908181526020018280546124579061398d565b80156124a45780601f10612479576101008083540402835291602001916124a4565b820191906000526020600020905b81548152906001019060200180831161248757829003601f168201915b5050509183525050600191820154602091820152600087815260ff808352604080832081516101008101835281546001600160a01b0316815295810154948601949094526002840154908501526003830154606085015260048301541615156080840152600582018054949550909360a0840191906125229061398d565b80601f016020809104026020016040519081016040528092919081815260200182805461254e9061398d565b801561259b5780601f106125705761010080835404028352916020019161259b565b820191906000526020600020905b81548152906001019060200180831161257e57829003601f168201915b505050505081526020016006820180546125b49061398d565b80601f01602080910402602001604051908101604052809291908181526020018280546125e09061398d565b801561262d5780601f106126025761010080835404028352916020019161262d565b820191906000526020600020905b81548152906001019060200180831161261057829003601f168201915b5050509183525050600791909101546001600160a01b0390811660209092019190915281519192501661265e612804565b6001600160a01b0316146126b55760208201516126ad5760405162461bcd60e51b815260206004820152600d60248201526c056616c6964697479206973203609c1b6044820152606401610600565b815160c08201525b949350505050565b6126c5612804565b6001600160a01b03166126d6611c2a565b6001600160a01b03161461272c5760405162461bcd60e51b815260206004820181905260248201527f4f776e61626c653a2063616c6c6572206973206e6f7420746865206f776e65726044820152606401610600565b6001600160a01b0381166127a85760405162461bcd60e51b815260206004820152602660248201527f4f776e61626c653a206e6577206f776e657220697320746865207a65726f206160448201527f64647265737300000000000000000000000000000000000000000000000000006064820152608401610600565b6097546040516001600160a01b038084169216907f8be0079c531659141344cd1fd0a4f28419497f9722a3daafe3b4186f6b6457e090600090a3609780546001600160a01b0319166001600160a01b0392909216919091179055565b600061280f336112de565b15612823575060131936013560601c611c37565b61282b612c6f565b9050611c37565b61283a612804565b6001600160a01b031661284b611c2a565b6001600160a01b031614610b8c5760405162461bcd60e51b815260206004820181905260248201527f4f776e61626c653a2063616c6c6572206973206e6f7420746865206f776e65726044820152606401610600565b60006128d47f360894a13ba1a3210667c828492db98dca3e2076cc3735a920a3ca505d382bbc546001600160a01b031690565b90506128df84612c94565b6000835111806128ec5750815b156128fd576128fb8484612d49565b505b7f4910fdfa16fed3260ed0e7147f7cc6da11a60208b5b9406d12a635614ffd9143805460ff16612a7a57805460ff191660011781556040516001600160a01b038316602482015261299190869060440160408051601f198184030181529190526020810180517bffffffffffffffffffffffffffffffffffffffffffffffffffffffff16631b2ce7f360e11b179052612d49565b50805460ff191681557f360894a13ba1a3210667c828492db98dca3e2076cc3735a920a3ca505d382bbc546001600160a01b03838116911614612a3c5760405162461bcd60e51b815260206004820152602f60248201527f45524331393637557067726164653a207570677261646520627265616b73206660448201527f75727468657220757067726164657300000000000000000000000000000000006064820152608401610600565b612a4585612c94565b6040516001600160a01b038616907fbc7cd75a20ee27fd9adebab32041f755214dbc6bffa90cc0225b39da2e5c2d3b90600090a25b5050505050565b600054610100900460ff1680612a9a575060005460ff16155b612afd5760405162461bcd60e51b815260206004820152602e60248201527f496e697469616c697a61626c653a20636f6e747261637420697320616c72656160448201526d191e481a5b9a5d1a585b1a5e995960921b6064820152608401610600565b600054610100900460ff16158015612b28576000805460ff1961ff0019909116610100171660011790555b612b30612e4b565b612b38612f05565b8015610b8c576000805461ff001916905550565b600054610100900460ff1680612b65575060005460ff16155b612bc85760405162461bcd60e51b815260206004820152602e60248201527f496e697469616c697a61626c653a20636f6e747261637420697320616c72656160448201526d191e481a5b9a5d1a585b1a5e995960921b6064820152608401610600565b600054610100900460ff16158015612bf3576000805460ff1961ff0019909116610100171660011790555b612bfb612e4b565b612c0482613018565b80156112da576000805461ff00191690555050565b6000805b826001600160a01b0316848281518110612c4757634e487b7160e01b600052603260045260246000fd5b60200260200101516001600160a01b0316146115ee5780612c67816139c8565b915050612c1d565b6000612c7a336112de565b15612c8e575060131936013560601c611c37565b3361282b565b803b612d085760405162461bcd60e51b815260206004820152602d60248201527f455243313936373a206e657720696d706c656d656e746174696f6e206973206e60448201527f6f74206120636f6e7472616374000000000000000000000000000000000000006064820152608401610600565b7f360894a13ba1a3210667c828492db98dca3e2076cc3735a920a3ca505d382bbc80546001600160a01b0319166001600160a01b0392909216919091179055565b6060823b612dbf5760405162461bcd60e51b815260206004820152602660248201527f416464726573733a2064656c65676174652063616c6c20746f206e6f6e2d636f60448201527f6e747261637400000000000000000000000000000000000000000000000000006064820152608401610600565b600080846001600160a01b031684604051612dda919061374e565b600060405180830381855af49150503d8060008114612e15576040519150601f19603f3d011682016040523d82523d6000602084013e612e1a565b606091505b5091509150612e428282604051806060016040528060278152602001613a10602791396130ef565b95945050505050565b600054610100900460ff1680612e64575060005460ff16155b612ec75760405162461bcd60e51b815260206004820152602e60248201527f496e697469616c697a61626c653a20636f6e747261637420697320616c72656160448201526d191e481a5b9a5d1a585b1a5e995960921b6064820152608401610600565b600054610100900460ff16158015612b38576000805460ff1961ff0019909116610100171660011790558015610b8c576000805461ff001916905550565b600054610100900460ff1680612f1e575060005460ff16155b612f815760405162461bcd60e51b815260206004820152602e60248201527f496e697469616c697a61626c653a20636f6e747261637420697320616c72656160448201526d191e481a5b9a5d1a585b1a5e995960921b6064820152608401610600565b600054610100900460ff16158015612fac576000805460ff1961ff0019909116610100171660011790555b6000612fb6612804565b609780546001600160a01b0319166001600160a01b038316908117909155604051919250906000907f8be0079c531659141344cd1fd0a4f28419497f9722a3daafe3b4186f6b6457e0908290a3508015610b8c576000805461ff001916905550565b600054610100900460ff1680613031575060005460ff16155b6130945760405162461bcd60e51b815260206004820152602e60248201527f496e697469616c697a61626c653a20636f6e747261637420697320616c72656160448201526d191e481a5b9a5d1a585b1a5e995960921b6064820152608401610600565b600054610100900460ff161580156130bf576000805460ff1961ff0019909116610100171660011790555b60c980546001600160a01b0319166001600160a01b03841617905580156112da576000805461ff00191690555050565b606083156130fe5750816115ee565b82511561310e5782518084602001fd5b8160405162461bcd60e51b81526004016106009190613844565b8280546131349061398d565b90600052602060002090601f016020900481019282613156576000855561319c565b82601f1061316f57805160ff191683800117855561319c565b8280016001018555821561319c579182015b8281111561319c578251825591602001919060010190613181565b506131a89291506131e4565b5090565b5080546131b89061398d565b6000825580601f106131ca5750610b8c565b601f016020900490600052602060002090810190610b8c91905b5b808211156131a857600081556001016131e5565b600067ffffffffffffffff831115613213576132136139f9565b613226601f8401601f19166020016138f4565b905082815283838301111561323a57600080fd5b828260208301376000602084830101529392505050565b80356001600160a01b03811681146112f057600080fd5b600082601f830112613278578081fd5b8135602061328d61328883613925565b6138f4565b82815281810190858301838502870184018810156132a9578586fd5b855b858110156132ce576132bc82613251565b845292840192908401906001016132ab565b5090979650505050505050565b600082601f8301126132eb578081fd5b813560206132fb61328883613925565b8281528181019085830183850287018401881015613317578586fd5b855b858110156132ce57813584529284019290840190600101613319565b600082601f830112613345578081fd5b8135602061335561328883613925565b82815281810190858301855b858110156132ce57613378898684358b010161338a565b84529284019290840190600101613361565b600082601f83011261339a578081fd5b6115ee838335602085016131f9565b6000602082840312156133ba578081fd5b6115ee82613251565b6000806000606084860312156133d7578182fd5b6133e084613251565b95602085013595506040909401359392505050565b60008060408385031215613407578182fd5b61341083613251565b9150602083013567ffffffffffffffff81111561342b578182fd5b6134378582860161338a565b9150509250929050565b600080600080600060a08688031215613458578081fd5b853567ffffffffffffffff8082111561346f578283fd5b61347b89838a016132db565b96506020880135915080821115613490578283fd5b61349c89838a01613268565b955060408801359150808211156134b1578283fd5b6134bd89838a016132db565b945060608801359150808211156134d2578283fd5b6134de89838a01613335565b935060808801359150808211156134f3578283fd5b50613500888289016132db565b9150509295509295909350565b60006020828403121561351e578081fd5b815180151581146115ee578182fd5b60006020828403121561353e578081fd5b5035919050565b60008060408385031215613557578182fd5b8235915061356760208401613251565b90509250929050565b600080600060608486031215613584578081fd5b8335925061359460208501613251565b9150604084013590509250925092565b600080604083850312156135b6578182fd5b50508035926020909101359150565b6000806000606084860312156135d9578081fd5b83359250602084013591506135f060408501613251565b90509250925092565b60008060006060848603121561360d578081fd5b505081359360208301359350604090920135919050565b600080600080600080600060e0888a03121561363e578485fd5b87359650602088013595506040880135945060608801359350608088013567ffffffffffffffff80821115613671578384fd5b61367d8b838c0161338a565b945060a08a0135915080821115613692578384fd5b5061369f8a828b0161338a565b9250506136ae60c08901613251565b905092959891949750929550565b6000806000606084860312156136d0578081fd5b833567ffffffffffffffff8111156136e6578182fd5b8401601f810186136136f6578182fd5b613705868235602084016131f9565b93505061371460208501613251565b91506135f060408501613251565b6000815180845261373a816020860160208601613961565b601f01601f19169290920160200192915050565b60008251613760818460208701613961565b9190910192915050565b60006101006001600160a01b03808c1684528a602085015289604085015288606085015287151560808501528160a08501526137a882850188613722565b915083820360c08501526137bc8287613722565b925080851660e085015250509998505050505050505050565b6020808252825182820181905260009190848201906040850190845b818110156138165783516001600160a01b0316835292840192918401916001016137f1565b50909695505050505050565b6000604082526138356040830185613722565b90508260208301529392505050565b6000602082526115ee6020830184613722565b6000602082526001600160a01b038351166020830152602083015160408301526040830151606083015260608301516080830152608083015161389e60a084018215159052565b5060a08301516101008060c08501526138bb610120850183613722565b915060c0850151601f198584030160e08601526138d88382613722565b92505060e08501516114ed828601826001600160a01b03169052565b604051601f8201601f1916810167ffffffffffffffff8111828210171561391d5761391d6139f9565b604052919050565b600067ffffffffffffffff82111561393f5761393f6139f9565b5060209081020190565b6000821982111561395c5761395c6139e3565b500190565b60005b8381101561397c578181015183820152602001613964565b838111156112bf5750506000910152565b6002810460018216806139a157607f821691505b602082108114156139c257634e487b7160e01b600052602260045260246000fd5b50919050565b60006000198214156139dc576139dc6139e3565b5060010190565b634e487b7160e01b600052601160045260246000fd5b634e487b7160e01b600052604160045260246000fdfe416464726573733a206c6f772d6c6576656c2064656c65676174652063616c6c206661696c6564a164736f6c6343000802000a",
  "linkReferences": {},
  "deployedLinkReferences": {}
}